:020000040000FA
:10000000602C0020C1030000C9030000CB030000E6
:10001000CD030000CF030000D1030000000000006A
:10002000000000000000000000000000910200003D
:10003000D50300000000000049030000AD030000EC
:10004000DD050000DB03000069080000DB030000A1
:1000500035060000DB03000031040000DB03000074
:10006000DB030000DB030000DB030000DB03000018
:10007000DB030000DB030000DB030000DB03000008
:10008000DB030000DB030000DB030000DB030000F8
:10009000DB030000DB030000DB030000DB030000E8
:1000A000DB030000DB030000DB030000DB030000D8
:1000B000DB030000DB030000000000000000000084
:1000C000DB030000DB030000DB030000DB030000B8
:1000D000DB030000DB030000DB0300000000000086
:1000E0000000000000000000000000000000000010
:1000F0000000000000000000000000000000000000
:1001000000000000000000000000000000000000EF
:1001100000000000000000000000000000000000DF
:1001200000000000000000000000000000000000CF
:1001300000000000000000000000000000000000BF
:1001400000000000000000000000000000000000AF
:10015000000000000000000000000000000000009F
:10016000000000000000000000000000000000008F
:10017000000000000000000000000000000000007F
:10018000000000000000000000000000000000006F
:10019000000000000000000000000000000000005F
:1001A000000000000000000000000000000000004F
:1001B000000000000000000000000000000000003F
:1001C000000000000000000000000000000000002F
:1001D000000000000000000000000000000000001F
:1001E000000000000000000000000000000000000F
:1001F00000000000000000000000000000000000FF
:10020000DFF820D000F000F9AFF3008001F0E8F94A
:100210000021034801F038FA01F0F4F9FEE700008C
:1002200018000020602C002080F309887047EFF34D
:1002300009807047684680F3098804480078C00741
:1002400014BF0220032080F3148870479C2A00000A
:10025000DFF818C0EFF305831B0618BF6047EFF304
:100260001483DB0708BF604700DF704737170000C3
:10027000DFF818C0EFF305831B0618BF6047EFF3E4
:100280001483DB0708BF604700DF70471D190000BB
:10029000EFF30980816911F8021CE1BB90E80F10AF
:1002A00010B5E047BDE81040EFF3098C8CE807007B
:1002B000214B93E80600914208BF704741B91EF0F8
:1002C000100F16D11D49086820F00100086010E0E9
:1002D0001EF0100F06BF2CED108A0120002081F8BF
:1002E00025002CE9F00FC1F828C00CB401F018FE6D
:1002F0000CBC1A60D2F828C0BCE8F00F92F82500B8
:1003000000280EBF6FF0020E6FF0120EBCEC108AC8
:100310008CF30988704710B5094A1268914209D8D0
:10032000084C54F8214090E80F10A047EFF3098CD7
:100330008CE80F0010BD00003C00002034EF00E00E
:100340002C0400002C04000010B501F0ADFCBDE849
:100350001040154B93E80600914208BF7047EFF339
:10036000098C1EF0100F06BF2CED108A0120002012
:1003700081F825002CE9F00FC1F828C00CB401F079
:10038000CFFD0CBC1A60D2F828C0BCE8F00F92F880
:10039000250000280EBF6FF0020E6FF0120EBCECAD
:1003A000108A8CF3098870473C00002010B501F0DA
:1003B0007FFECCE710B501F0BDF901F079FEC6E78C
:1003C0000648804706480047FEE7FEE7FEE7FEE7EF
:1003D000FEE7FEE7FEE7FEE7FEE7FEE75506000064
:1003E0000102000040EA01039B0703D009E008C9AD
:1003F000121F08C0042AFAD203E011F8013B00F8EA
:10040000013B521EF9D27047064C074D06E0E068EA
:1004100040F0010394E8070098471034AC42F6D34B
:10042000FFF7F2FEDC2A0000FC2A000000000000BA
:100430002DE9FF5F0025A846CDF80C804FF48079A8
:1004400001240026634F484601F098F838B1D7F8E8
:100450000403204018B1484601F086F825436400A3
:1004600009F104091FFA89F9761C082EEBD34FF421
:10047000BE74204601F082F848B1204601F074F8BD
:1004800045F0004503AA0121002001F05BF8DFF8E8
:10049000489115F0FF0F15D0012600242E420DD0F3
:1004A00007EB8401D1F81005C0F30420D1F8101532
:1004B000C1F3014159F8242002B190477600641C31
:1004C000082CEBD3002D73DACDF808800020411EF4
:1004D0000DF1040848F82010401C0028FAD0002430
:1004E000002509EB050010F8506F26F0C00B90F9BD
:1004F0000000401C3FD001A9584600F0ADFDD0B32C
:10050000B609584600F04AFB59F820700FB9032E7F
:1005100031D1032E0CD102A84FEADB010BF0070208
:10052000435C4FF0010C0CFA02FC43EA0C03435409
:100530004FF0A04000EB8B00D0F80007C0F3014A59
:1005400003A9584600F088FD10B1BAF1020F03D09C
:1005500088B9BAF1030F0ED1032E08D1BAF1020FF8
:100560001ED00221584600F0D6FF641CE4B217B139
:1005700031465846B8476D1C042DB2D334B301251B
:100580006A460121002000F0DDFF002003A96A4631
:1005900051F8206052F82030B34203D0002504E027
:1005A0000321DFE7401C0028F2D015B100240DE044
:1005B0000EE0002002AB52F8205041F8205053F8D2
:1005C000205048F82050401C0028F4D0002C86D140
:1005D000BDE8FF9F006000405C0000202DE9F04175
:1005E0004FF48077384600F03FFD0124104EA507F8
:1005F00048B1384600F03FFD0120C5F8080374708B
:10060000002000F0D3FA4FF48277384600F02CFD3A
:1006100000280BD0384600F02EFD0220C5F8080354
:10062000B470BDE8F041012000F0C0BABDE8F0812F
:10063000F800002002494FF0402000F071BC00009B
:10064000B400002002490148086070470090D003C0
:100650003000002070B500F00BFB4FF0805528B142
:10066000B5F824037249C0F30420086000F03CFB95
:1006700010B171496F48486700F04CFB28B1D5F8BC
:1006800044026E49C0F34230086000F061FB20B1C3
:100690006B48016821F08071016000F06FFB00245D
:1006A00028B16848046044606448001F046000F09A
:1006B00083FB18B1614903206431086000F092FBAC
:1006C000012658B16049052008605F48783006600F
:1006D0005D4808300460091D3F20086000F098FB69
:1006E000F0B35A4800685A4908605848001D00682D
:1006F000091D0860554808300068091D0860534806
:100700000C300068091D0860504810300068091D51
:1007100008604E4814300068091D08604B481830C6
:1007200000684B492031086048481C300068091DAA
:100730000860464820300068091D0860434824309E
:100740000068091D0860414828300068091D0860DC
:100750003E482C300068091D08603C48303000E0FD
:1007600017E000683A494031086038483430006882
:10077000091D0860354838300068091D0860334895
:100780003C300068091D0860304840300068091D91
:10079000086000F04FFA28B1D5F858022D4900F052
:1007A0004F00086000F082FA30B12B480168C90799
:1007B00002D06FF00101016021487438016841F4F2
:1007C00070010160BFF34F8FBFF36F8F4FF01022A6
:1007D000D2F80002002803DBD2F80402002822DA53
:1007E0001E4B1E601E4801680029FCD01525C2F86A
:1007F000005201680029FCD0C2F8045201680029A7
:10080000FCD01C6001680029FCD0BFF34F8F0C485E
:10081000F0380168134A01F4E06111430160BFF34D
:100820004F8F00BFFDE7BDE87040FFF70BBF000032
:10083000403501400DF0ADBA00C007403C05004016
:10084000FCED00E00C0100401056004004040010D4
:1008500020C50040E40E00400004004004E50140D3
:1008600000E401400400FA050548017F054800291D
:1008700002D0034902F05DB8014901F0C7BF000092
:10088000D800002000200040014A024900F036B89C
:10089000850E00001000002002E008C8121F08C1E9
:1008A000002AFAD170477047002001E001C1121FF1
:1008B000002AFBD1704710B5002A06DA22F0004268
:1008C000D21D22F00703102203E0D21C22F0030302
:1008D0000C2213B19C188C4201D9012010BD024496
:1008E00001448360C0E90021C91AD018884202D8A7
:1008F00010600246F9E70020106010BD2DE9F041BC
:1009000016460F460446002503E03946B047641CEE
:100910006D1C20780028F8D12846BDE8F08110B57C
:100920008268C3689A1A002A03D000F087FA002070
:1009300010BD052010BD002905D012B1531E134271
:1009400003D0092070470E2070470160838000218A
:100950008160C1600020704710B58268C3689A1A30
:1009600083889A4203D800F073FA002010BD042057
:1009700010BD0000F0B589B004460D461F46294E53
:100980007260002D1BD0A888296882B22648FFF724
:10099000D2FF002814D1A889A96882B22248103059
:1009A000FFF7C9FF00280BD12022204901A8FFF73B
:1009B00019FD60690790207C20B1012003E0072029
:1009C00009B0F0BD00208DF818008DF82070607C13
:1009D00008B10E2000E000208DF81900E0680390B7
:1009E000A068049020680290606801900D48104A49
:1009F00001A9083000F06EFB0028E1D1B07020683A
:100A0000401C0DD09DF8210018B90648083000F0B0
:100A1000F3FB04490122491CC81D00F091FBCFE7FC
:100A20000020CDE7000000200C010020542A000027
:100A30006127000010B501460B48FFF78DFF044603
:100A400084B90A4800F036FD60B9084906480839FB
:100A5000FFF765FF30B9054901220839034800F066
:100A60008DFC0446204610BD1C010020080000201B
:100A70002DE9F04105460C464FF0A04720684FF0A5
:100A80000106411C06D006FA00F1C7F808152068D7
:100A900000F037FD6068411C02D0002100F028FD05
:100AA00028792E4901EB4010007F58B32968A069CE
:100AB000C1F82405617D227D28681143C0F86C15BA
:100AC000D4E900122868C0F80C15C0F81425207D60
:100AD000012815D1A068411C02D0002100F008FDBA
:100AE000E068411C05D08640C7F80865E06800F062
:100AF00008FDD4E902212868C0F80815C0F81025BF
:100B0000BDE8F0812868A169C0F82415607D217DC9
:100B10002A680843C2F86C05D4E900122868C0F8B6
:100B20001425C0F80C15207D0128E9D1A068411CCE
:100B300002D0002100F0DCFCE068411C05D08640BA
:100B4000C7F80865E06800F0DCFCD4E902212868F9
:100B5000C0F80815C0F81025D2E70000D800002022
:100B60001FB50B48009020200190094820300290CA
:100B70004FF4007003900723064A69460648FFF7C2
:100B8000F9FE10B1002004B010BD0120FBE7000009
:100B90002C0100202D2A0000742A0000024908447C
:100BA00090F93000704700005C00002070B50546E9
:100BB000002D01D0064C05E0054C083C02E04168E0
:100BC00028468847204600F019FA0028F7D170BD62
:100BD0000801002008480068C0010BD507480068DC
:100BE000C00707D0054880380068002802DA0449A9
:100BF0000120087070470000FCED00E0800E00E06E
:100C0000500000204FF06042D36F002BFCD0036BEC
:100C1000D367D36F002BFCD0C07840EA0120A2F844
:100C20007C0070474FF06041CA6F002AFCD081F809
:100C30007C0070470D48007806280FD10B48001D36
:100C4000007800070AD1094808300078C0F3031083
:100C5000032805D0042805D0052805D000207047BA
:100C6000012070470120704701207047E00F00F01D
:100C70000D48007806280FD10B48001D00780007AA
:100C80000AD1094808300078C0F30310032805D0C2
:100C9000042805D0052805D00020704701207047A2
:100CA0000120704701207047E00F00F00D480078E8
:100CB00006280FD10B48001D007800070AD109480B
:100CC00008300078C0F30310032805D0042805D0AD
:100CD000052805D00020704701207047012070478B
:100CE00001207047E00F00F00948007806280BD17A
:100CF0000748001D0078000706D105480830007835
:100D0000C0F30310032801D0002070470120704772
:100D1000E00F00F00D48007806280FD10B48001DA9
:100D2000007800070AD1094808300078C0F30310A2
:100D3000032805D0042805D0052805D000207047D9
:100D4000012070470120704701207047E00F00F03C
:100D50000948007806280BD10748001D00780007D5
:100D600006D1054808300078C0F30310032801D0ED
:100D70000020704701207047E00F00F00D48007818
:100D800006280FD10B48001D007800070AD109483A
:100D900008300078C0F30310032805D0042805D0DC
:100DA000052805D0002070470120704701207047BA
:100DB00001207047E00F00F00948007806280BD1A9
:100DC0000748001D0078000706D105480830007864
:100DD000C0F30310032801D00020704701207047A2
:100DE000E00F00F00948007806280BD10748001DE5
:100DF0000078000706D1054808300078C0F30310DA
:100E0000032801D00020704701207047E00F00F058
:100E10000948007806280BD10748001D0078000714
:100E200006D1054808300078C0F30310052801D02A
:100E30000020704701207047E00F00F0826883882F
:100E40001A4003689A5C0A708168491C8160704787
:100E5000C26883881A4003689954C168491CC160FC
:100E6000704710B50446A07FFF2801D000F062FB58
:100E7000002060772072D4E9002104F10800BDE869
:100E80001040104710B50446E0B2FFF7D3FD2046EE
:100E900010BD000070B504460D4620791D494FF481
:100EA000A27601EB4010017F206800291DD04FF48D
:100EB000887100F083FB4FF49071206800F07EFB96
:100EC0004FF49271206800F079FB3146206800F001
:100ED00075FB11492068C0F80413206800F0EFF892
:100EE0002946BDE8704000F0CEB84FF48E7100F096
:100EF00054FB3146206800F050FB08492068C0F8D8
:100F00000413206800F0DBF82946BDE8704000F0CB
:100F1000BAB80000D80000201003020080000200D0
:100F200038B50C460022C0F80821D0F8081100910D
:100F3000214601F0BDFB002804D12046BDE8384021
:100F4000FFF78FBF38BD0EB5802200B109B1104642
:100F50000AE001780129FAD101A900F01FF804285C
:100F600001D0002000E01020DDE9011203B000BD37
:100F700070B50D46040003D012B92078012801D0C5
:100F8000802070BD204600F089FD28B1294620460A
:100F900000F02DF8002070BD812070BD10B5044612
:100FA0008089002822D0608904EB800000690860F5
:100FB0006078022805D10021204600F0C3FE00F031
:100FC000B1FE04F10C0000BFD0E85F1F491E8AB2D9
:100FD000C0E8512F0029F7D16089401C80B26081A0
:100FE000E189884201D100206081042010BD10B544
:100FF00000F0A8FEBDE8104000F094BE014608686D
:10100000002801D002680A607047000000F0E8FA8A
:10101000FFF7A6FD06A0FFF737FC0021094800F006
:1010200033FB00F0EFFA08A0FFF72EFCFBE700000F
:10103000546872656164204578616D706C650D0A55
:1010400000000000402A00004D61696E2054687263
:101050006561640D0A000000C20800F0070301206A
:10106000895C98400840704700F180400068002883
:1010700000D00120704708B500F1804000210160D8
:101080000068009008BD4907090E002806DA00F044
:101090000F0202F1E02282F8141D03E000F1E022C9
:1010A00082F8001400F01F020121914040098000E5
:1010B00000F1E020C0F88012C0F800117047000B6A
:1010C00040B270470121B1EB507F01D10120704740
:1010D000002070472DE9F04105460E461746287955
:1010E000DFF8588008EB4014E07E002802D008208A
:1010F000BDE8F081707F207731462846FFF7B8FCC5
:101100006760306920601FB1317F2846FFF7C2FE5B
:10111000287908EB4010007F20B128680821C0F82A
:10112000001503E028680421C0F800150020E075D0
:101130002076A0750121E176A076D9E7D8000020BD
:101140002DE9F04105460F4690462879294E06EBD9
:101150004014207F002803D03846FFF7B3FF78B152
:10116000002360684FF404714FF4017270B1287964
:1011700006EB4010007F30B12868C0F8081305E086
:101180001020BDE8F0812868C0F80823E07D90B108
:10119000207E78B1606858B1287906EB4010007F56
:1011A00018B12868C0F8041302E02868C0F80423C6
:1011B0001120E6E7012373B1276184F818802879AC
:1011C00006EB4010007F68B1424639462846BDE82C
:1011D000F04100F07DB884F81780E7600020607669
:1011E0002076ECE7424639462846BDE8F04100F05B
:1011F0001BB80000D800002070B50446094D2079C6
:1012000005EB4011087F00280AD1887E002807D10D
:10121000204601F0FEF82179012005EB4111887686
:1012200070BD0000D80000202DE9F05F044627497A
:10123000207901EB4015A87E002803D113B9204680
:1012400001F0E7F8686838B120684FF40171C0F820
:1012500004130020BDE8F09F4FF4A27949462068AE
:1012600000F09BF94FF4927A4FF4847B514620684A
:1012700000F08EF907465946206800F089F980464B
:101280004946206800F084F9064648EA060858EA0C
:101290000708EBD057EA060007D12946206801F07D
:1012A00093F8E87D697E8842E0D80020E8750FB1A8
:1012B0000320CFE70EB10F20CCE7A87E012110B1AB
:1012C00020680160C5E720684160C2E7D8000020BF
:1012D0002DE9F05F04460E461746984600254FF468
:1012E00088794946206800F069F94FF4A27A51469E
:1012F000206800F063F92068C0F83465C0F83875DC
:10130000B8F1000F15D02068D0F8001241F020018C
:10131000C0F800122079DFF8608008EB40104068C8
:1013200058B120684FF40471C0F804132846BDE892
:10133000F09F206801210160ECE74FF4927B494661
:10134000206800F036F907465146206800F031F970
:1013500006465946206800F02CF937430743EED083
:101360002279002108EB4212D17500B10325002E2D
:10137000DCD00F25DAE70000D80000202DE9F04787
:1013800004460F4690462079264E06EB4015287FEE
:10139000002803D03846FFF795FE30B1204600F014
:1013A00089F820B11120BDE8F0871020FBE785F80F
:1013B0001680AF604FF00008A5F81480207906EB86
:1013C0004015287F48B300264FF49079494620689D
:1013D00000F0F4F84FF4AC7A5146206800F0EEF8D3
:1013E0002068AA7DA968C0F84415C0F8482520687F
:1013F00001218160686870B94946206800F0D9F819
:1014000007465146206800F0D4F80743F4D000B1F5
:101410000F2685F816803046C5E72046BDE8F04720
:1014200000F002B8D80000202DE9F0470546204919
:10143000287901EB40144FF000084FF48E773946BD
:10144000286800F0AAF828684FF00109C0F8089051
:101450002146286801F065F9606830BB4FF480765A
:101460000EE03946286800F093F810B9A08AB0421F
:10147000F7D1A08AB04203D02146286801F051F983
:10148000A08AA17D8842ECD3A08AB04202D14FF05D
:101490000F0808E03946286800F07AF80028F9D0EB
:1014A0002868C0F80C900020A0754046BDE8F08781
:1014B000D80000200079044901EB4010807D00280D
:1014C00000D0012070470000D800002070B5DDE991
:1014D00004654FF0A04441EA420141EA830141EA38
:1014E000062104EB800041EA0541C0F8001770BDF9
:1014F0001CB500220B46009211460192FFF7E6FF51
:101500001CBD1CB5002100910B4601220191114622
:10151000FFF7DCFF1CBD4FF0A04202EB800000F59E
:10152000E060026822F440320260026842EA01414F
:10153000016070474FF0A0420121814002F5A16295
:101540001160704718B5074B1B6800936B46441831
:1015500005E053F82010D1F8101502C2401C844257
:10156000F7D818BD502A000008B5034908440021E7
:1015700001600068009008BD006000400349084415
:101580000068012800D00020704700000060004083
:101590004058002800D00120704708B50022425072
:1015A0004058009008BDD0F80403084000D0012046
:1015B00070474058002800D00120704708B500222D
:1015C00042504058009008BDEFF3058109B18220D8
:1015D0007047DFF808C000DF7047000033240000C8
:1015E000EFF3058008B182207047EFF31480C00745
:1015F00003D0DFF80CC000DF704700F023BF00000D
:101600004524000088B0EFF3058010B1822008B0B7
:101610007047EFF3148010F00301134806D001293E
:101620001BD0022911D0032919D113E008A981F395
:1016300009880078C0070BD05FF0020080F314889F
:10164000BFF34F8FBFF36F8F09E00078C00706D15B
:101650000320F3E70078C00701D0FF20D7E7DFF8C9
:101660000CC000DFD3E700009C2A0000B524000076
:10167000EFF305820AB1FFF766BCDFF808C000DFB0
:101680007047000021250000EFF305820AB1002019
:101690007047EFF31482064B02F001025B781A43A5
:1016A00003D0DFF810C000DF704700F057BF000024
:1016B000340000205D250000DFF80CC000DFDFF8FB
:1016C0000CC000DFFEE70000CD250000E92500008A
:1016D000DFF804C000DF704721260000094C4FF0FE
:1016E000FF3529462068FFF7C3FF02460846102A47
:1016F000F7D1FFF7EDFF0028F3D0024608469047E8
:10170000EFE700002C000020FEE7FEE70748016835
:101710004FF0E0204161002181610721016104480F
:10172000016841F07F41016040177047982A00002E
:1017300020ED00E0704750E8001F31B10B6840E831
:101740000032002AF7D108467047BFF32F8FFAE71F
:1017500010B568B161B10B3121F003020168446832
:101760000B1A1B1B934205D2084609680029F5D1C4
:10177000002010BD210007D021180368C1E9003204
:10178000016001F1080010BD4260083010BD00008A
:1017900070B50D46002812D04FF6FF71084C8842F4
:1017A00004D222680146104600F0FAFA206845701B
:1017B000044800F0DDF8BDE8704000F0C3BB70BD28
:1017C0003C0000202C0C00200F4810B50D49426849
:1017D0000E480B680068934204D00A60CB88421E12
:1017E0001A448A808A8880B282420AD10020086026
:1017F000054800F0BDF80146BDE81040024800F081
:10180000F3BA10BD540000202C0C00204C00002026
:1018100070B5194DE86800282CD0A88A401EA8820F
:10182000002621E0A06838B161684160606810B1AD
:10183000A16881606660A6600F482146183800F0F4
:10184000D3FAA08AA8826078042804D10B49E08AE0
:1018500009880844A08201206070E068E860E068C0
:1018600008B10561E6602661A88A002802D1EC680B
:10187000002CD7D170BD0000440C00204C0000208B
:1018800070B504000FD00D4DA1780126286882782C
:1018900091420CD900F0C4FA286846702046BDE891
:1018A000704000F04FBB064800F062F8F7E7667042
:1018B0002146BDE87040024800F096BA3C00002086
:1018C0002C0C00200321FFF763BF000010B5044675
:1018D000008B084320836278618B062A18D0052A82
:1018E00019D1084217D001EA00026283884320839D
:1018F000204600F0CFFA01206070628B082120465C
:1019000000F0C0FA2146BDE81040034800F06CBA70
:1019100031EA0002EAD010BD2C0C0020814202D333
:1019200042688A4201D80120704702680A60BFF30A
:101930005F8F50E8003F0A689A42F6D140E80012F3
:10194000002AF2D10020704768B161B10022083945
:1019500002E00246006830B18842FAD12AB100683C
:101960001060002070470120704700214160F8E7B7
:101970000146406842684A600B780022022B05D07D
:10198000012B03D0032B01D04260704743680BB199
:101990009960426082607047810700D000207047E4
:1019A00070B5044600201546207001226270A170B7
:1019B00084F824106060A060E06020612062A08252
:1019C000E0822083608384F82500E08C18B9054804
:1019D000FFF7B1FEE06229462046BDE8704000F006
:1019E0001DB80000E804002008B1082901D2012038
:1019F00070470144091F002201600A6042601046DE
:101A00007047000003480021016003490988C18034
:101A10007047000054000020942A000070B5C28C6A
:101A20001C4D930802D12A88C2F38D03C26A02EBCF
:101A30008302540700D5121F4FF0807442E902144C
:101A400000242646B2F1400242F82460641C0E2CA9
:101A5000FAD3C4691462826201632968C90014D58B
:101A6000112B12D94FF0FF31103B11EB53014FF006
:101A7000CC3305D042F8043C42F8083D491EF9D168
:101A8000C16A121F8A4200D91360C06A024901600C
:101A900070BD0000902A0000A52E5AE2C1898089FD
:101AA000081A704701220270002242708270426060
:101AB00002814281103982818908C181704700000A
:101AC0002DE9F041044640680E464FF0000804F14D
:101AD0000C05E8B36078012701283ED0022813D016
:101AE00003285CD10846FFF726FE050057D02046A4
:101AF000FFF73EFF0446294600F0BEF96770204616
:101B000000F0C8F9214621E02046FFF731FF0646E4
:101B1000002100F0B1F92189F06904EB810108612D
:101B2000D5E85F0F401C81B2C5E8501F0028F7D1EF
:101B30002089401C80B22081E189884201D1A4F82B
:101B400008807770304600F0A5F93146174800E06C
:101B50000CE0BDE8F04100F047B92046FFF708FF70
:101B600004463246102100F08DF9C7E7A089E189CB
:101B7000884216D2208904EB80000661D5E85F0F09
:101B8000401C81B2C5E8501F0028F7D12089401CB5
:101B900080B22081E189884201D1A4F80880BDE8A3
:101BA000F081BDE8F0410320FFF7AEBD2C0C002012
:101BB00070B50446808915460026C0B3608904EBE1
:101BC0008000006908606089401C80B26081E18902
:101BD000884200D16681606810B1607802280BD01D
:101BE00014F10C04D4E85F0F401E81B2C4E8501F0A
:101BF0000028F7D1002070BD2046FFF7B9FE05464A
:101C0000002100F039F92189E86904EB81010861BC
:101C10002089401C80B22081E189884200D1268140
:101C2000284600F037F92846FFF72AFEE2E7FFE7EB
:101C30003DB10B48626801682AB1204600F0D4F833
:101C400008E0012070BD616001684E60006884603A
:101C50000120607008212846FFF79AFDF1E7000097
:101C60003C000020002814D0411C13D00C4A4FF631
:101C7000FE7190420CD800EB4002C2EBC012094842
:101C8000036803EBC202521EB2FBF3F0884204D990
:101C9000084670474FF6FF70704780B270470000EB
:101CA00000093D00A82A000070B51B480121026808
:101CB0005170006800F0B4F8184D6C7818E000BF5F
:101CC00005EBC40148680278EAB1012A20D000F08F
:101CD0000DF9E878641C844200D100240F48801C70
:101CE000D0E84F1F491EC9B2C0E8421F002AF7D1F1
:101CF000A8780028E4D16C700948FFF739FEBDE8E8
:101D0000704000F01FB9098989B2FFF7DFFDE0E7F5
:101D10008968FFF7D5FEDCE73C000020580B002067
:101D20002C0C00200548017811B101214170704749
:101D300003494FF0805008607047000044000020C5
:101D400004ED00E0F0B4154DAB1CEE784FEA05074A
:101D5000D3E84F2FB24202D1BFF32F8F11E0521CB4
:101D6000D4B2C3E8424F002AF2D100BFD7E84F2FC8
:101D7000541CB44200D10024E4B2C7E8434F002B06
:101D8000F4D1EB78934205D905EBC202C2E9010117
:101D9000F0BC7047F0BC0220FFF7B6BC580B002027
:101DA000104A10B5D368ABB113469B8A03E08CB1DF
:101DB0002246A48A2344D4688B42F8D3C460D060FE
:101DC0000261C46804B12061591A8182908A401A64
:101DD000908210BD0024C460D060C91A0261918253
:101DE000848210BD440C002030B502780023022A02
:101DF00003D0012A01D0032A00D101238C7800E00E
:101E00001046426812B19578A542F9D24A60416005
:101E10001BB102B19160886030BD0020FBE700007B
:101E200003494A68426000228260486070470000AF
:101E30002C0C002010B5836804462BB9607801286B
:101E40000ED1084B03E09B6818780028FBD0204691
:101E500000F034F82146BDE810401846FFF7C4BF33
:101E600010BD00002C0C002090F82510806A09B1EC
:101E7000603070472030704710B50C46FFF7F4FF14
:101E8000046010BD70B515460C46FFF7EDFFC0E9C4
:101E9000004570BD10B5016900290ED0C268CA6046
:101EA000C36800223BB18B8A848A23448B82C36837
:101EB0001961C26000E08A82026110BD816839B197
:101EC00042684A604168002901D080688860704794
:101ED000054906E04A68824202D14068486070477E
:101EE00011460029F6D170472C0C002010B541682E
:101EF00081B1FFF73DFD0446FFF7CCFF0120607084
:101F000001462046FFF7B8FF2146BDE810400348D0
:101F1000FFF76ABF4188491C418010BD2C0C00208E
:101F200006480068D0E90A10814203D300680449DA
:101F3000884202D00120FFF7E7BB70473C00002039
:101F4000A52E5AE20749022248604270064A1278DA
:101F5000002A05D006C98A4202D0C078FEF762BEC8
:101F6000704700003C0000205000002070B5FEF7D4
:101F700031FE00200446204A204902E042F8204079
:101F8000401C0B889842F9D31D48342201881D4813
:101F9000FEF791FC1C48008880B240F000421B48CC
:101FA00001681B48FEF787FC1A48082201881A4876
:101FB0000068FEF780FC194DFF20194AE870EC8498
:101FC00000212846FFF7ECFC16480421017044600C
:101FD00015480170C4600461848214481549056085
:101FE000022068701248047044700978C170BDE81E
:101FF0007040FFF707BD0000DC0B00208C2A0000BA
:10200000B02A00006C030020902A0000B42A0000CF
:10201000E8040020D82A000014000020F80B00205B
:102020000B1700002C0C0020440C00203C0000206A
:10203000580B0020BC2A00001B4810B5016841F471
:102040007F01016000684FF07F4101EA00201649DE
:10205000C0431439B0FA80F00968C0F10800C1F338
:102060000221814200D3481C0F49091F0B686FF001
:102070008072824063F317020A60FFF747FB0B4947
:10208000002808600EDB00F1E021FF2281F8002427
:1020900000F01F02012191404009800000F1E02082
:1020A000C0F8001110BD000020ED00E04800002045
:1020B0000C4810B50268012151700068FFF7B0FEAE
:1020C000FFF782FB08480168491C0160FFF7A0FB8D
:1020D00000F0B2FA0548FFF74BFCBDE81040FFF7EF
:1020E00031BF00003C0000204C0000202C0C0020E0
:1020F000002805D0810702D10178002900D00020F6
:102100007047000030B50B4C0023626805E095680D
:102110008D4204D813461268491B002AF7D1026089
:10212000816012B19568691A91600BB1186030BD79
:10213000606030BD340000202DE9F0411E46174696
:1021400080460D4611F0FF0F00D14D1C1848FFF7D7
:10215000F2FA041E16D0280AE762E084E9B2424689
:102160002046E661FFF71CFC01251248124905E0F4
:1021700000EB850252F8042C32B16D1C0A8895429E
:10218000F6D90020BDE8F081002DFAD000EB8500E3
:1021900040F8044C0948E570007818B10121204648
:1021A000FEF730FD2046FFF76BFB2846EAE700000C
:1021B0006C030020DC0B00208C2A00005000002063
:1021C0002DE9F05F584DDFF85891DFF85881296804
:1021D0004FF0010A002618B1CA78AB46824243D1BB
:1021E0004E70FEF724F829688862FFF799FE286888
:1021F000046A1FE06068C0B12046FFF7B9FB0746DC
:102200000021FFF739FE3846FFF744FE87F801A0AA
:1022100039464648FFF7E8FDE168A4F802A0A76048
:10222000386AE0603C620C4604E0E0686680A660C4
:10223000E6600446002CDDD12868C27808EB8201F4
:1022400041F8046CC16A3A48FFF768FB2868C66227
:1022500099F8001011B10021FEF7D4FC3548296827
:10226000FFF75CFB2E6056E03349098888420CD8A2
:1022700008EB800858F8045C3DB12846FFF71EFEC5
:102280002846FFF707FE2C6A22E0FF20BDE8F09FFA
:102290006068C0B12046FFF76BFB07460021FFF7DF
:1022A000EBFD3846FFF7F6FD87F801A039461F48D9
:1022B000FFF79AFDE168A4F802A0A760386AE06021
:1022C0003C620C4604E0E0686680A660E660044676
:1022D000002CDDD148F8046C1548E96AFFF71EFBB5
:1022E000EE6299F8000018B100212846FEF78AFC3A
:1022F00029461048FFF712FB0C48DBF80010406835
:102300008B7882789A4209D981F801A00748DBF8D6
:102310000010FFF769FD0020FFF7B2FA0020B5E7D3
:1023200050000020DC0B00203C0000202C0C002082
:10233000E80400206C0300208C2A000070B51A4DC0
:1023400080B11A4A128890421FD8194A02EB8000C5
:1023500050F8044CCCB1A17084F824102868A04235
:1023600005D014E028688170286880F8241011488E
:1023700040688078884215D90E482968FFF734FDF7
:1023800029680120487000200AE0FF2070BD204627
:10239000FFF750FD6078012804D10648FFF7E8FAFE
:1023A000FFF76EFA002070BD3C0000208C2A000070
:1023B000DC0B00202C0C002002480068002800D014
:1023C000C07870473C00002070B505460C464FF4BD
:1023D0008471E07D00280BD02846FFF7DEF8D5F8A1
:1023E0001805627EE1688854607E401C607670BD8E
:1023F0002846FFF7D2F8D5F8180570BD1FB50123A0
:102400008DF800308DF80810019206C86846904794
:102410001FBD10B504464FF492712068FFF7BDF858
:102420004FF484712068FFF7B8F82068012101603B
:1024300010BD10B5002804D0FFF714FCFFF742FAD6
:10244000402010BD10B5134C207860B912484007E9
:1024500005D1124801681048FFF7C6FA08B1852077
:1024600010BDFFF783FD0E49FF20096888702078B2
:1024700058B900210B4800F041F80B4908600021D1
:102480000A4800F06BF80A4908600120207000201B
:10249000607010BD34000020A8090020B82A000098
:1024A0003C000020D02A00002C000020C02A0000A0
:1024B0002800002070B50F4D687808B1002070BD6D
:1024C0000D4C206890F824100020FFF737FF20689B
:1024D000C178FF2903D1816A203181F309886168BD
:1024E00011B9606000202060FFF7A6FD0120687030
:1024F000E4E70000340000203C00002010B5040098
:1025000005D0216819B1606808B102780AB10020CD
:1025100010BD8900103189B2FFF7C4FA606810BDA0
:102520003EB504000D464FF0800012D021780129FD
:102530000FD12846FFF796FB0246204601A9FFF778
:1025400037FB012801D0102003E00DB1402000E04E
:102550000020DDE9011203B030BD000070B50E4669
:1025600004002BD0206848B3B4F9040010F1030F25
:1025700024DB032822DCE16829B11148FFF7E8F8E1
:1025800005001BD000E00025B4F90400E168001D3F
:1025900040EA012133462A462068FFF7CDFD40B1CD
:1025A000084901EB8000084950F8040C826A516325
:1025B00070BD1DB129460248FFF7C6F9002070BD65
:1025C000A8090020DC0B0020B916000010B5FFF7A9
:1025D000F3FE002804D0034901EB800050F8040CFE
:1025E00010BD0000DC0B002010B5FFF781FD18B115
:1025F000C18C19B1C46A02E0802010BD0024C078EB
:10260000FFF7DEFDFF2806D01CB121460348FFF787
:102610009BF9002010BD812010BD0000A8090020FA
:1026200010B5FFF7B9F920B141690A680169104690
:1026300010BD0020014610BD2DE9F041134E746815
:10264000002C1CD0A068124F401E4FF00108A06063
:1026500012E0254624687460002229463868FEF797
:1026600087FC10B10420FFF74FF86879012808D0E3
:1026700085F80480002C02D0A0680028E9D0BDE8CD
:10268000F0812846E968FFF73DFDF3E734000020BC
:102690002C00002003A0FEF7F7F86420FEF794FF5B
:1026A000F8E700005468726561640D0A00000000DC
:1026B00038B5D0F81825009291F820200B7E9A4268
:1026C00003D29DF800304C69A35411F8202F521CFE
:1026D000D2B20A701346521C4C782039640707D5D1
:1026E0000C7C944200D90A740C7E944200D90A767C
:1026F0000C7C944205D9C968895CC0F81C1501207E
:1027000038BD0D7E954204D9C97FC0F81C15012043
:1027100038BDA34201D3AB4201D2012038BD002015
:1027200038BD70B505460C464FF48E712846FEF74D
:1027300034FFA18AA068415CA28A521CA282C5F81B
:102740001C1570BD1FB500228DF800208DF80810F3
:1027500081680191827506C8684690471FBD0000D8
:102760007CB50178274C002938D001290ED00229E8
:102770000BD18DF80010C0680190611C0122C81DAA
:10278000FEF7DEFC6168684688477CBD40680178DA
:102790001D48FEF7E1F81C4D012630B18DF80060B0
:1027A000019061686846884709E0A868E968081AE6
:1027B00028B100208DF80000616868468847A86845
:1027C000E968081AA988884206D80E490122491CDE
:1027D000C81DFEF7B5FC7CBDA6707CBD0A48094942
:1027E0001030FEF79CF830B103208DF800006168CE
:1027F000684688477CBD0349012201F10800FEF7C5
:10280000BDFD7CBD000000200C0100202DE9FF472C
:1028100005460C464FF400712846FEF7C4FE01271A
:102820004FF40178002618B34FF4927949462846B0
:10283000FEF7AEFEE0B149462846FEF7AEFEC5F80B
:102840000883A07E00B96F6002208DF80000D5F8E3
:102850008004C5F880040390E07D8DF80800E068EE
:102860000190E6752676D4E90012684690472AE082
:1028700004212846FEF797FE28B34FF484712846BA
:10288000FEF786FEF8B121462846FFF79DFDE07D64
:10289000617E884217D1207E50B1E268617EE0758A
:1028A0002069E060267666762046FFF7A7FD0AE0FD
:1028B000A07E00B96F60C5F80883E675617EE268A6
:1028C0002046FFF79BFD4FF48E7841462846FEF7E1
:1028D0005FFE88B1A08AA17D884204D221462846A5
:1028E000FFF71FFF08E041462846FEF756FEA17D90
:1028F00011B12046FFF726FF4FF4A2784146284643
:10290000FEF746FE002812D041462846FEF745FE57
:10291000A07E00B12F60E07D002808D0E675617EC2
:10292000E26804B02046BDE8F047FFF767BDBDE8A8
:10293000FF872DE9FF4105460C464FF49277394653
:102940002846FEF736FE0026C0B139462846FEF777
:1029500035FE02208DF80000D5F88004C5F880040B
:102960000390D5F83C058DF80800E0680190E67505
:102970002676D4E900126846904727E04FF488771E
:1029800039462846FEF715FE00B339462846FEF7BD
:1029900015FED5F83C05C1B2E07D884216D1207EF7
:1029A00078B1E268D5F8000220F02000C5F80002F6
:1029B000207EE0752069E06026762046FFF71EFD48
:1029C00004E0E6752046E268FFF718FD4FF4A277B1
:1029D00039462846FEF7EDFD68B139462846FEF730
:1029E000EDFDE07D38B1E675D5F83C05E268C1B291
:1029F0002046FFF703FD4FF4907631462846FEF758
:102A0000D8FD00280FD031462846FEF7D7FDA07D1F
:102A1000002808D0D5F84C0504B0C1B22046BDE866
:102A2000F041FFF78FBEBDE8FF81704700780228B4
:102A300003D0012803D1FFF7F8BFFFF7F6BF7047B7
:102A400095260000010000000100000000000000C9
:102A500000000050FFFFFFFFFFFFFFFFFFFFFFFF32
:102A6000FFFFFFFF00000000000000000000D60193
:102A7000070100000B00000005000000FFFFFFFF42
:102A8000FFFFFFFF000000000000D601070000006C
:102A9000C800020105000100DF2E00000100000057
:102AA0000200010050000400E803000000000000E4
:102AB00078010000C0040000B00100001000000018
:102AC000DD1600000200000001000000C800000048
:102AD000040000004C03002000000000FC2A00005D
:102AE000000000205C00000098080000582B000047
:102AF0005C000020042C0000A8080000000000007A
:102B00000000000000200040000000000000000065
:102B1000000000000D100000000000000100000097
:102B2000C800000000000000000000000090D0037A
:102B30000000000000000000000000000000000095
:102B40000000000000000000000000000000000085
:082B500000000000000000007D
:0400000500000201F4
:00000001FF
