:020000040000FA
:1000000010230020150200001D0200001F02000046
:100010002102000023020000250200000000000071
:1000200000000000000000000000000027020000A7
:1000300029020000000000002B0200002D02000039
:10004000F50300002F020000690800002F020000E5
:10005000610400002F0200005D0200002F0200007A
:100060002F0200002F0200002F0200002F020000CC
:100070002F0200002F0200002F0200002F020000BC
:100080002F0200002F0200002F0200002F020000AC
:100090002F0200002F0200002F0200002F0200009C
:1000A0002F0200002F0200002F0200002F0200008C
:1000B0002F0200002F0200000000000000000000DE
:1000C0002F0200002F0200002F0200002F0200006C
:1000D0002F0200002F0200002F020000000000008D
:1000E0000000000000000000000000000000000010
:1000F0000000000000000000000000000000000000
:1001000000000000000000000000000000000000EF
:1001100000000000000000000000000000000000DF
:1001200000000000000000000000000000000000CF
:1001300000000000000000000000000000000000BF
:1001400000000000000000000000000000000000AF
:10015000000000000000000000000000000000009F
:10016000000000000000000000000000000000008F
:10017000000000000000000000000000000000007F
:10018000000000000000000000000000000000006F
:10019000000000000000000000000000000000005F
:1001A000000000000000000000000000000000004F
:1001B000000000000000000000000000000000003F
:1001C000000000000000000000000000000000002F
:1001D000000000000000000000000000000000001F
:1001E000000000000000000000000000000000000F
:1001F00000000000000000000000000000000000FF
:10020000DFF80CD000F018F800480047A10D0000FE
:10021000102300200648804706480047FEE7FEE717
:10022000FEE7FEE7FEE7FEE7FEE7FEE7FEE7FEE7A6
:100230001D05000001020000064C074D06E0E068C5
:1002400040F0010394E8070098471034AC42F6D31D
:10025000FFF7DAFF5C1600007C1600002DE9F04F76
:1002600083B046F27C18C4F2000800200121A8F1F6
:100270007C0200230026019005E000BF0433202B00
:100280004FEA41010CD09F58012FF7D1D8F888715F
:100290000F42F3D098509F580E430297029FEDE70C
:1002A000D8F8000001280ED10020C8F80000D8F8C6
:1002B000000046F000460290029840F21050C5F24D
:1002C00000000068019040F2302A3006C2F2000AB5
:1002D00019D00127002504E00135082D4FEA470712
:1002E00011D03742F8D008EB8501D1F89403D1F84A
:1002F00094135AF82520002AEED0C0F30420C1F34D
:1003000001419047E8E7B6F1FF3F02DD03B0BDE8E9
:10031000F08F40F2105C0020C5F2000C02904FF00C
:10032000FF304FF00108E9460DF1040E00254FF0B3
:10033000000B009007E0002F08BF032B30D000BF58
:100340000135042D4AD00AEB050090F85010FF2922
:10035000F6D001F03F00C30800F0070219F803606F
:1003600008FA02F73742EBD00AEB000292F930208C
:1003700089095AF822200AB90329E1D1032903D1B6
:1003800002ACE65C3E43E6540CF5F87656F82040A5
:100390001EF803301F40C4F30143CCD0022BCAD156
:1003A000032912D1022B56F820304FF4003723F4E2
:1003B000403346F8203056F8203008BF4FF440371D
:1003C0003B430BF1010B46F82030002AB8D06446BD
:1003D00076469047B646A446B2E700BF5FEA0B6098
:1003E00094D0DCF80010019881423FF48FAF02985E
:1003F00001919BE7B0B582B040F20015C4F2000550
:10040000286840F2CC24C2F2000488B100202860A1
:100410002868009000980120C5F80802607000BFAD
:10042000A06828B10168A160416800208847F7E70B
:10043000686898B10020686068680190019802209F
:10044000C5F808020120A070206938B10168216157
:1004500041680120884720690028F7D102B0B0BD6B
:1004600080B582B044F20810C4F20000002101609F
:10047000016800910099D0F8100440F288218DF8AD
:100480000700C2F2000191F820000A7E904203D2D8
:100490009DF807204B691A5491F8200091F821200B
:1004A00001300123520753FA80F281F8200007D56A
:1004B0000B7C9A4238BF0A740B7E9A4238BF0A7688
:1004C0000B7C9A4202D2C868805C04E091F818C0A4
:1004D000624507D2C87F44F21C51C4F20001086093
:1004E00002B080BDC0B2984228BF604501D202B0C0
:1004F00080BD887FFF2807D0012202FA00F040F279
:100500000852C5F20002106000224A770846D1E97D
:10051000003100F8082F984702B080BD10B540F6B2
:10052000E070CFF200000178062904BF01795FEA8C
:10053000017100F095800178062904BF01795FEA16
:10054000017100F0A3800178062904BF01795FEAF8
:10055000017100F0AB8001784EF60C540629CEF202
:10056000000404BF02795FEA027200F0B4800278EE
:10057000062A04BF02795FEA027200F0B9800278AD
:10058000062A04BF02795FEA027200F0D080027886
:10059000062A04BF02795FEA027200F0D580027871
:1005A000062A04BF02795FEA027200F0E080017857
:1005B000062904BF01795FEA017100F01B8101780F
:1005C000062904BF01795FEA017100F02781E16F1C
:1005D00041F2002041F47001E167BFF34F8FC1F297
:1005E0000000BFF36F8F016800290DD44168B1F19D
:1005F000FF3F09DD40F2040049F20001C2F20000B1
:10060000C0F2D031016010BD4EF20042C4F20102CE
:100610000121C2F8041100BF11680029FCD0152186
:10062000016000BF11680029FCD01521416000BFA6
:1006300010680028FCD00020C2F8040110680028CF
:10064000FCD0BFF34F8F2068042100F4E060C0F2BB
:10065000FA5108432060BFF34F8F00BF00BFFDE792
:10066000816801F0F001302918BF502940F0E8807E
:1006700040F24421C1F20001D1F8E01043F24052AF
:10068000C1F30421C4F20102116054E7816801F052
:10069000F00130297FF457AF4CF274014FF20D0294
:1006A000C4F20701CBF6AD220A604CE7816801F085
:1006B000F001302918BF502940F0C68040F2442193
:1006C000C1F20001096840F23852C1F34231C4F26C
:1006D000000251603FE7826802F0F002302A7FF4A6
:1006E00046AFD4F8F02022F08072C4F8F0203EE744
:1006F000826802F0F002302A18BF502A40F0A88029
:100700004FF60C5C40F2004E4FF61053CFF6FF7CD4
:10071000C4F2000E0022CFF6FF734EF80C204EF804
:10072000032040F23853C4F200031A6027E78268BE
:1007300002F0F002302A7FF42AAF40F23852C4F2BD
:1007400000020323936622E7826802F0F002302A57
:100750007FF425AF45F21062C4F200020523136056
:1007600001239367002393603F23536017E7826858
:1007700002F0F002502A7FF41AAF40F24422C1F294
:100780000002D2F8C0C14CF22053C4F20003C3F8F7
:1007900000C0D2F8C4115960D2F8C8119960D2F8DB
:1007A000CC11D960D2F8D0111961D2F8D4115961A5
:1007B000D2F8D8111962D2F8DC115962D2F8E011DE
:1007C0009962D2F8E411D962D2F8E8111963D2F82B
:1007D000EC115963D2F8F0111964D2F8F41159648C
:1007E000D2F8F8119964D2F8FC11D964D2F8001249
:1007F0001965DCE6816801F0F002302A18BF502A42
:100800002AD140F24421C1F20001496940F6E46274
:1008100001F04F01C4F200021160D0E6806800F0E0
:10082000F000302818BF50281AD140F20040C4F21E
:1008300000000168C9071CBF6FF001010160C6E636
:1008400040297FF478AE13E740297FF484AE35E782
:10085000402A7FF494AE53E7402A7FF4B0AED0E74D
:1008600040287FF4B4AEE0E7F0B585B040F2AC24A8
:10087000C2F20004207F002857D042F22416C4F2AE
:100880000006306842F23C570028C4F2000700F02E
:1008900097800020306031680191019902218DF824
:1008A0000410D6F85C13C6F85C1304913968E2684A
:1008B0008DF80C10D4E90013A4F8170001A80292D7
:1008C0009847306A98B100203062316A01910199ED
:1008D000E17D61B1E0753868D4E90012E368012573
:1008E0008DF80C0001A88DF804500293904756F83B
:1008F000040C002800F01D81002046F8040C56F876
:10090000041C01910199A17D002900F0128139692F
:10091000A2688DF80C10D4E900138DF80400A075BE
:1009200001A80292984705B0F0BD42F22415C4F226
:100930000005D5F8E001800526D5286820B3002001
:1009400028602968019101994FF40171C5F8E411FB
:10095000A17E29B94FF6E061CFF6FF7101226A50FE
:1009600002218DF80410D5F85C13C5F85C13E27D04
:1009700004918DF80C20E268D4E900130292A4F8E7
:10098000170001A8984789E0D5F8E001400740F139
:10099000858055F81C0C002800F08080E07D002147
:1009A00045F81C1CA8B355F81C0C01900198D5F80B
:1009B000F403E168627E8854607E013060762EE048
:1009C00056F8140C00283FF47CAF002046F8140CB5
:1009D00056F8140C019001983868E17DC2B291423A
:1009E0007FF46FAF217E89B3D6F8DC2022F020029D
:1009F000C6F8DC20D4E90323E175E3600023D4E9E1
:100A0000001C237601238DF804308DF80C0002922F
:100A100027E055F81C0C01900198D5F8F403E07D0F
:100A2000617E88423AD1207EF0B1627EE075D4E9E1
:100A30000370D4E90013E060002020766076012086
:100A40008DF804008DF80C2002979AE70021E175DB
:100A5000D4E9001CE36801228DF804208DF80C0015
:100A6000029301A8E0472CE7A07E28B94FF6E0608A
:100A7000CFF6FF70012129504FF40170C5F8E40151
:100A80000020E075607ED4E90012E36801278DF84C
:100A90000C0001A88DF804700293904755F8080CDB
:100AA00040B3A18AA07D0022814245F8082C10D2D3
:100AB00055F8080C01900198A068A18A405CA18AB1
:100AC0000131A18242F23C51C4F2000141F8200CF4
:100AD00010E055F8081C0191019958B18DF80C00EF
:100AE000A068D4E900130022029001A88DF8042028
:100AF000A2759847286AE0B100202862286A019010
:100B00000198A07E28B14FF6DC60CFF6FF7001217E
:100B10002950E07D68B10020E075607ED4E90012C4
:100B2000E36801278DF80C0001A88DF8047002938A
:100B3000904705B0F0BD00004EF60C50CEF200001C
:100B4000D0F8E410C9070DD1BFF34F8F016804221C
:100B500001F4E061C0F2FA5211430160BFF34F8F1C
:100B600000BFFDE7FEDE000080B584B00021ADF8D7
:100B70000410CDE9021001AA44F201000021FFF7A0
:100B8000DBFF04B080BD00008268C368934204BFED
:100B900005207047D0F800C0836882881A401CF88E
:100BA00002200A70816801318160002070470000D6
:100BB000002904BF0E207047A2F1010C12EA0C03B9
:100BC000B2FA82F24FEA521218BF01231A431CBF35
:100BD0000920704701600021A0F804C08160C16055
:100BE00008467047D0F808C0C3688288A3EB0C039E
:100BF000934284BF04207047D0F800C0C3681A40F5
:100C00000CF80210C1680131C1600020704700007B
:100C1000B0B540F2F425C2F20005014640F2E420EE
:100C20002C78C2F20000FFF7AFFF012C044610D170
:100C30000020287040F2080040F20831C2F20000A3
:100C4000C2F20001012200F0F7F9002818BFFFF7F7
:100C50008BFF2046B0BD000070B588B0044640F25E
:100C6000E020C2F20000026061B10E460968B2885D
:100C700040F2E420C2F200001D46FFF799FF20B1C8
:100C800008B070BD072008B070BDB168B28940F2ED
:100C9000F820C2F20000FFF78BFF0028F0D141F2EC
:100CA0002860C0F20000D0E900E200F1080C4169C0
:100CB000C0699CE84810079002A8059180E8481098
:100CC0006069217CCDE900E20690002918BF01216E
:100CD000607C8DF814108DF81C50002818BF0E2071
:100CE0008DF81500E26894E80B00CDE90223CDE908
:100CF000001040F2080041F2C532C2F20000C0F21A
:100D00000002694600F0C2F80028B9D1226840F21A
:100D1000F421C2F20001002001320870B0D09DF829
:100D20001D0028B940F20800C2F2000000F082FA6B
:100D300040F2080040F20831C2F20000C2F20001A5
:100D4000012200F079F908B070BD000080B584B0D0
:100D500040F21000C2F2000000902020019040F20A
:100D60003000C2F2000002904FF40070039041F294
:100D7000106041F2C142C0F20000C0F200026946B8
:100D80000723FFF769FFB0FA80F0400904B080BD87
:100D900080B5FFF73DFFB0FA80F0400980BD00004C
:100DA000ADF5816DFFF7D2FF18A000F01FFC41F2F6
:100DB00048694FF0000B0DF207440FF278080DF16F
:100DC0000706C0F200090FF25C0A0025002708E0C0
:100DD000504600F077FB9DF807048DF807B4705576
:100DE00001352046FFF7D4FF9DF807145A29EFD1AB
:100DF000404600F067FB48463146775500F062FBFD
:100E00008DF8077400258DF807B4EAE7494E505570
:100E1000542053545245414D204558414D504C4566
:100E20000D0000005245434549564544203A2025CF
:100E3000630D0A00454E44204F46205452414E5304
:100E40004D495353494F4E0080B54EF2001ECEF22D
:100E5000000E00EB0E03490100F00F024EF6145C89
:100E600003F54073CEF2000C002848BF02EB0C03E0
:100E7000197000F01F010122400902FA01F10EEB86
:100E80008002C2F880114EF8201080BD2DE9F04795
:100E900082B090F804A040F2AC28C2F2000808EB3F
:100EA0004A15A94619F81B3F1BB1082002B0BDE83E
:100EB000F08791F81DE040F2007C85F81CE00F6897
:100EC00004467B1CC5F2000C0AD001234FF60866CD
:100ED000BB40CFF6FF764CF8063003234CF82730A2
:100EE0004F687B1C1CBF00234CF82730BEF1000F5D
:100EF00014D023688E69C3F824654B7D0E7D276866
:100F00003343DBB2C7F86C352368D1E90070012E9A
:100F1000C3F80C75C3F8140514D02EE020688B6953
:100F2000C0F82435487D0B7D26681843C0B2C6F84A
:100F30006C052068D1E90076012BC0F81465C0F873
:100F40000C751AD18F68781C1CBF00204CF8270044
:100F5000CF68781C0AD001204FF60863B840CFF65E
:100F6000FF734CF8030003204CF827002068CB687F
:100F70008F68C0F80835C0F810756A600B694FEAD1
:100F80004A10002A48F8003041D0097FBEF1000F16
:100F900023D020680022C0F81021D0F81001019061
:100FA00001982068C0F82021D0F820010190019814
:100FB0002068C0F82421D0F824010190019820680D
:100FC000C0F84421D0F844018022019001982068A3
:100FD000C0F2020202F5247212E020680022C0F87A
:100FE0001C21D0F81C01019001982068C0F8442110
:100FF000D0F844018022019001982068C0F20202DA
:10100000C0F80423206840F30730FFF71DFF207964
:1010100008EB4010007F002820680CBF0421082145
:10102000C0F80015002001212876E88289F8001018
:10103000A87602B0BDE8F0872DE9F04181B00379D0
:1010400040F2AC27C2F2000707EB43131C7F01F00C
:101050006047B7F1005F18BF002C21D1D3F804C05E
:10106000BCF1000F08D00768002C0CBF4FF40176CC
:101070004FF40476C7F808639E461EF8176FAEB1AA
:101080001D7E7DB1BCF1000F4CD00068002C0CBF60
:101090004FF401714FF40471C0F804131121C4E03E
:1010A0001021C2E016B11546196104E000258EF842
:1010B0000020D9605D761D762CB303680024C3F848
:1010C0001041D3F810310093009B0368C3F84441EA
:1010D000D3F844310093009B0368C3F83415C3F878
:1010E00038250EB30168D1F8002242F02002C1F881
:1010F0000022BCF1000F1DD000684FF40471C0F84D
:101100000413002191E0984618F81A1F314328D0A3
:10111000BCF1000F3AD000684FF40171C0F804131D
:10112000002182E0112180E0016801220A60BCF107
:10113000000FE1D1026800BFD2F81031D2F84401AB
:10114000D2F82411002B08BF50EA0103F4D000228A
:101150008EF80020002918BF0321002818BF0F2196
:1011600063E001680022C1F82421D1F82411009124
:1011700000990168C1F80821D1F8081101220091F5
:10118000009901680A60BCF1000FC4D102684FF0F9
:10119000000CC2F844C1D2F8442103F10C040092BF
:1011A000009A193311E000BFD5F808710097009F2D
:1011B000D5F81875256819786F54197801311970A8
:1011C0009EF800101D78A9421CD90568D5F8242185
:1011D000D5F80871D5F84461002F08BF56EA020718
:1011E000F4D0164318BF01260CD19EF80070C5F844
:1011F00008C1002FD8D1D5F808710097009FD5F805
:101200001875DDE70F21002A4FF0000318BF0321F6
:101210008EF800304EB998F80010006800294FF0A1
:1012200001010CBF416001600021084601B0BDE82A
:10123000F081000082B0017940F2AC22C2F20002DB
:1012400002EB41110A7F0AB102B0704711F81A2F60
:10125000002AF9D102680023C2F82431D2F82421EF
:101260000092009A0268C2F80831D2F8082101926F
:10127000019A0068012202600A7002B07047000003
:10128000F0B581B0037940F2AC25C2F2000505EB60
:101290004314257F01F06043B3F1005F18BF002DB8
:1012A00006D1A4461CF8163F2BB14FF0110E86E074
:1012B0004FF0100E83E04FF0000E23468CF8002014
:1012C00023F814EF43F80C1C3DB30368C3F820E186
:1012D000D3F820310093009B0368C3F858E1D3F89A
:1012E00058310093009B0368C3F84415C3F84825A0
:1012F000016801228A606168002960D1006800BF2E
:10130000D0F82011D0F858E151EA0E01F8D0BEF122
:10131000000F18BF4FF00F0E4EE005680126C5F80C
:101320001CE1D5F81C510095009D0568AE6005686C
:10133000C5F81CE1D5F81C610096009E1E888E5DE4
:101340001F8801371F80C5F81C656468BCBB1F88F7
:10135000974220D24FF0000E03E000BF1C88944259
:1013600019D20468D4F81C511DB91D88B5F5807FC9
:10137000F8D11D88B5F5807FF0D0C4F81CE1D4F811
:101380001C510095009D1D884D5D1E8801361E80F4
:10139000C4F81C55E2E71988B1F5807F02D14FF0FF
:1013A0000F0E09E0006800BFD0F81C110029FBD027
:1013B00001214FF0000EC16000208CF80000704643
:1013C00001B0F0BD10B582B0017899B1022928D0E2
:1013D000012924D1406840F2E4240178C2F20004DB
:1013E0002046FFF7FFFB002841D001218DF80010B7
:1013F000019043E040F2F82040F20931C2F20000CF
:10140000C2F20001FFF7C0FB20B340F2E021C2F2BC
:101410000001032009688DF800006846884702B083
:1014200010BDC06802218DF80010019040F2080044
:1014300040F20831C2F20000C2F200010122FFF7BF
:10144000FBFD40F2E020C2F20000016868468847D8
:1014500002B010BD40F2080040F20931C2F20000B3
:10146000C2F200010122FFF70BFF02B010BDA0681D
:10147000E168814209D000208DF8000040F2E020B0
:10148000C2F20000016868468847A068E168A28847
:10149000081A904207D940F2F420C2F2000001215C
:1014A000017002B010BD40F2080040F20831C2F2F3
:1014B0000000C2F200010122FFF7BEFD02B010BD24
:1014C000704700000FB4054B10B503A9044A0298F9
:1014D00000F017F810BC5DF814FB0000D9150000EF
:1014E0000000002002E008C8121F08C1002AFAD13B
:1014F00070477047002001E001C1121F002AFBD194
:1015000070472DE9F84F99469246884605460027D0
:1015100006E025280AD051464A4690476D1C7F1C9C
:1015200028780028F5D13846BDE8F88F002315F853
:10153000011F18462E2915D115F8011F04232A2949
:101540000DD06FF02F022978A1F13004092C09D8B1
:1015500000EB800002EB400008446D1CF3E758F8F4
:10156000040B6D1C2A78002ADDD0632A07D0732A69
:101570000FD0104651464A4690477F1C2AE018F883
:10158000042B8DF8002000218DF801106E460121FA
:1015900003E058F8046B4FF0FF315A074FF0000496
:1015A00001D409E0641C84420BDA8C42FADB325D20
:1015B000002AF7D105E0641C8C42FCDB305D00287A
:1015C000F9D1274404E016F8010B51464A469047EA
:1015D000641EF8D26D1CA3E738B504468DF80000F0
:1015E00069460320ABBE204638BD000010B5044656
:1015F00001E0FFF7F1FF14F8010B04490028F8D1CE
:10160000BDE810400A20FFF7E7BF000000000020FF
:101610000B00000005000000FFFFFFFFFFFFFFFFC2
:10162000000000000000D601FFFFFFFFFFFFFFFFEB
:10163000FFFFFFFFFFFFFFFF0000000000000000B2
:101640000000D60107010000544F54414C20494E80
:10165000505554203A2025730D0A000080160000D2
:101660000000002010000000E414000090160000AC
:101670001000002000230000F4140000000000000F
:10168000000000000090D003002000400000000097
:0400000500000201F4
:00000001FF
