:020000040000FA
:1000000098230020150200001D0200001F020000BE
:100010002102000023020000250200000000000071
:1000200000000000000000000000000027020000A7
:1000300029020000000000002B0200002D02000039
:10004000610A00002F020000D50E00002F02000000
:10005000CD0A00002F020000C90800002F02000096
:100060002F0200002F0200002F0200002F020000CC
:100070002F0200002F0200002F0200002F020000BC
:100080002F0200002F0200002F0200002F020000AC
:100090002F0200002F0200002F0200002F0200009C
:1000A0002F0200002F0200002F0200002F0200008C
:1000B0002F0200002F0200000000000000000000DE
:1000C0002F0200002F0200002F0200002F0200006C
:1000D0002F0200002F0200002F020000000000008D
:1000E0000000000000000000000000000000000010
:1000F0000000000000000000000000000000000000
:1001000000000000000000000000000000000000EF
:1001100000000000000000000000000000000000DF
:1001200000000000000000000000000000000000CF
:1001300000000000000000000000000000000000BF
:1001400000000000000000000000000000000000AF
:10015000000000000000000000000000000000009F
:10016000000000000000000000000000000000008F
:10017000000000000000000000000000000000007F
:10018000000000000000000000000000000000006F
:10019000000000000000000000000000000000005F
:1001A000000000000000000000000000000000004F
:1001B000000000000000000000000000000000003F
:1001C000000000000000000000000000000000002F
:1001D000000000000000000000000000000000001F
:1001E000000000000000000000000000000000000F
:1001F00000000000000000000000000000000000FF
:10020000DFF80CD000F04EFB0048004761220000F0
:10021000982300200648804706480047FEE7FEE78F
:10022000FEE7FEE7FEE7FEE7FEE7FEE7FEE7FEE7A6
:10023000890B00000102000040EA01039B0703D084
:1002400009E008C9121F08C0042AFAD203E011F815
:10025000013B00F8013B521EF9D27047D2B201E0D7
:1002600000F8012B491EFBD270470022F6E710B5BB
:1002700013460A4604461946FFF7F0FF204610BD14
:1002800030B504460020034600E05B1C934203D2D5
:10029000E05CCD5C401BF8D030BD2DE9FE4F8046C0
:1002A00081EA0300C00F0C46009021F0004123F0CA
:1002B0000045B8EB0200A94105D2404621469046D0
:1002C0001C460B46024623F00040104347D0270D42
:1002D000C7F30A00C3F30A510290401A0190402864
:1002E0006BDAC3F3130040F4801B0098924620B1F0
:1002F0000023D2EB030A63EB0B0B01985946C0F1C4
:100300004002504600F069F906460D4650465946EF
:10031000019A00F081F910EB08006141002487EA9E
:10032000115284EAE7731A4340D0009A62B3019AEB
:10033000012A4FEA075215DC001B61EB02014FF066
:10034000004202EA0752CDE90042001C41F580114B
:1003500032462B4600F0B8F903B0BDE8F08F4046B6
:100360002146F9E7001B61EB0201001C41F58013F7
:1003700000185B412018A2F5001747EB030140EA83
:10038000D570B6196D4111E06D084FEA360645EAA1
:10039000C0754FEA0752001B61EB0201001C41F5DA
:1003A000801149084FEA30000019514132462B466E
:1003B00003B0BDE8F04F00F078B90098012240008A
:1003C0000023D0EB020263EBE073009821464FEA72
:1003D000E074B8EB000061EB0401E9E783F000434F
:1003E0005BE781F0004158E72DE9FE4F81EA030405
:1003F00004F0004421F0004100944FF0000B23F082
:10040000004350EA01045ED052EA03045BD0C3F318
:100410000A54C1F30A552C44A4F2F3340194A0FB0E
:100420000254C1F3130141F48011C3F3130343F4E5
:10043000801301FB024400FB034E840A970A44EA3E
:10044000815447EA8357A4FB076802958D0A05FB90
:1004500007854FEA932C04FB0C542705029D4FEAB5
:10046000065847EA1637B5EB08056EEB070C870E02
:10047000920E47EA811742EA8312A7FB0201B6EB0C
:100480000B0164EB00042B0D43EA0C335E1844EBC4
:100490001C50DA465146E7FB0201C5F313044FEA4C
:1004A0000B3343EA14534FEA0432019C43EA060338
:1004B000A4F10C040294009CCDE900B400F004F90E
:1004C00003B0BDE8F08F00200146F9E70EB5C10F7B
:1004D00080EAE0700844CA07002140F233438DE807
:1004E0000E000A460B4600F0EFF803B000BD00F026
:1004F000004230F000400AD0C10D01F56071C0F338
:10050000160042EA0151C20840071143704700201B
:100510000146704701F0004330B421F0004150EA39
:10052000010206D00A0DA2F56072C1F31301002A80
:1005300002DC30BC00207047440F44EAC104C10013
:10054000E01830BC00EBC25000F078B830B50B4674
:10055000014600202022012409E021FA02F59D42F3
:1005600005D303FA02F5491B04FA02F52844151EC7
:10057000A2F10102F1DC30BD2DE9F05F054600205B
:1005800092469B4688460646814640241BE0284604
:1005900041464746224600F02FF853465A46C01AB5
:1005A000914110D311461846224600F016F82D1A34
:1005B00067EB01084F4622460120002100F00DF8AC
:1005C00017EB00094E41201EA4F10104DFDC484670
:1005D00031462A464346BDE8F09F202A04DB203AF4
:1005E00000FA02F1002070479140C2F1200320FA86
:1005F00003F3194390407047202A04DB203A21FA84
:1006000002F00021704721FA02F3D040C2F120022B
:100610009140084319467047202A06DBCB17203A41
:1006200041FA02F043EAE07306E041FA02F3D040F7
:10063000C2F1200291400843194670470029A8BF23
:100640007047401C490008BF20F00100704710B4FB
:10065000B0FA80FC00FA0CF050EA010404BF10BCB0
:10066000704749B1CCF1200421FA04F411FA0CF1DD
:1006700018BF012121430843A3EB0C01CB1D4FEA16
:1006800000614FEA102042BF002010BC704700EB11
:10069000C35010440029A4BF10BC7047401C49003F
:1006A00008BF20F0010010BC704710B5141E73F194
:1006B000000408DA401C41F1000192185B411A4322
:1006C00001D120F0010010BD2DE9F04D92469B466E
:1006D00011B1B1FA81F202E0B0FA80F22032904614
:1006E000FFF77BFF04460F4640EA0A0041EA0B0190
:1006F00053465A46084313D0114653EA010019D015
:10070000C8F140025046FFF777FF05460E465046B7
:1007100059464246FFF761FF084305D0012004E037
:1007200020463946BDE8F08D0020054346EAE076D4
:100730002C4337430A986305E40AA0EB0800002223
:10074000FD0A44EA47540A3002D500200146E9E791
:10075000010510196941DDE9084500196941BDE845
:10076000F04DA2E72DE9F04D81EA030404F0004BBF
:1007700021F0004514464FF0000A23F0004150EAF2
:10078000050220D054EA01021DD0C5F30A570246E3
:10079000C5F31303C1F31300C1F30A5640F48015E7
:1007A00043F48013A7EB0608101BD64608F2FD3869
:1007B00073EB050002D308F1010801E092185B41D8
:1007C000B8F1000F03DA00200146BDE8F08D0020EB
:1007D0004FF48011064684460EE0171B73EB0507A5
:1007E00005D3121B63EB050306434CEA010C4908D1
:1007F0004FEA300092185B4150EA0107EDD152EA0E
:10080000030012D082EA040083EA0501084305D000
:10081000101BAB4106D20122002306E000224FF05C
:10082000004302E06FF0010253101AEB06004CEB9C
:10083000085110EB0A0041EB0B01BDE8F04DFFF74A
:1008400034BFC1F30A52C1F3130140F2FF3341F444
:1008500080119A4202DA00200146704740F2334389
:100860009A42A2F2334202DC5242FFF7C5BEFFF7C2
:10087000B4BE000030B5041E71F1000404DB4FF07B
:100880000044404264EB0101141E73F1000405DBD7
:100890001C464FF00043524263EB0403994208BFE9
:1008A000904230BD064C074D06E0E06840F0010381
:1008B00094E8070098471034AC42F6D3FFF7A4FC45
:1008C000F43C0000143D00002DE9F04F83B046F2E7
:1008D0007C18C4F2000800200121A8F17C0200234A
:1008E0000026019005E000BF0433202B4FEA4101B0
:1008F0000CD09F58012FF7D1D8F888710F42F3D050
:1009000098509F580E430297029FEDE7D8F80000D9
:1009100001280ED10020C8F80000D8F8000046F0E9
:1009200000460290029840F21050C5F200000068A4
:10093000019040F29C2A3006C2F2000A19D0012729
:10094000002504E00135082D4FEA470711D0374252
:10095000F8D008EB8501D1F89403D1F894135AF834
:100960002520002AEED0C0F30420C1F301419047B6
:10097000E8E7B6F1FF3F02DD03B0BDE8F08F40F2DB
:10098000105C0020C5F2000C02904FF0FF304FF0D9
:100990000108E9460DF1040E00254FF0000B009010
:1009A00007E0002F08BF032B30D000BF0135042D16
:1009B0004AD00AEB050090F85010FF29F6D001F05C
:1009C0003F00C30800F0070219F8036008FA02F7B5
:1009D0003742EBD00AEB000292F9302089095AF82D
:1009E00022200AB90329E1D1032903D102ACE65C34
:1009F0003E43E6540CF5F87656F820401EF80330D6
:100A00001F40C4F30143CCD0022BCAD1032912D119
:100A1000022B56F820304FF4003723F4403346F8C9
:100A2000203056F8203008BF4FF440373B430BF1DD
:100A3000010B46F82030002AB8D06446764690472D
:100A4000B646A446B2E700BF5FEA0B6094D0DCF87C
:100A50000010019881423FF48FAF029801919BE70B
:100A6000B0B582B040F20015C4F20005286840F22B
:100A70003834C2F2000488B1002028602868009051
:100A800000980120C5F80802607000BFA06828B176
:100A90000168A160416800208847F7E7686898B15D
:100AA000002068606868019001980220C5F808027B
:100AB0000120A070206938B10168216141680120DE
:100AC000884720690028F7D102B0B0BD80B582B058
:100AD00044F20810C4F20000002101600168009196
:100AE0000099D0F8100440F2F4218DF80700C2F20A
:100AF000000191F820000A7E904203D29DF8072061
:100B00004B691A5491F8200091F8212001300123FB
:100B1000520753FA80F281F8200007D50B7C9A42E5
:100B200038BF0A740B7E9A4238BF0A760B7C9A4211
:100B300002D2C868805C04E091F818C0624507D210
:100B4000C87F44F21C51C4F20001086002B080BDAD
:100B5000C0B2984228BF604501D202B080BD887FF4
:100B6000FF2807D0012202FA00F040F20852C5F235
:100B70000002106000224A770846D1E9003100F8EF
:100B8000082F984702B080BD10B540F6E070CFF254
:100B900000000178062904BF01795FEA017100F0C5
:100BA00095800178062904BF01795FEA017100F0A0
:100BB000A3800178062904BF01795FEA017100F082
:100BC000AB8001784EF60C540629CEF2000404BF27
:100BD00002795FEA027200F0B4800278062A04BF4C
:100BE00002795FEA027200F0B9800278062A04BF37
:100BF00002795FEA027200F0D0800278062A04BF10
:100C000002795FEA027200F0D5800278062A04BFFA
:100C100002795FEA027200F0E0800178062904BFE1
:100C200001795FEA017100F01B810178062904BF98
:100C300001795FEA017100F02781E16F41F2002044
:100C400041F47001E167BFF34F8FC1F20000BFF3C1
:100C50006F8F016800290DD44168B1F1FF3F09DDB4
:100C600040F2040049F20001C2F20000C0F2D031AB
:100C7000016010BD4EF20042C4F201020121C2F82F
:100C8000041100BF11680029FCD01521016000BFCC
:100C900011680029FCD01521416000BF10680028B0
:100CA000FCD00020C2F8040110680028FCD0BFF37B
:100CB0004F8F2068042100F4E060C0F2FA5108432D
:100CC0002060BFF34F8F00BF00BFFDE7816801F0D8
:100CD000F001302918BF502940F0E88040F244214B
:100CE000C1F20001D1F8E01043F24052C1F30421F7
:100CF000C4F20102116054E7816801F0F00130296B
:100D00007FF457AF4CF274014FF20D02C4F20701A9
:100D1000CBF6AD220A604CE7816801F0F001302982
:100D200018BF502940F0C68040F24421C1F20001B2
:100D3000096840F23852C1F34231C4F200025160F6
:100D40003FE7826802F0F002302A7FF446AFD4F821
:100D5000F02022F08072C4F8F0203EE7826802F0B2
:100D6000F002302A18BF502A40F0A8804FF60C5CE1
:100D700040F2004E4FF61053CFF6FF7CC4F2000E47
:100D80000022CFF6FF734EF80C204EF8032040F2FD
:100D90003853C4F200031A6027E7826802F0F002B9
:100DA000302A7FF42AAF40F23852C4F20002032303
:100DB000936622E7826802F0F002302A7FF425AFC2
:100DC00045F21062C4F20002052313600123936709
:100DD000002393603F23536017E7826802F0F0021C
:100DE000502A7FF41AAF40F24422C1F20002D2F836
:100DF000C0C14CF22053C4F20003C3F800C0D2F8C3
:100E0000C4115960D2F8C8119960D2F8CC11D960D8
:100E1000D2F8D0111961D2F8D4115961D2F8D81191
:100E20001962D2F8DC115962D2F8E0119962D2F855
:100E3000E411D962D2F8E8111963D2F8EC115963C0
:100E4000D2F8F0111964D2F8F4115964D2F8F811FB
:100E50009964D2F8FC11D964D2F800121965DCE665
:100E6000816801F0F002302A18BF502A2AD140F2DE
:100E70004421C1F20001496940F6E46201F04F01EA
:100E8000C4F200021160D0E6806800F0F000302863
:100E900018BF50281AD140F20040C4F20000016887
:100EA000C9071CBF6FF001010160C6E640297FF44D
:100EB00078AE13E740297FF484AE35E7402A7FF40B
:100EC00094AE53E7402A7FF4B0AED0E740287FF4D9
:100ED000B4AEE0E7F0B585B040F21834C2F20004D9
:100EE000207F002857D042F22416C4F20006306852
:100EF00042F23C570028C4F2000700F0978000201F
:100F0000306031680191019902218DF80410D6F802
:100F10005C13C6F85C1304913968E2688DF80C1014
:100F2000D4E90013A4F8170001A802929847306A88
:100F300098B100203062316A01910199E17D61B17F
:100F4000E0753868D4E90012E36801258DF80C00DB
:100F500001A88DF804500293904756F8040C00281D
:100F600000F01D81002046F8040C56F8041C019185
:100F70000199A17D002900F012813969A2688DF8DC
:100F80000C10D4E900138DF80400A07501A802929A
:100F9000984705B0F0BD42F22415C4F20005D5F81B
:100FA000E001800526D5286820B300202860296844
:100FB000019101994FF40171C5F8E411A17E29B99D
:100FC0004FF6E061CFF6FF7101226A5002218DF8E1
:100FD0000410D5F85C13C5F85C13E27D04918DF81C
:100FE0000C20E268D4E900130292A4F8170001A8CB
:100FF000984789E0D5F8E001400740F1858055F831
:101000001C0C002800F08080E07D002145F81C1CAD
:10101000A8B355F81C0C01900198D5F8F403E168C9
:10102000627E8854607E013060762EE056F8140CA3
:1010300000283FF47CAF002046F8140C56F8140C3E
:10104000019001983868E17DC2B291427FF46FAFA0
:10105000217E89B3D6F8DC2022F02002C6F8DC20FD
:10106000D4E90323E175E3600023D4E9001C23766F
:1010700001238DF804308DF80C00029227E055F81A
:101080001C0C01900198D5F8F403E07D617E884244
:101090003AD1207EF0B1627EE075D4E90370D4E9E4
:1010A0000013E06000202076607601208DF80400B7
:1010B0008DF80C2002979AE70021E175D4E9001C15
:1010C000E36801228DF804208DF80C00029301A83A
:1010D000E0472CE7A07E28B94FF6E060CFF6FF701E
:1010E000012129504FF40170C5F8E4010020E0759A
:1010F000607ED4E90012E36801278DF80C0001A896
:101100008DF804700293904755F8080C40B3A18AFB
:10111000A07D0022814245F8082C10D255F8080C19
:1011200001900198A068A18A405CA18A0131A18246
:1011300042F23C51C4F2000141F8200C10E055F895
:10114000081C0191019958B18DF80C00A068D4E9F0
:1011500000130022029001A88DF80420A275984780
:10116000286AE0B100202862286A01900198A07ED8
:1011700028B14FF6DC60CFF6FF7001212950E07DE9
:1011800068B10020E075607ED4E90012E3680127B1
:101190008DF80C0001A88DF804700293904705B0FB
:1011A000F0BD0000B0B584B004466D208DF802009B
:1011B000102048F2EE658DF805000DF103010DF1E8
:1011C000020303200122ADF8035002F03FF864B19E
:1011D00040F20760ADF80600302002A90DF10603C9
:1011E000ADF808508DF80A000CE041F20760ADF848
:1011F0000B003020ADF80D508DF80F000DF10D01F2
:101200000DF10B030320022202F020F804B0B0BD60
:101210002DE9F04182B00DF103044FF036080DF1D5
:1012200005010120022223468DF8058001F0A8FD6A
:1012300040F20130ADF80300B6270DF105010120A1
:1012400001222346651C8DF8057001F0FFFF4FF465
:10125000FB760DF10501022001222B46ADF8056059
:1012600001F0F4FF4FF40040ADF8030040F2ED60F0
:101270000DF10304ADF805000DF105010220022275
:10128000234601F0E3FF012000F074F90DF10501A0
:101290000120022223468DF8058001F071FD002017
:1012A0008DF803009DF804000DF1050100F0FE002B
:1012B0008DF80400012001222346651C8DF805707D
:1012C00001F0C4FF0DF10501022001222B46ADF80B
:1012D000056001F0BBFF02B0BDE8F081F0B583B05E
:1012E000ADF8090040F2ED400DF10504ADF8050040
:1012F0000DF1090302202146022201F0A7FF032677
:1013000040F2ED670DF105010DF109030220012204
:101310008DF80960ADF8057001F098FF00250DF11A
:1013200005010DF10903022001228DF80950ADF8E5
:10133000057001F08BFF40F66D20ADF809000DF14E
:1013400009010DF105030220042201F019FD00BF7F
:10135000A05D013E711C40EA0525F9D1284603B085
:10136000F0BD00004EF60C50CEF20000D0F8E410B4
:10137000C9070DD1BFF34F8F0168042201F4E0616A
:10138000C0F2FA5211430160BFF34F8F00BFFDE777
:10139000FEDE000080B584B00021ADF80410CDE978
:1013A000021001AA44F201000021FFF7DBFF04B0A4
:1013B00080BD00008268C368934204BF0520704767
:1013C000D0F800C0836882881A401CF802200A7096
:1013D000816801318160002070470000002904BF4E
:1013E0000E207047A2F1010C12EA0C03B2FA82F24D
:1013F0004FEA521218BF01231A431CBF092070473D
:1014000001600021A0F804C08160C16008467047F7
:10141000D0F808C0C3688288A3EB0C03934284BF52
:1014200004207047D0F800C0C3681A400CF80210BE
:10143000C1680131C16000207047000070B588B0FC
:10144000044640F24C30C2F20000026061B10E4628
:101450000968B28840F25030C2F200001D46FFF722
:10146000BDFF20B108B070BD072008B070BDB168E5
:10147000B28940F26430C2F20000FFF7AFFF0028EB
:10148000F0D143F62C40C0F20000D0E900E200F1B8
:10149000080C4169C0699CE84810079002A80591B2
:1014A00080E848106069217CCDE900E206900029BF
:1014B00018BF0121607C8DF814108DF81C50002895
:1014C00018BF0E208DF81500E26894E80B00CDE9F6
:1014D0000223CDE9001040F2080043F24D12C2F29F
:1014E0000000C0F20002694601F0CAF80028B9D134
:1014F000226840F26031C2F200010020013208701F
:10150000B0D09DF81D0028B940F20800C2F20000DA
:1015100001F08AFA40F2080040F28831C2F200007D
:10152000C2F20001012201F081F908B070BD000093
:1015300080B584B040F24000C2F20000009020204C
:10154000019040F26000C2F2000002904FF400707F
:10155000039043F6144043F24922C0F20000C0F267
:10156000000269460723FFF769FFB0FA80F04009DF
:1015700004B080BD4FF47A714843002808BF70471B
:1015800040F20401C2F2000142F200420968C0F2D6
:10159000F40200BF00BF00BF00BF00BF00BF00BF1C
:1015A00000BF91422FD000BF00BF00BF00BF00BFEF
:1015B00000BF00BF00BF00BF00BF00BF00BF00BF33
:1015C00000BF00BF00BF00BF00BF00BF00BF00BF23
:1015D00000BF00BF00BF00BF00BF00BF00BF00BF13
:1015E00000BF00BF00BF00BF00BF00BF00BF00BF03
:1015F00000BF00BF00BF00BF00BF00BF00BF00BFF3
:1016000000BF00BF00BF401EC3D170472DE9F04F9F
:1016100083B090F80090044690F801C04279C379F5
:1016200040F21C00A9F10407C2F20000B7FA87F5E6
:1016300043F692460768A9F10701C0F20006B1FA25
:1016400081F136F812207E694909002B4FEA5513C3
:1016500005D026F480067E610827164604E046F48D
:1016600080067E61D6080B2743EA010A016822FA48
:1016700007F7227A48690A7262F3114048610DF156
:101680000501ACF101050139042200BF01F8010F89
:10169000013A4FEA1020F9D184208DF809000DF1AC
:1016A00009010DF10503012004224FF0040801F0A7
:1016B000CDFD48F2EE408DF80960ADF805005020F0
:1016C0000DF105068DF807000DF1090303203146E1
:1016D00002228DF80A7001F0B9FD5FFA85FB5846C9
:1016E000FFF760FD43F60C40C0F2000010F80970EF
:1016F00043F67440C0F2000050F82700711E00BF8E
:1017000001F8010FB8F101084FEA1020F8D140F2BA
:10171000EB70ADF809000DF109010DF10503022090
:101720000422042501F092FD43F68C40C0F2000033
:10173000C05D0DF105018DF8090040F6EB30ADF804
:1017400005000DF109030220012201F07FFD43F69F
:10175000C440C0F2000010F80A000DF105068DF833
:10176000090040F6E830ADF805000DF1090302204C
:101770003146012201F06AFD43F6DC40C0F2000070
:1017800050F82700711E00BF01F8010F013D4FEA1C
:101790001020F9D140F6E840ADF809000DF109013B
:1017A0000DF105030220042201F050FDE17943F61A
:1017B000C642A079C0F2000202EB810131F81000AC
:1017C0000DF10501ADF8090040F2E720ADF8050084
:1017D0000DF109030220022201F038FD43F66C40AE
:1017E000C0F2000030F81B000DF10506ADF809004D
:1017F00040F2E740ADF805000DF109030220314643
:10180000022201F023FDE079A0B1A07804281FD1C5
:1018100040F2E7601025ADF805000DF105010DF16E
:10182000090302200222ADF8095001F00FFD8DF8E6
:1018300009501FE06420ADF8090040F2E760ADF800
:1018400005000DF105010DF10903022002221BE044
:101850002020ADF8090040F2E760ADF805000DF179
:1018600005010DF109030220022201F0EFFC2820FE
:101870008DF8090042F2E760ADF805000DF10501B1
:101880000DF109030220012201F0E0FC43F64C4176
:10189000E078C0F2000101EB0B1151F82000711E3D
:1018A000042200BF01F8010F013A4FEA1020F9D1DC
:1018B00040F6E700ADF809000DF109010DF105034F
:1018C0000220042201F0C2FC60890DF10506002807
:1018D00004BF41F24100608160890DF10903ADF858
:1018E000090042F2E700ADF805000220314602226D
:1018F00001F0ACFC43F60445C0F200052868711EF7
:10190000042200BF01F8010F013A4FEA1020F9D17B
:1019100040F6E340ADF809000DF109010DF10503B2
:101920000220042201F092FC05EB4B0080880DF1AF
:101930000505ADF8090040F2E340ADF805000DF1F2
:10194000090302202946022201F080FCA079B8B1E7
:10195000E07943F67041C0F20001085C0DF1050129
:101960008DF80900A1208DF805000DF10903012073
:10197000012201F06BFC4FF440114FF4003001E004
:101980000020002109F00F02637869F3071227791C
:10199000104303F003030843667907F01F0740EA8A
:1019A000834040EA875040EAC660691E042200BFB7
:1019B00001F8010F013A4FEA1020F9D19F200DF1F3
:1019C00005058DF809000DF10901012004222B46BF
:1019D000042601F03BFC6078A178E279084340F2EC
:1019E0001C01C2F200010004096840EA4230C860EC
:1019F000691E00BF01F8010F013E4FEA1020F9D126
:101A000088208DF809000DF109010DF10503012071
:101A1000042201F01BFC42208DF809008D208DF876
:101A200005000DF105010DF109030120012201F06E
:101A30000DFC03B0BDE8F08F2DE9F04182B040F21B
:101A40001C08C2F200080446D8F8000000270DF177
:101A500005050DF10106477487760783C0E90A770B
:101A6000C0E90C7701202946042233468DF8057021
:101A700001F086F9032000BF315C0138421C41EAC5
:101A80000727F9D140F23010CDF6CA60874240F006
:101A90009F8000F05DFA36208DF801000DF1010104
:101AA000012002222B46022601F06AF99DF805006A
:101AB0000DF1010100F0FC0001308DF80500B620A9
:101AC0008DF80100012001222B4601F0BFFB4FF4ED
:101AD000FB706B1CADF801000DF101010220012229
:101AE00001F0B4FB04208DF80500A4208DF801005E
:101AF0000DF101010DF105030120012201F0A6FB0A
:101B00001E20FFF7EBFB0546D8F80000290A4172BA
:101B10000420FFF7E3FB000613D041F2ED20ADF8FF
:101B200001000DF101010DF10503022001228DF8E4
:101B3000056001F08BFBD8F80000018B41F4805167
:101B400001830620FFF7CAFBD8F8001008600720C1
:101B5000FFF7C4FBD8F800100DF10506486015F03A
:101B60001F0008BF1020087460308DF8050040F693
:101B7000EB600DF10105ADF80100022029460122BC
:101B8000334601F063FBE00727D140F27650ADF811
:101B900001000DF101010DF105030220022201F007
:101BA000EFF89DF806009DF8051000F0FD008DF897
:101BB000060040F2F6508DF80510ADF801000DF169
:101BC00001010DF105030220022201F03FFB0CE0B0
:101BD0004FF0FF3002B0BDE8F081FFF719FBD8F8F5
:101BE0000000018B41F40061018336208DF8010073
:101BF000012029460222334601F0C2F89DF8060072
:101C0000002700F0FE008DF80600B6208DF80100D8
:101C10000DF101010120012233468DF80570741C7D
:101C200001F014FB4FF4FB70ADF801000DF1010160
:101C300002200122234601F009FB40F6EC20ADF81A
:101C400001000DF101010DF10503022001228DF8C3
:101C5000057001F0FBFA04208DF805000DF1050177
:101C60000DF101030120042201F08AF8032000BFD6
:101C7000295C0138421C41EA0727F9D1D8F8000055
:101C80004761002002B0BDE8F081000010B582B0CD
:101C90008AB24AB140F040007F2A8DF8050007D88B
:101CA0008DF8061002200BE08DF80500012007E0FA
:101CB00041F080008DF80600C8098DF80700032068
:101CC0000DF101040DF105010422234601F058F83D
:101CD00000200321625C01394B1C42EA0020F9D14B
:101CE00002B010BD10B582B042F667000DF10204DB
:101CF000ADF805000DF1050102200322234601F095
:101D00003FF8A11C002200200346885C013AD41C45
:101D100040EA0320F8D140F070416FF35F50DA04DD
:101D200048BF41F07F6002B010BD000080B582B0B6
:101D30008C46034662B15121D0098DF805100CD0B4
:101D400042F080018DF8070003208DF8061007E0AF
:101D500011208DF80500012002E08DF806200220F8
:101D60000DF10501624601F00BF802B080BD0000E4
:101D700010B582B015200DF101048DF805000DF1AC
:101D8000050101200422234600F0FAFF0020032170
:101D9000625C01394B1C42EA0020F9D102B010BD4F
:101DA00010B582B017200DF101048DF805000DF17A
:101DB000050101200422234600F0E2FF0020032158
:101DC000625C01394B1C42EA0020F9D102B010BD1F
:101DD00010B582B0E0208DF8000040F2F6340DF12D
:101DE00001016B4602200122ADF8014001F02EFAFC
:101DF000F0208DF804000DF1050101AB0220012255
:101E0000ADF8054001F022FA02B010BDB0B584B0C3
:101E100004461A200DF102058DF806000DF10601A9
:101E2000012004222B4600F0ABFF0022032000BF5C
:101E300011462A5C0138431C42EA0122F8D108020B
:101E40000DF1090164F313000139042201F8010FB7
:101E5000013A4FEA1020F9D19A208DF80D000DF1CA
:101E60000D010DF109030120042201F0EFF904B086
:101E7000B0BD000080B582B0ADF8030048F2EE407E
:101E8000ADF8050030208DF807000DF105010DF1CA
:101E900003030320022201F0D9F902B080BD000043
:101EA000B0B582B004464FF45170ADF805000DF1A5
:101EB00005010DF103030220012200F061FF9DF8EE
:101EC0000350BCB18C208DF805000DF105010DF11A
:101ED000030301200222ADF8034001F0B7F940F2FC
:101EE0001C00C2F20000006845F01002416941F098
:101EF000805109E040F21C00C2F20000006805F0C9
:101F0000EF02416921F0805141614FF471708DF809
:101F10000320ADF805000DF105010DF103030220CA
:101F2000012201F093F902B0B0BD000080B582B08B
:101F3000ADF8030098208DF805000DF105010DF1B5
:101F400003030120022201F081F902B080BD0000EC
:101F500070B582B036200DF103048DF805000DF147
:101F60000501012002222346022500F009FF9DF809
:101F700003000DF1050100F0FC0001308DF80300B5
:101F8000B6208DF8050001200122234601F05EF9FC
:101F90004FF4FB70631CADF805000DF10501022044
:101FA000012201F053F940F2F6400024ADF805009B
:101FB0000DF105010DF1030302200222ADF80340EB
:101FC00001F044F9AC208DF805000DF105010DF18B
:101FD000030301200222ADF8034001F037F940F27B
:101FE000EC60ADF805000DF105010DF103030220D1
:101FF00001228DF8034001F029F94FF43B760DF1F1
:1020000005010DF10303022001228DF80340ADF814
:10201000056001F01BF90DF105010DF1030302202C
:1020200001228DF80350ADF8056001F00FF940F280
:10203000F6350DF105010DF10303022001228DF8A3
:102040000340ADF8055001F001F90120FFF792FAC5
:10205000F0208DF803000DF105010DF103030220BE
:102060000122ADF8055001F0F1F840F21C00C2F277
:1020700000000068847602B070BD000070B582B0C8
:10208000044680073DD40025E00751D045F0060006
:102090008DF803008D250DF105010DF103030120DD
:1020A00001228DF8055001F0D1F840F24F30ADF823
:1020B00005000DF105010DF103030220022200F0DD
:1020C0005FFE9DF803009DF80410002440EA012003
:1020D00010F4816F3CD040208DF803000DF1050114
:1020E0000DF10303012001228DF8055001F0AEF837
:1020F00040F21C00C2F20000006884764FF0FF340A
:1021000026E08D2080258DF805000DF105010DF1EB
:102110000303012001228DF80350012601F096F8F7
:1021200040F21C00C2F2000000688676E007ADD1E4
:1021300045F002008DF803008D208DF805000DF1AB
:1021400005010DF103030120012201F07FF80024B5
:10215000204602B070BD000080B582B00DF10103D1
:10216000A3F1010C042300BF0CF8012F013B4FEA3F
:102170001222F9D18AB24AB140F0C0007F2A8DF80C
:10218000050009D88DF8061002200DE040F080000F
:102190008DF80500012007E041F080008DF8060071
:1021A000C8098DF8070003200DF105010DF10103A9
:1021B000042201F04BF802B080BD00001346024437
:1021C000B2F5806F84BF4FF0FF30704780B582B0AA
:1021D0008C46A0F1020263B1C921D8098DF805101F
:1021E0000CD043F080018DF8070003208DF8061015
:1021F00007E089208DF80500012002E08DF8063007
:1022000002200DF10501634601F020F8002002B024
:1022100080BD000080B582B040F21C03C2F2000312
:102220001B6840EA8150DB6840EAC2300DF10101D1
:1022300018430139042200BF01F8010F013A4FEAA7
:102240001020F9D188208DF805000DF105010DF160
:1022500001030120042200F0F9FF02B080BD00005C
:10226000002040F2085CCCF240000022C5F2000CD5
:10227000032300BF20FA02F1C9071CBF0CEB820147
:10228000C1F8F8310132202AF4D1CCF80400002042
:10229000CCF80000CCF84402FFF74AF914A001F092
:1022A0009FFC00F0B9FD00F0FBFC0120FFF7C4FB30
:1022B00001301BD000F080FC40F21000C2F20000A0
:1022C000FFF7A4F944F24800FFF7D4FD43F6AC70E1
:1022D000FFF72CFE6420FFF799FD4FF6E850FFF75B
:1022E000DFFD00BF00F038FEFCE700BFFEE700BFE7
:1022F00053696E676C656420536964656420547724
:102300006F205761792052616E67696E6720496E50
:1023100069746961746F72204578616D706C6520B5
:102320000D00000080B54EF2001ECEF2000E00EB54
:102330000E03490100F00F024EF6145C03F54073E2
:10234000CEF2000C002848BF02EB0C03197000F01D
:102350001F010122400902FA01F10EEB8002C2F8CE
:1023600080114EF8201080BD2DE9F047477940F2EA
:10237000F42607EBC707C2F2000606EB8705AA465C
:102380001AF81C4F002C1CBF0820BDE8F0876B60BA
:102390000B7846F8272091F80C80012740F2007C4A
:1023A00007FA03F44FF6086E4FF60C63C5F2000C03
:1023B000B8F1010FCFF6FF7ECFF6FF738CBF4CF85C
:1023C0000E404CF803404E7891F800900124FF2E07
:1023D0004CF8294006D0B4404CF8034003234CF895
:1023E000263001E04FF0FF368F78FF2F1ABF04230D
:1023F0004CF827304FF0FF37CC78FF2C06D0012364
:10240000A3404CF80E3003234CF824300368AC771B
:10241000C3F80895C3F80C65C3F810758F68C3F846
:1024200024754F7B002F18BF0127B8F1030F07D089
:10243000B8F1020F06D0B8F1010F08BF023702E071
:10244000063700E00437C3F854754F79EF775AB177
:102450000422C3F804230122C3F8002590F90400E4
:102460000979FFF75FFF02E00120C3F800050020B3
:10247000012168778AF80010BDE8F08780B584B044
:10248000DDF818C000918DF80420694600220293FF
:102490008DF80CC000F02AF804B080BD10B5417969
:1024A00040F2F42C01EBC101C2F2000C5CF82130C7
:1024B0006BB190F90420012402F01F0E04FA0EFE05
:1024C0004EF280145209CEF2000444F822E0006873
:1024D000002B1CBF4FF0FF32C0F808230022C0F8C9
:1024E00000250CEB8100027710BD00002DE9F04FB4
:1024F00084B0437940F2F42603EBC303C2F2000632
:1025000006EB830C674617F81D5F1DB1112004B060
:10251000BDE8F08F56F823E012F0140F04D1BEF19D
:10252000000F1CBF01263E70D1E90065D1E90243CE
:10253000CCE90365CCE905439CF821309CF81E608A
:1025400003F0F803FF2E8CF8213006D0012340F26F
:102550000854B340C5F2000463602AB1002038700B
:10256000062004B0BDE8F08F006800236246042412
:1025700002F8203FC0F80843C0F80831D0F808310D
:102580000193019B0F79002F0CBF0CF11F060E6801
:102590003378022FC0F81C3502D30968013104E0FA
:1025A000097B022904D30CF11F010978C0F81C151E
:1025B000BEF1000F03D00421C0F804135BE00CF15E
:1025C00018010CF10C0E0CF114090CF121040CF1A2
:1025D00010050CF11F034FF0000A4FF0010B0093A0
:1025E00005E000BFDEF80030DB5DC0F81C35D0F838
:1025F0000831002BFBD0C0F808A1D0F808310293B5
:10260000029BD0F818358DF80F3013780E78B3424E
:1026100004D29DF80F60D9F80070FE541378267824
:10262000013376075BFA83F7137007D52E78B7422C
:1026300038BF2F700E78B74238BF0F702E78B74270
:10264000D0D391F80080474504D2009B1B78C0F896
:102650001C35CCE7DBB2B34228BF4345C7D39CF857
:102660001E00FF2807D0012101FA00F040F20851B6
:10267000C5F200010860002004B0BDE8F08F000042
:102680002DE9F04782B090F804A040F21838C2F269
:10269000000808EB4A15A94619F81B3F1BB1082092
:1026A00002B0BDE8F08791F81DE040F2007C85F8AB
:1026B0001CE00F6804467B1CC5F2000C0AD0012305
:1026C0004FF60866BB40CFF6FF764CF80630032382
:1026D0004CF827304F687B1C1CBF00234CF8273078
:1026E000BEF1000F14D023688E69C3F824654B7DBA
:1026F0000E7D27683343DBB2C7F86C352368D1E918
:102700000070012EC3F80C75C3F8140514D02EE028
:1027100020688B69C0F82435487D0B7D26681843F6
:10272000C0B2C6F86C052068D1E90076012BC0F86C
:102730001465C0F80C751AD18F68781C1CBF002076
:102740004CF82700CF68781C0AD001204FF60863A8
:10275000B840CFF6FF734CF8030003204CF8270075
:102760002068CB688F68C0F80835C0F810756A60BB
:102770000B694FEA4A10002A48F8003041D0097F1F
:10278000BEF1000F23D020680022C0F81021D0F83D
:102790001001019001982068C0F82021D0F8200194
:1027A000019001982068C0F82421D0F824010190FC
:1027B00001982068C0F84421D0F84401802201909B
:1027C00001982068C0F2020202F5247212E020682B
:1027D0000022C0F81C21D0F81C010190019820684B
:1027E000C0F84421D0F8440180220190019820686B
:1027F000C0F20202C0F80423206840F30730FFF75C
:1028000091FD207908EB4010007F002820680CBF64
:1028100004210821C0F80015002001212876E88253
:1028200089F80010A87602B0BDE8F0872DE9F041E4
:1028300081B0037940F21837C2F2000707EB431367
:102840001C7F01F06047B7F1005F18BF002C21D159
:10285000D3F804C0BCF1000F08D00768002C0CBFEF
:102860004FF401764FF40476C7F808639E461EF8CD
:10287000176FAEB11D7E7DB1BCF1000F4CD000686A
:10288000002C0CBF4FF401714FF40471C0F8041315
:102890001121C4E01021C2E016B11546196104E00F
:1028A00000258EF80020D9605D761D762CB3036874
:1028B0000024C3F81041D3F810310093009B036843
:1028C000C3F84441D3F844310093009B0368C3F834
:1028D0003415C3F838250EB30168D1F8002242F050
:1028E0002002C1F80022BCF1000F1DD000684FF497
:1028F0000471C0F80413002191E0984618F81A1FDB
:10290000314328D0BCF1000F3AD000684FF4017178
:10291000C0F80413002182E0112180E00168012247
:102920000A60BCF1000FE1D1026800BFD2F810319B
:10293000D2F84401D2F82411002B08BF50EA010359
:10294000F4D000228EF80020002918BF03210028AF
:1029500018BF0F2163E001680022C1F82421D1F8DB
:102960002411009100990168C1F80821D1F80811DB
:1029700001220091009901680A60BCF1000FC4D1E6
:1029800002684FF0000CC2F844C1D2F8442103F1B0
:102990000C040092009A193311E000BFD5F80871B9
:1029A0000097009FD5F81875256819786F54197825
:1029B000013119709EF800101D78A9421CD90568D4
:1029C000D5F82421D5F80871D5F84461002F08BF47
:1029D00056EA0207F4D0164318BF01260CD19EF820
:1029E0000070C5F808C1002FD8D1D5F8087100973C
:1029F000009FD5F81875DDE70F21002A4FF000037E
:102A000018BF03218EF800304EB998F80010006806
:102A100000294FF001010CBF416001600021084610
:102A200001B0BDE8F081000082B0017940F21832B7
:102A3000C2F2000202EB41110A7F0AB102B07047F4
:102A400011F81A2F002AF9D102680023C2F82431A4
:102A5000D2F824210092009A0268C2F80831D2F814
:102A600008210192019A0068012202600A7002B0F6
:102A700070470000F0B581B0037940F21835C2F21A
:102A8000000505EB4314257F01F06043B3F1005FBF
:102A900018BF002D06D1A4461CF8163F2BB14FF0ED
:102AA000110E86E04FF0100E83E04FF0000E23462B
:102AB0008CF8002023F814EF43F80C1C3DB3036896
:102AC000C3F820E1D3F820310093009B0368C3F8DA
:102AD00058E1D3F858310093009B0368C3F84415BC
:102AE000C3F84825016801228A606168002960D125
:102AF000006800BFD0F82011D0F858E151EA0E016B
:102B0000F8D0BEF1000F18BF4FF00F0E4EE0056871
:102B10000126C5F81CE1D5F81C510095009D0568FB
:102B2000AE600568C5F81CE1D5F81C610096009EF2
:102B30001E888E5D1F8801371F80C5F81C6564687C
:102B4000BCBB1F88974220D24FF0000E03E000BFAD
:102B50001C88944219D20468D4F81C511DB91D88F0
:102B6000B5F5807FF8D11D88B5F5807FF0D0C4F829
:102B70001CE1D4F81C510095009D1D884D5D1E88F8
:102B800001361E80C4F81C55E2E71988B1F5807F34
:102B900002D14FF00F0E09E0006800BFD0F81C1101
:102BA0000029FBD001214FF0000EC16000208CF8FD
:102BB0000000704601B0F0BD10B584B043F6D444B7
:102BC000C0F200042046FFF769FC31480023009062
:102BD0002FA0C268D0E901100392CDE901101120A5
:102BE00042F649728DF80300C0F2000269462046A1
:102BF000FFF7BAFB002818BFFEF7CCFB40F2040039
:102C0000C2F2000042F200414FF4FA620068C0F2E2
:102C1000F40100BF00BF00BF00BF00BF00BF00BF86
:102C200000BF88422FD000BF00BF00BF00BF00BF61
:102C300000BF00BF00BF00BF00BF00BF00BF00BF9C
:102C400000BF00BF00BF00BF00BF00BF00BF00BF8C
:102C500000BF00BF00BF00BF00BF00BF00BF00BF7C
:102C600000BF00BF00BF00BF00BF00BF00BF00BF6C
:102C700000BF00BF00BF00BF00BF00BF00BF00BF5C
:102C800000BF00BF00BF521EC3D104B010BD00BFC3
:102C9000101412FF06FF000000000080000000007A
:102CA00080B584B032480023009031A0C268D0E9DA
:102CB00001100392CDE9011011208DF8030043F6B5
:102CC000D44042F64972C0F20000C0F200026946E8
:102CD000FFF74AFB002818BFFEF75CFB40F2040038
:102CE000C2F2000042F200414FF4FA620068C0F202
:102CF000F40100BF00BF00BF00BF00BF00BF00BFA6
:102D000000BF88422FD000BF00BF00BF00BF00BF80
:102D100000BF00BF00BF00BF00BF00BF00BF00BFBB
:102D200000BF00BF00BF00BF00BF00BF00BF00BFAB
:102D300000BF00BF00BF00BF00BF00BF00BF00BF9B
:102D400000BF00BF00BF00BF00BF00BF00BF00BF8B
:102D500000BF00BF00BF00BF00BF00BF00BF00BF7B
:102D600000BF00BF00BF521EC3D104B080BD00BF72
:102D7000101412FF06FF00000000002000000000F9
:102D80002DE9F04F03AF83B085188346E81D20F08E
:102D9000070091460E46ADEB000447F8143CA546EB
:102DA000ADEB000AD54650462946FDF75EFA04EB26
:102DB0000B08002140465D4588BF4946FDF755FA9E
:102DC000204631465A46FDF737FA40464946FDF758
:102DD0004CFA40F29036C2F2000600203070EAB29F
:102DE00082B043F6D440C0F2000021465346009220
:102DF000FFF744FB02B000BF30780028FCD057F842
:102E0000140C0AEB0B014A46FDF716FAA7F10C0465
:102E10000020A546BDE8F08F40F26070C5F20000CA
:102E2000032101604FF6AC51CFF6FF714FF0807275
:102E300040F2040C4250C2F2000C42F200434FF444
:102E4000FA61DCF80020C0F2F40300BF00BF00BF4D
:102E500000BF00BF00BF00BF00BF9A422FD000BF1D
:102E600000BF00BF00BF00BF00BF00BF00BF00BF6A
:102E700000BF00BF00BF00BF00BF00BF00BF00BF5A
:102E800000BF00BF00BF00BF00BF00BF00BF00BF4A
:102E900000BF00BF00BF00BF00BF00BF00BF00BF3A
:102EA00000BF00BF00BF00BF00BF00BF00BF00BF2A
:102EB00000BF00BF00BF00BF00BF00BF00BF491E72
:102EC000C3D1002101604FF4FA61DCF8000000BFBB
:102ED00000BF00BF00BF00BF00BF00BF00BF9842DF
:102EE0002FD000BF00BF00BF00BF00BF00BF00BFAA
:102EF00000BF00BF00BF00BF00BF00BF00BF00BFDA
:102F000000BF00BF00BF00BF00BF00BF00BF00BFC9
:102F100000BF00BF00BF00BF00BF00BF00BF00BFB9
:102F200000BF00BF00BF00BF00BF00BF00BF00BFA9
:102F300000BF00BF00BF00BF00BF00BF00BF00BF99
:102F400000BF491EC3D1704740F29030C2F200006A
:102F500001210170704700002DE9F04140F29826F0
:102F6000C2F20006307840F23405C2F2000549F2A0
:102F70000004A8700F2000218022C2F22744FFF72E
:102F8000EBF80C2029460022FFF718F90C2000214D
:102F90000122FFF73FF90220FFF770F840F294306A
:102FA000C2F20000016801310160016858A000F020
:102FB00095F904F5804500BF0F200021FEF766FE5D
:102FC0002842F9D03178400401F1010131704FF00D
:102FD0000F004FF0000105D42246FFF7BDF8FEF7C1
:102FE000F7FE21E04FF480420024FFF7B5F81020EF
:102FF0000021FEF74BFE00F07F01142906D840F2B5
:103000007430C2F200000022FEF790FE40F27436E7
:10301000C2F2000640F22001C2F2000130460A224C
:10302000B470FDF72DF910B10120BDE8F08140F238
:103030008C30C2F2000001680131016001683AA0E1
:1030400000F04CF9FEF7ACFE8046FEF791FE054617
:10305000FEF748FEFDF73AFA9FED270B53EC102BD5
:10306000FDF7C2F906F109020023002712F8014F0B
:103070009C400833202B2744F8D106F10D02002391
:10308000002600BF12F8014F9C400833202B264435
:10309000F8D1FDF73FFAF11B00EE100AA5EB08008E
:1030A00002EE101AB7EE003A01EE100AB8EEC22A8C
:1030B00033EE400AB8EEC11A22EE000A30EE410AA1
:1030C000B6EE001A20EE010A10EE100AFDF70FFA14
:1030D0009FED0B0B53EC102BFDF786F99FED0A0BC0
:1030E00053EC102BFDF780F9024614A00B4600F0BC
:1030F000F5F80120BDE8F081143BB1133BB103BEEC
:10310000FA48CE3B1835B13D0000001319DDB1C1BE
:103110005472616E736D697373696F6E2023203A08
:103120002025640D0A000000526563657074696FA4
:103130006E2023203A2025640D0A00004469737430
:10314000616E6365203A2025660D0A0010B582B0D5
:10315000017899B1022928D0012924D1406840F290
:1031600050340178C2F200042046FEF751F90028DD
:1031700041D001218DF80010019043E040F264300D
:1031800040F29131C2F20000C2F20001FEF712F9E2
:1031900020B340F24C31C2F20001032009688DF8DF
:1031A00000006846884702B010BDC06802218DF853
:1031B0000010019040F2080040F28831C2F2000095
:1031C000C2F200010122FFF731FB40F24C30C2F2A3
:1031D000000001686846884702B010BD40F2080050
:1031E00040F29131C2F20000C2F200010122FFF769
:1031F00041FC02B010BDA068E168814209D0002006
:103200008DF8000040F24C30C2F2000001686846C0
:103210008847A068E168A288081A904207D940F25E
:103220006030C2F200000121017002B010BD40F216
:10323000080040F28831C2F20000C2F2000101220F
:10324000FFF7F4FA02B010BD704700002DE9F04F0F
:1032500003AF83B085180646E81D20F00700ADEBEC
:10326000000447F8143C92468B46A546ADEB000996
:10327000CD4648462946FCF7F8FF04EB0608002136
:103280004046B54288BF5146FCF7EFFF20465946FD
:103290003246FCF7D1FF57F8141C40465246FCF763
:1032A000CBFF40F29036C2F2000600203070EAB246
:1032B00082B043F6D440C0F2000021464B46009253
:1032C000FFF7DCF802B000BF30780028FCD0A7F18F
:1032D0000C040020A546BDE8F08F00000FB4054B9C
:1032E00010B503A9044A029800F0DAF810BC5DF8A2
:1032F00014FB0000CF3B00000000002002E008C8E3
:10330000121F08C1002AFAD170477047002001E05F
:1033100001C1121F002AFBD1704700002DE9FF5F99
:1033200082B00021DDE90430020DDDF840B0034336
:1033300018D044F61050A2F2FF32424315141198EF
:1033400001281FD0A5EB0B00401C5FEA000A4FF0DC
:1033500000064E4FDFF83891B046504615D5CAF1F9
:10336000000413E0119801244AA3012801D16FEA57
:103370000B010298119AC0E90031C0E9024206B07F
:10338000BDE8F09FCBF10000DFE704460021404A92
:10339000491842EB0450CDE9001012E0E00707D0D5
:1033A00032463B4640464946FDF71EF88046894670
:1033B00032463B4610461946FDF716F806460F46BC
:1033C0006410002CEAD1DDE90401DDE90023BAF143
:1033D000000F06DAFDF708F842464B46FDF704F801
:1033E00005E0FDF7BFF942464B46FDF7BBF9044641
:1033F0000E460022284BFDF73DFA03D84FF0FF3070
:10340000014607E00022254B20463146FCF745FFE8
:10341000FDF717FA102409E0002C0ADB0A2200232A
:10342000FDF7AAF8039B30321A55641E50EA0102D8
:10343000F2D1641C039AC4F111031444119A012AB5
:1034400003D0012208430DD10AE0084304D0002034
:103450004FF0110B119072E7A3EB0B056D1E0DE001
:103460005B4504DD4FF0000205F1010504E003DADD
:103470004FF00002A5F10105002AECD00298119945
:10348000C0E90231C0E9004579E7000000001440BE
:103490000000F03F300000000000F0430000E03F7B
:1034A0002DE9FF4F95B09B468946064600250FE261
:1034B000252877D100242746F84A0121059400E009
:1034C000044316F8013F203B01FA03F01042F7D104
:1034D00030782A2811D06FF02F033078A0F1300215
:1034E000092A16D8059A44F0020402EB820203EB83
:1034F00042021044761C0590EFE759F8042B059220
:10350000002A03DA504244F40054059044F00204C7
:10351000761C30782E2816D116F8010F44F00404DA
:103520002A280DD06FF02F023078A0F13003092B3C
:1035300009D807EB870302EB4303C718761CF3E7B0
:1035400059F8047B761C30786C280FD006DC4C28A8
:1035500017D068280DD06A2814D104E0742810D040
:103560007A280FD10DE044F400140AE044F48014EA
:1035700001E044F440147278824202D104F58014D0
:10358000761C761C307866280BD013DC582877D050
:1035900009DC002875D04528F6D04628F4D0472805
:1035A0001AD19DE118E0632835D0642879D06528C8
:1035B00012D195E1702873D008DC6728F1D0692812
:1035C0006FD06E280DD06F2806D1B5E073282CD0AF
:1035D000752875D0782874D05A46179990476D1C75
:1035E00075E1C4F30250022809D003280DD0D9F8A0
:1035F000001004280DD00D6009F1040967E1D9F825
:103600000010EA17C1E90052F6E7D9F800100D8062
:10361000F2E70D70F0E719F8041B8DF80010002098
:103620008DF80100EA46012003E059F804AB4FF0A1
:10363000FF3061074FF0000102D40DE008F10101F5
:103640008846B9420FDA8045F8DB1AF808100029DD
:10365000F4D108E008F1010188468142FADB1AF84A
:1036600008100029F6D105985B46A0EB0807214613
:103670003846179A00F094FA284400EB080507E052
:103680004DE029E10DE01AF8010B5A4617999047D1
:10369000B8F10108F7D25B4621463846179A13E184
:1036A00042E00A220092C4F302524FF0000A022ABA
:1036B00008D059F804CB032A4FEAEC710AD00DE088
:1036C00029E02AE009F1070121F00702F2E802C12E
:1036D000914609E00FFA8CFC4FEAEC71042A03D101
:1036E0004FFA8CFC4FEAEC71002907DA0A460021F8
:1036F000DCF1000C61EB02012D2202E0220504D571
:103700002B228DF80420012203E0E20701D02022C1
:10371000F7E7904659E00A2102E010220DE010215F
:103720004FF0000A00910BE010224FF0000A44F025
:1037300004040827009203E008224FF0000A0092D8
:10374000C4F30252022A05D059F804CB0021032AFF
:1037500008D009E009F1070121F00702F2E802C1EF
:10376000914605E01FFA8CFC042A01D10CF0FF0CF5
:103770004FF00008220728D5702806D0009B83F060
:10378000100353EA0A0305D00EE040228DF804200E
:10379000012208E05CEA010206D030228DF8042004
:1037A0008DF8050002229046009B83F0080353EA3F
:1037B0000A030AD15CEA010201D1620705D5302271
:1037C0008DF804204FF001087F1E582804D034A043
:1037D00003900EA802900DE036A0F9E7534660462C
:1037E000009AFCF7C9FE84460398825C0298401E4A
:1037F000029002705CEA0100F0D1029806A9081A52
:1038000000F1200A600702D524F4803400E001278B
:10381000574502DDA7EB0A0000E0002000EB0A019B
:10382000009005984144401A0590E00306D45B4699
:103830002146179A059800F0B3F90544002706E0E1
:1038400001A85A46C05D179990476D1C7F1C4745DB
:10385000F6DBE0030CD55B462146179A059800F08D
:103860009FF9054404E030205A46179990476D1C93
:103870000099481E00900029F5DC08E002980299A2
:103880005A460078491C0291179990476D1CBAF16D
:103890000001AAF1010AF1DC65E10000092801003C
:1038A00030313233343536373839616263646566B6
:1038B0000000000030313233343536373839414278
:1038C000434445460000000000F058F90544761CCA
:1038D000307800287FF4ECAD19B02846BDE8F08FB1
:1038E000620700D4062709F1070222F0070CFCE862
:1038F0000223E14603F000485FEA080C02D00FF211
:10390000702C0DE05FEA045C02D50FF2682C07E032
:103910005FEAC47C02D00FF2602C01E0AFF2700CC1
:103920004FF0FF3823F00043CDF850C065280CD08D
:1039300006DC452809D046281DD047283DD13DE06A
:10394000662818D067287ED138E00021112F01DBCE
:10395000112000E0781CCDE9000106A90EA8FFF7B0
:10396000DDFCDDE90F010E9A03910021009207F1C1
:10397000010A04914DE04FF000400097CDE901109D
:1039800006A90EA8FFF7CAFCDDE90F0203920E9B01
:1039900011990022DDF80CA00093049211B9791C52
:1039A00000EB010AB7EB0A0004D4C0F1FF3007F1C5
:1039B000010A0490AAEB0700019044E0012F00DA0D
:1039C00001270021112F01DD112000E03846CDE94B
:1039D000000106A90EA8FFF7A1FCDDE90F010E9A70
:1039E0000391002104910092BA4621070CD4039957
:1039F000514500DA8A46BAF1010F05DD009AAAF1B5
:103A00000101515C302908D0B84202DA10F1040FEC
:103A100006DA0121CDE9011015E0AAF10101E9E77B
:103A2000002805DC049901440491AAEB000102E09E
:103A3000411C514500DD8A460499401A401C019002
:103A40004FF000400290200704D40198504501DB5C
:103A5000CDF8048000208DF84F0002980DF14F073B
:103A6000B0F1004F25D02B200E9002984FF00208A5
:103A700000280CDA404202902D200E9007E00A2127
:103A80000298FCF763FD3031029007F8011DB8F190
:103A90000001A8F10108F2DC02980028EFD1791E9C
:103AA0000E980870307800F0200040F0450007F8CC
:103AB000020D12A8C01B00F107081498007800B18D
:103AC000012000EB0A01019801EBE07105984144E7
:103AD000401A401E0590E00306D45B462146179A23
:103AE000059800F05DF805441498007818B15A461E
:103AF000179990476D1CE00324D55B462146179A21
:103B0000059800F04DF805441CE00498002807DBF8
:103B1000DDE90301884203DD0098405C179901E06C
:103B2000179930205A469047049805F10105401C2A
:103B300004900198401E019004D12E205A461799F6
:103B400090476D1CBAF10001AAF1010ADDDC05E025
:103B500017F8010B5A46179990476D1CB8F10001F0
:103B6000A8F10108F4DC5B462146179A0598ABE6FC
:103B70002D0000002B000000200000002DE9F04186
:103B8000044600251E461746880404D405E039463D
:103B90002020B0476D1C641EF9D52846BDE8F08191
:103BA0002DE9F041044600251E469046C80301D584
:103BB000302700E02027880404D505E04146384638
:103BC000B0476D1C641EF9D52846BDE8F08138B5B4
:103BD00004468DF8000069460320ABBE204638BD80
:103BE00010B5044601E0FFF7F2FF14F8010B044999
:103BF0000028F8D1BDE810400A20FFF7E8BF000018
:103C00000000002007A9022570889B88000001029F
:103C1000030400050B00000005000000FFFFFFFF8C
:103C2000FFFFFFFF000000000000D601FFFFFFFFC5
:103C3000FFFFFFFFFFFFFFFFFFFFFFFF0000000090
:103C4000000000000000D601070100002D001A311D
:103C500052001A339A001A351D011A376B003B3196
:103C6000BE003B335E013B3596023B3787008D003B
:103C70004010080007040009080540080910400822
:103C8000080540081D0400081D0400081E265626CD
:103C9000BEBE000098599859EA518E421E45142E16
:103CA0000080EA51F4283233E03A703DE03AC23500
:103CB000842BC2353233C235C235AE47E03A503874
:103CC000A2305038D8BC0A001600010006000100DE
:103CD000020000000040004004000000405C0000C2
:103CE000A05C0400C06C0800805C0400E03F1E0083
:103CF000E07D1E00183D0000000000204000000094
:103D0000FC320000583D0000400000205823000015
:103D10000C33000000000000000000000090D00301
:103D20000020004000000000050214000A0A000202
:103D30000000810060020020418800CADE5645571D
:103D400041E100000000000000000000418800CABE
:083D5000DE57415645E000007A
:0400000500000201F4
:00000001FF
