:020000040000FA
:10000000684C0020C1030000C9030000CB030000BE
:10001000CD030000CF030000D1030000000000006A
:10002000000000000000000000000000910200003D
:10003000D50300000000000049030000AD030000EC
:10004000390B0000DB030000C50D0000DB030000DE
:10005000910B0000DB0300008D090000DB030000B2
:10006000DB030000DB030000DB030000DB03000018
:10007000DB030000DB030000DB030000DB03000008
:10008000DB030000DB030000DB030000DB030000F8
:10009000DB030000DB030000DB030000DB030000E8
:1000A000DB030000DB030000DB030000DB030000D8
:1000B000DB030000DB030000000000000000000084
:1000C000DB030000DB030000DB030000DB030000B8
:1000D000DB030000DB030000DB0300000000000086
:1000E0000000000000000000000000000000000010
:1000F0000000000000000000000000000000000000
:1001000000000000000000000000000000000000EF
:1001100000000000000000000000000000000000DF
:1001200000000000000000000000000000000000CF
:1001300000000000000000000000000000000000BF
:1001400000000000000000000000000000000000AF
:10015000000000000000000000000000000000009F
:10016000000000000000000000000000000000008F
:10017000000000000000000000000000000000007F
:10018000000000000000000000000000000000006F
:10019000000000000000000000000000000000005F
:1001A000000000000000000000000000000000004F
:1001B000000000000000000000000000000000003F
:1001C000000000000000000000000000000000002F
:1001D000000000000000000000000000000000001F
:1001E000000000000000000000000000000000000F
:1001F00000000000000000000000000000000000FF
:10020000DFF820D000F0AEFBAFF3008002F0C4F9BD
:100210000021034802F014FA02F0D0F9FEE70000D2
:1002200018000020684C002080F309887047EFF325
:1002300009807047684680F3098804480078C00741
:1002400014BF0220032080F314887047783A00001E
:10025000DFF818C0EFF305831B0618BF6047EFF304
:100260001483DB0708BF604700DF704707270000E3
:10027000DFF818C0EFF305831B0618BF6047EFF3E4
:100280001483DB0708BF604700DF7047ED280000DC
:10029000EFF30980816911F8021CE1BB90E80F10AF
:1002A00010B5E047BDE81040EFF3098C8CE807007B
:1002B000214B93E80600914208BF704741B91EF0F8
:1002C000100F16D11D49086820F00100086010E0E9
:1002D0001EF0100F06BF2CED108A0120002081F8BF
:1002E00025002CE9F00FC1F828C00CB402F000FE84
:1002F0000CBC1A60D2F828C0BCE8F00F92F82500B8
:1003000000280EBF6FF0020E6FF0120EBCEC108AC8
:100310008CF30988704710B5094A1268914209D8D0
:10032000084C54F8214090E80F10A047EFF3098CD7
:100330008CE80F0010BD00003C00002034EF00E00E
:10034000880900008809000010B502F095FCBDE89E
:100350001040154B93E80600914208BF7047EFF339
:10036000098C1EF0100F06BF2CED108A0120002012
:1003700081F825002CE9F00FC1F828C00CB402F078
:10038000B7FD0CBC1A60D2F828C0BCE8F00F92F898
:10039000250000280EBF6FF0020E6FF0120EBCECAD
:1003A000108A8CF3098870473C00002010B502F0D9
:1003B00067FECCE710B502F0A5F902F061FEC6E7D2
:1003C0000648804706480047FEE7FEE7FEE7FEE7EF
:1003D000FEE7FEE7FEE7FEE7FEE7FEE7B10B000003
:1003E000010200002DE9F05F0546002092469B4681
:1003F00088460646814640241BE02846414647463B
:10040000224600F020F853465A46C01A914110D3B4
:1004100011461846224600F087F92D1A67EB0108AD
:100420004F4622460120002100F07EF917EB00091B
:100430004E41201EA4F10104DFDC484631462A4625
:100440004346BDE8F09F202A04DB203A21FA02F05F
:100450000021704721FA02F3D040C2F120029140FE
:1004600008431946704740EA01039B0703D009E09F
:1004700008C9121F08C0042AFAD203E011F8013B90
:1004800000F8013B521EF9D27047D2B201E000F8E9
:10049000012B491EFBD270470022F6E710B5134628
:1004A0000A4604461946FFF7F0FF204610BD10B576
:1004B000002200E0521C835C8C5CA34201D1002B23
:1004C000F8D1D8B2E1B2401A10BD2DE9FE4F8046F6
:1004D00081EA0300C00F0C46009021F0004123F098
:1004E0000045B8EB0200A94105D24046214690469E
:1004F0001C460B46024623F00040104347D0270D10
:10050000C7F30A00C3F30A510290401A0190402831
:100510006BDAC3F3130040F4801B0098924620B1BD
:100520000023D2EB030A63EB0B0B01985946C0F191
:100530004002504600F0F8F806460D46504659462F
:10054000019A00F000F910EB08006141002487EAED
:10055000115284EAE7731A4340D0009A62B3019AB9
:10056000012A4FEA075215DC001B61EB02014FF034
:10057000004202EA0752CDE90042001C41F5801119
:1005800032462B4600F000F903B0BDE8F08F40463C
:100590002146F9E7001B61EB0201001C41F58013C5
:1005A00000185B412018A2F5001747EB030140EA51
:1005B000D570B6196D4111E06D084FEA360645EA6F
:1005C000C0754FEA0752001B61EB0201001C41F5A8
:1005D000801149084FEA30000019514132462B463C
:1005E00003B0BDE8F04F00F0C0B800980122400011
:1005F0000023D0EB020263EBE073009821464FEA40
:10060000E074B8EB000061EB0401E9E783F000431C
:100610005BE781F0004158E72DE9FE4F81EA0304D2
:1006200004F0004421F0004100944FF0000B23F04F
:10063000004350EA01045ED052EA03045BD0C3F3E6
:100640000A54C1F30A552C44A4F2F3340194A0FBDC
:100650000254C1F3130141F48011C3F3130343F4B3
:10066000801301FB024400FB034E840A970A44EA0C
:10067000815447EA8357A4FB076802958D0A05FB5E
:1006800007854FEA932C04FB0C542705029D4FEA83
:10069000065847EA1637B5EB08056EEB070C870ED0
:1006A000920E47EA811742EA8312A7FB0201B6EBDA
:1006B0000B0164EB00042B0D43EA0C335E1844EB92
:1006C0001C50DA465146E7FB0201C5F313044FEA1A
:1006D0000B3343EA14534FEA0432019C43EA060306
:1006E000A4F10C040294009CCDE900B400F04CF895
:1006F00003B0BDE8F08F00200146F9E730B50B46A6
:10070000014600202022012409E021FA02F59D4241
:1007100005D303FA02F5491B04FA02F52844151E15
:10072000A2F10102F1DC30BD202A04DB203A00FAFC
:1007300002F1002070479140C2F1200320FA03F338
:10074000194390407047202A06DBCB17203A41FA24
:1007500002F043EAE07306E041FA02F3D040C2F14E
:100760002002914008431946704710B5141E73F1DA
:10077000000408DA401C41F1000192185B411A4361
:1007800001D120F0010010BD2DE9F04D92469B46AD
:1007900011B1B1FA81F202E0B0FA80F22032904653
:1007A000FFF7C2FF04460F4640EA0A0041EA0B0188
:1007B00053465A46084313D0114653EA010019D054
:1007C000C8F140025046FFF73EFE05460E46504631
:1007D00059464246FFF7A8FF084305D0012004E030
:1007E00020463946BDE8F08D0020054346EAE07614
:1007F0002C4337430A986305E40AA0EB0800002263
:10080000FD0A44EA47540A3002D500200146E9E7D0
:10081000010510196941DDE9084500196941BDE884
:10082000F04DA2E72DE9F04D81EA030404F0004BFE
:1008300021F0004514464FF0000A23F0004150EA31
:10084000050220D054EA01021DD0C5F30A57024622
:10085000C5F31303C1F31300C1F30A5640F4801526
:1008600043F48013A7EB0608101BD64608F2FD38A8
:1008700073EB050002D308F1010801E092185B4117
:10088000B8F1000F03DA00200146BDE8F08D00202A
:100890004FF48011064684460EE0171B73EB0507E4
:1008A00005D3121B63EB050306434CEA010C490810
:1008B0004FEA300092185B4150EA0107EDD152EA4D
:1008C000030012D082EA040083EA0501084305D040
:1008D000101BAB4106D20122002306E000224FF09C
:1008E000004302E06FF0010253101AEB06004CEBDC
:1008F000085110EB0A0041EB0B01BDE8F04DFFF78A
:1009000034BFC1F30A52C1F3130140F2FF3341F483
:1009100080119A4202DA00200146704740F23343C8
:100920009A42A2F2334202DC5242FFF78CBDFFF73B
:10093000FBBE000030B5041E71F1000404DB4FF073
:100940000044404264EB0101141E73F1000405DB16
:100950001C464FF00043524263EB0403994208BF28
:10096000904230BD064C074D06E0E06840F00103C0
:1009700094E8070098471034AC42F6D3FFF744FCE4
:10098000B83A0000D83A0000000000002DE9FF5FEF
:100990000025A846CDF80C804FF48079012400266C
:1009A000634F484601F0C6FD38B1D7F80403204034
:1009B00018B1484601F0B4FD2543640009F104096B
:1009C0001FFA89F9761C082EEBD34FF4BE7420462B
:1009D00001F0B0FD48B1204601F0A2FD45F0004510
:1009E00003AA0121002001F089FDDFF8489115F0EC
:1009F000FF0F15D0012600242E420DD007EB8401F5
:100A0000D1F81005C0F30420D1F81015C1F301414D
:100A100059F8242002B190477600641C082CEBD3CF
:100A2000002D73DACDF808800020411E0DF1040876
:100A300048F82010401C0028FAD00024002509EBBB
:100A4000050010F8506F26F0C00B90F90000401C14
:100A50003FD001A9584601F0DBFAD0B3B609584699
:100A600000F0CEFF59F820700FB9032E31D1032EBC
:100A70000CD102A84FEADB010BF00702435C4FF0F8
:100A8000010C0CFA02FC43EA0C0343544FF0A04063
:100A900000EB8B00D0F80007C0F3014A03A95846C9
:100AA00001F0B6FA10B1BAF1020F03D088B9BAF169
:100AB000030F0ED1032E08D1BAF1020F1ED002216E
:100AC000584601F004FD641CE4B217B131465846A3
:100AD000B8476D1C042DB2D334B301256A460121F9
:100AE000002001F00BFD002003A96A4651F82060A8
:100AF00052F82030B34203D0002504E00321DFE7A1
:100B0000401C0028F2D015B100240DE00EE00020BA
:100B100002AB52F8205041F8205053F8205048F8CA
:100B20002050401C0028F4D0002C86D1BDE8FF9F47
:100B300000600040640000202DE9F0414FF4807710
:100B4000384601F06DFA0124104EA50748B1384629
:100B500001F06DFA0120C5F808037470002000F060
:100B600057FF4FF48277384601F05AFA00280BD02D
:100B7000384601F05CFA0220C5F80803B470BDE8FD
:100B8000F041012000F044BFBDE8F08100010020E9
:100B900002494FF0402001F009B90000BC000020DC
:100BA00002490148086070470090D00330000020DF
:100BB00070B500F08FFF4FF0805528B1B5F82403D1
:100BC0007249C0F30420086000F0C0FF10B1714901
:100BD0006F48486700F0D0FF28B1D5F844026E494D
:100BE000C0F34230086000F0E5FF20B16B480168B7
:100BF00021F08071016000F0F3FF002428B1684803
:100C0000046044606448001F046001F007F818B1F4
:100C1000614903206431086001F016F8012658B1DB
:100C20006049052008605F48783006605D480830FC
:100C30000460091D3F20086001F01CF8F0B35A4819
:100C400000685A4908605848001D0068091D08607E
:100C5000554808300068091D086053480C3000688A
:100C6000091D0860504810300068091D08604E4892
:100C700014300068091D08604B48183000684B4963
:100C80002031086048481C300068091D086046484B
:100C900020300068091D0860434824300068091DA1
:100CA0000860414828300068091D08603E482C3023
:100CB0000068091D08603C48303000E017E000681B
:100CC0003A4940310860384834300068091D0860EE
:100CD000354838300068091D086033483C300068EA
:100CE000091D0860304840300068091D086000F0A8
:100CF000D3FE28B1D5F858022D4900F04F00086006
:100D000000F006FF30B12B480168C90702D06FF030
:100D10000101016021487438016841F470010160EB
:100D2000BFF34F8FBFF36F8F4FF01022D2F8000246
:100D3000002803DBD2F80402002822DA1E4B1E60D2
:100D40001E4801680029FCD01525C2F80052016830
:100D50000029FCD0C2F8045201680029FCD01C60B4
:100D600001680029FCD0BFF34F8F0C48F0380168B0
:100D7000134A01F4E06111430160BFF34F8F00BFDC
:100D8000FDE7BDE87040FFF70BBF000040350140B4
:100D90000DF0ADBA00C007403C050040FCED00E09E
:100DA0000C010040105600400404001020C5004013
:100DB000E40E00400004004004E5014000E401406E
:100DC0000400FA050548017F0548002902D00349BF
:100DD00002F09DBD014902F007BD0000E0000020C7
:100DE000002000400FB4054B10B503A9044A029837
:100DF00000F0FEF810BC5DF814FB0000E91C0000D8
:100E00001000002002E008C8121F08C1002AFAD111
:100E100070477047002001E001C1121F002AFBD17A
:100E2000704700002DE9FF5F82B00021DDE904304A
:100E3000020DDDF840B0034318D044F61050A2F282
:100E4000FF3242431514119801281FD0A5EB0B0067
:100E5000401C5FEA000A4FF000064E4FDFF8389161
:100E6000B046504615D5CAF1000413E0119801248C
:100E70004AA3012801D16FEA0B010298119AC0E937
:100E80000031C0E9024206B0BDE8F09FCBF100009E
:100E9000DFE704460021404A491842EB0450CDE9FF
:100EA000001012E0E00707D032463B464046494674
:100EB000FFF7B2FB8046894632463B46104619464C
:100EC000FFF7AAFB06460F466410002CEAD1DDE9C5
:100ED0000401DDE90023BAF1000F06DAFFF79CFBFD
:100EE00042464B46FFF798FB05E0FFF79BFC424666
:100EF0004B46FFF797FC04460E460022284BFFF7AF
:100F000019FD03D84FF0FF30014607E00022254BC2
:100F100020463146FFF7D9FAFFF7F3FC102409E029
:100F2000002C0ADB0A220023FFF75CFA039B303215
:100F30001A55641E50EA0102F2D1641C039AC4F1EE
:100F400011031444119A012A03D0012208430DD140
:100F50000AE0084304D000204FF0110B119072E713
:100F6000A3EB0B056D1E0DE05B4504DD4FF00002A9
:100F700005F1010504E003DA4FF00002A5F10105D7
:100F8000002AECD002981199C0E90231C0E900456D
:100F900079E70000000014400000F03F300000003E
:100FA0000000F0430000E03F10B5002A06DA22F00E
:100FB0000042D21D22F00703102203E0D21C22F0CF
:100FC00003030C2213B19C188C4201D9012010BDDF
:100FD000024401448360C0E90021C91AD018884244
:100FE00002D810600246F9E70020106010BD000032
:100FF0002DE9FF4F95B09A46884606460025EEE15A
:10100000252877D100242746F94A0121039400E0DE
:10101000044316F8013F203B01FA03F01042F7D1D8
:1010200030782A2811D06FF02F033078A0F13002E9
:10103000092A16D8039A44F0020402EB820203EB59
:1010400042021044761C0390EFE758F8042B0392F9
:10105000002A03DA504244F40054039044F002049E
:10106000761C30782E2816D116F8010F44F00404AF
:101070002A280DD06FF02F023078A0F13003092B11
:1010800009D807EB870302EB4303C718761CF3E785
:1010900058F8047B761C30786C280FD006DC4C287E
:1010A00017D068280DD06A2814D104E0742810D015
:1010B0007A280FD10DE044F400140AE044F48014BF
:1010C00001E044F440147278824202D104F58014A5
:1010D000761C761C307866280BD013DC582877D025
:1010E00009DC002875D04528F6D04628F4D04728DA
:1010F0001AD193E118E0632835D0642879D06528A7
:1011000012D18BE1702873D008DC6728F1D06928F0
:101110006FD06E280DD06F2806D1ACE073282CD08C
:10112000752874D0782853D05246179990476D1C73
:1011300054E1C4F30250022809D003280DD0D8F896
:10114000001004280DD00D6008F1040846E1D8F81D
:101150000010EA17C1E90052F6E7D8F800100D8038
:10116000F2E70D70F0E718F8041B8DF8001000206E
:101170008DF80100EB46012003E058F804BB4FF066
:10118000FF3061074FF0000102D40DE009F10101C9
:101190008946B9420FDA8145F8DB1BF809100029AE
:1011A000F4D108E009F1010189468142FADB1BF81C
:1011B00009100029F6D103985346A0EB09072146F0
:1011C0003846179A00F080FA284400EB090507E03A
:1011D00044E008E10DE01BF8010B524617999047D7
:1011E000B9F10109F7D2534621463846179AF2E081
:1011F00039E00A21C4F302524FF0000B0091022A99
:1012000006D058F8040BC117032A09D00AE023E0DE
:1012100008F1070020F00702F2E80201904605E01D
:1012200000B2C117042A01D140B2C117002906DA61
:101230000A460021404261EB02012D2202E0220514
:1012400004D52B228DF80420012203E0E20701D00F
:101250002022F7E7914657E00A2100E010214FF0E5
:10126000000B00910BE010214FF0000B44F0040440
:101270000827009103E008204FF0000B0090C4F312
:101280000252022A05D058F8040B0021032A08D084
:1012900008E008F1070020F00702F2E8020190469A
:1012A00003E080B2042A00D1C0B24FF00009220747
:1012B0002AD53278702A07D0DDF800C08CF0100CE7
:1012C0005CEA0B0C05D00EE040228DF804200122D0
:1012D00008E050EA010306D030238DF804308DF881
:1012E000052002229146009B83F0080353EA0B037A
:1012F0000AD150EA010201D1620705D530228DF8EA
:1013000004204FF001097F1E3278582A04D039A2F8
:101310000C920CAA02920BE03BA2F9E75B46009A02
:10132000FFF760F80C9B9B5C029A521E02921370AE
:1013300050EA0102F2D1029804A9081A00F1200B28
:10134000600702D524F4803400E001275F4502DD08
:10135000A7EB0B0000E0002000EB0B0100900398CE
:101360004944401A0390E00306D453462146179A95
:10137000039800F0A9F90544002706E001A85246A9
:10138000C05D179990476D1C7F1C4F45F6DBE0034D
:101390000CD553462146179A039800F095F9054459
:1013A00004E030205246179990476D1C0099481E62
:1013B00000900029F5DC08E0029802995246007876
:1013C000491C0291179990476D1CBBF10001ABF1CC
:1013D000010BF1DC5BE100F065F90544761C307827
:1013E00000287FF40DAE19B02846BDE8F08F00004C
:1013F00009280100303132333435363738396162EB
:1014000063646566000000003031323334353637AE
:10141000383941424344454600000000600700D48B
:10142000062708F1070020F00700F0E802238046B5
:1014300003F0004C5FEA0C0001D097A009E0200502
:1014400001D596A005E0E00701D095A001E0AFF23C
:101450004C001390307823F0004365280CD006DC54
:10146000452809D046281DD047287FD13BE0662873
:1014700018D067287AD136E00021112F01DB112026
:1014800000E0781CCDE9000104A90CA8FFF7CAFC14
:10149000DDE90D010C9A4FF0000B07F101091092E4
:1014A00000914EE04FF000400097CDE9011004A9F3
:1014B0000CA8FFF7B7FCDDE90D020C9B0F994FF06C
:1014C000000B91461093009211B9791C00EB0109B1
:1014D000B7EB090003D4C0F1FF3B07F10109A9EB09
:1014E0000700019042E0012F00DA01270021112FAF
:1014F00001DD112000E03846CDE9000104A90CA867
:10150000FFF790FCDDE90D010C9A00914FF0000B04
:10151000B946109221070FD4009A4A4503DA914642
:1015200001E0A9F10109B9F1010F05DD109AA9F156
:101530000101515C3029F4D0B84202DA10F1040FF5
:1015400003DA0121CDE9011010E0002803DC834417
:10155000A9EB000102E0411C494500DD8946A0EBF2
:101560000B00401C01904FF000400290200705D472
:101570000198484502DB4FF0FF30019000208DF8C4
:101580004B0002980DF14B07B0F1004F25D002201F
:101590000C902B200D90029800280CDA404202900B
:1015A0002D200D9007E00A210298FFF7A7F83031AF
:1015B000029007F8011D0C99481E0C900029F2DCDE
:1015C00002980028EFD1791E0D980870307800F04D
:1015D000200040F0450007F8020D11A8C01BC01DF7
:1015E00002901398007800B1012000EB09010198E6
:1015F00001EBE071029801440398401A401E0390E9
:10160000E00306D453462146179A039800F05CF88D
:1016100005441398007818B15246179990476D1CED
:10162000E00323D553462146179A039800F04CF85F
:1016300005441BE0BBF1000F07DB0098584504DDB3
:101640001098179910F80B0001E0179930205246B6
:10165000904701980BF1010B401E05F10105019027
:1016600004D12E205246179990476D1CB9F1000104
:10167000A9F10109DEDC05E017F8010B52461799C4
:1016800090476D1C0299481E02900029F4DC5346D5
:101690002146179A03989EE62D0000002B000000BB
:1016A000200000002DE9F041044600251E461746A3
:1016B000880404D405E039462020B0476D1C641E20
:1016C000F9D52846BDE8F0812DE9F0410446002512
:1016D0001E469046C80301D5302700E02027880425
:1016E00004D505E041463846B0476D1C641EF9D567
:1016F0002846BDE8F081000009480068C00700D016
:1017000000BEBFF34F8F0648E4380168054A01F474
:10171000E06111430160BFF34F8F00BFFDE70000A0
:10172000F0ED00E00400FA050EB5002100910191F2
:1017300002906A4644F20100FFF7DEFF0EBD10B5CD
:101740008268C3689A1A002A03D000F0A9FA002020
:1017500010BD052010BD002905D012B1531E134243
:1017600003D0092070470E2070470160838000215C
:101770008160C1600020704710B58268C3689A1A02
:1017800083889A4203D800F095FA002010BD042007
:1017900010BD000070B50A4EB47801460948FFF745
:1017A000CEFF05464CB10020B070711C0122C81D4F
:1017B00000F0A2FC08B1FFF7B7FF284670BD00009B
:1017C0000000002014010020F0B589B004460D4649
:1017D0001F46294E7260002D1BD0A888296882B24E
:1017E0002648FFF7B8FF002814D1A889A96882B25B
:1017F00022481030FFF7AFFF00280BD120222049EC
:1018000001A8FEF730FE60690790207C20B101201E
:1018100003E0072009B0F0BD00208DF818008DF816
:101820002070607C08B10E2000E000208DF81900C7
:10183000E0680390A06804902068029060680190BE
:101840000D48104A01A9083000F020FC0028E1D121
:10185000B0702068401C0DD09DF8210018B90648D2
:10186000083000F0A5FC04490122491CC81D00F005
:1018700043FCCFE70020CDE700000020140100204A
:10188000303A00003D37000010B501460B48FFF725
:1018900073FF044684B90A4800F0E8FD60B90849BE
:1018A00006480839FFF74BFF30B9054901220839CE
:1018B000034800F03FFD0446204610BD24010020EF
:1018C000080000202DE9F04105460C464FF0A047E6
:1018D00020684FF00106411C06D006FA00F1C7F857
:1018E0000815206800F0E9FD6068411C02D0002165
:1018F00000F0DAFD28792E4901EB4010007F58B343
:101900002968A069C1F82405617D227D28681143FA
:10191000C0F86C15D4E900122868C0F80C15C0F89E
:101920001425207D012815D1A068411C02D000217A
:1019300000F0BAFDE068411C05D08640C7F8086594
:10194000E06800F0BAFDD4E902212868C0F8081563
:10195000C0F81025BDE8F0812868A169C0F82415F9
:10196000607D217D2A680843C2F86C05D4E9001225
:101970002868C0F81425C0F80C15207D0128E9D18D
:10198000A068411C02D0002100F08EFDE068411CDF
:1019900005D08640C7F80865E06800F08EFDD4E900
:1019A00002212868C0F80815C0F81025D2E7000009
:1019B000E00000201FB50B4800902020019009484E
:1019C000203002904FF4007003900723064A6946C6
:1019D0000648FFF7F9FE10B1002004B010BD012049
:1019E000FBE7000034010020093A0000503A0000F3
:1019F00010B50024FFF7CEFE00B90124204610BD2B
:101A00000249084490F9300070470000640000204B
:101A100070B50546002D01D0064C05E0054C083C8C
:101A200002E0416828468847204600F02DFA002849
:101A3000F7D170BD1001002008480068C0010BD527
:101A400007480068C00707D00548803800680028AC
:101A500002DA04490120087070470000FCED00E044
:101A6000800E00E0500000204FF06042D36F002B4A
:101A7000FCD0036BD367D36F002BFCD0C07840EA57
:101A80000120A2F87C0070474FF06041CA6F002A25
:101A9000FCD081F87C0070470D48007806280FD1F3
:101AA0000B48001D007800070AD10948083000786B
:101AB000C0F30310032805D0042805D0052805D05D
:101AC00000207047012070470120704701207047B7
:101AD000E00F00F00D48007806280FD10B48001DDC
:101AE000007800070AD1094808300078C0F30310D5
:101AF000032805D0042805D0052805D0002070470C
:101B0000012070470120704701207047E00F00F06E
:101B10000D48007806280FD10B48001D00780007FB
:101B20000AD1094808300078C0F30310032805D013
:101B3000042805D0052805D00020704701207047F3
:101B40000120704701207047E00F00F0094800783D
:101B500006280BD10748001D0078000706D105486C
:101B600008300078C0F30310032801D0002070472C
:101B700001207047E00F00F00D48007806280FD1D3
:101B80000B48001D007800070AD10948083000788A
:101B9000C0F30310032805D0042805D0052805D07C
:101BA00000207047012070470120704701207047D6
:101BB000E00F00F00948007806280BD10748001D07
:101BC0000078000706D1054808300078C0F30310FC
:101BD000032801D00020704701207047E00F00F07B
:101BE0000D48007806280FD10B48001D007800072B
:101BF0000AD1094808300078C0F30310032805D043
:101C0000042805D0052805D0002070470120704722
:101C10000120704701207047E00F00F0094800786C
:101C200006280BD10748001D0078000706D105489B
:101C300008300078C0F30310032801D0002070475B
:101C400001207047E00F00F00948007806280BD10A
:101C50000748001D0078000706D1054808300078C5
:101C6000C0F30310032801D0002070470120704703
:101C7000E00F00F00948007806280BD10748001D46
:101C80000078000706D1054808300078C0F303103B
:101C9000052801D00020704701207047E00F00F0B8
:101CA000826883881A4003689A5C0A708168491CBC
:101CB00081607047C26883881A4003689954C1687C
:101CC000491CC160704710B50446A07FFF2801D0B1
:101CD00000F00CFC002060772072D4E9002104F1B0
:101CE0000800BDE81040104710B50446E0B2FFF709
:101CF000CBFD204610BD000010B5044604A0FFF740
:101D000071F82146BDE81040044800F099BC00007D
:101D100048616E646C65640D0A0000001C3A0000A6
:101D200070B504460D4620791D494FF4A27601EBAB
:101D30004010017F206800291DD04FF4887100F009
:101D400019FC4FF49071206800F014FC4FF492716C
:101D5000206800F00FFC3146206800F00BFC1149B0
:101D60002068C0F80413206800F085F92946BDE812
:101D7000704000F064B94FF48E7100F0EAFB314618
:101D8000206800F0E6FB08492068C0F804132068CA
:101D900000F071F92946BDE8704000F050B900002C
:101DA000E0000020100302008000020038B50C465D
:101DB0000022C0F80821D0F808110091214601F056
:101DC00065FC002804D12046BDE83840FFF77BBF02
:101DD00038BD0EB5802200B109B110460AE0017885
:101DE0000129FAD101A900F01FF8042801D0002030
:101DF00000E01020DDE9011203B000BD70B50D4612
:101E0000040003D012B92078012801D0802070BDD1
:101E1000204600F02BFE28B12946204600F02DF880
:101E2000002070BD812070BD10B504468089002857
:101E300022D0608904EB8000006908606078022885
:101E400005D10021204600F065FF00F053FF04F1AA
:101E50000C0000BFD0E85F1F491E8AB2C0E8512FB6
:101E60000029F7D16089401C80B26081E1898842F5
:101E700001D100206081042010BD10B500F04AFFA0
:101E8000BDE8104000F036BF01460868002801D0C8
:101E900002680A607047000008B5002700974FF4F9
:101EA000806A504600F07EF80646002400F074FB7D
:101EB0000025FFF77FFD27A0FEF794FF042000F028
:101EC00071F880460120C8F80000042000F06AF88C
:101ED00081460220C9F8000000F070FB4FF4967BA9
:101EE0006846FFF785FD9DF800100D290CD031B133
:101EF0001DA0FEF777FF9DF800003055641C009789
:101F0000584600F03DFBEBE731461BA0FEF76AFFA9
:101F100020A13046FEF7CBFA28B120A13046FEF7CB
:101F2000C6FA48B110E015B1284600F0ADFB4046B6
:101F3000FFF7E2FE054607E015B1284600F0A4FBD6
:101F40004846FFF7D9FE054651463046FEF7A4FA4B
:101F50000024D4E7546872656164204578616D702F
:101F60006C650D0A00000000524543454956454442
:101F7000203A2025630D0A00454E44204F46205448
:101F800052414E534D495353494F4E203A202573E9
:101F90000D0A0000494E49540000000052455350BC
:101FA00000000000F0B50B30154D20F007010024B3
:101FB000144A0FE003688B420BD38B4205D95E1A9B
:101FC00043184768C3E9006700E04368136002C034
:101FD00004E0021D10680028ECD12046002802D140
:101FE000286808B10020F0BD064A07481060074A7B
:101FF000121A22F00702C0E9002401202860D7E766
:10200000600000205C0000206C0C0020682C002088
:10201000C20800F007030120895C9840084070471F
:1020200000F180400068002800D00120704708B50A
:1020300000F18040002101600068009008BD490760
:10204000090E002806DA00F00F0202F1E02282F801
:10205000141D03E000F1E02282F8001400F01F02DA
:10206000012191404009800000F1E020C0F8801279
:10207000C0F800117047000B40B270470121B1EB6E
:10208000507F01D101207047002070472DE9F041B9
:1020900005460E4617462879DFF8588008EB4014AD
:1020A000E07E002802D00820BDE8F081707F207714
:1020B00031462846FFF706FC6760306920601FB193
:1020C000317F2846FFF72CFE287908EB4010007F6F
:1020D00020B128680821C0F8001503E02868042111
:1020E000C0F800150020E0752076A0750121E1768A
:1020F000A076D9E7E00000202DE9F04105460F4623
:1021000090462879294E06EB4014207F002803D002
:102110003846FFF7B3FF78B1002360684FF40471CD
:102120004FF4017270B1287906EB4010007F30B196
:102130002868C0F8081305E01020BDE8F081286881
:10214000C0F80823E07D90B1207E78B1606858B176
:10215000287906EB4010007F18B12868C0F80413F6
:1021600002E02868C0F804231120E6E7012373B1D8
:10217000276184F81880287906EB4010007F68B149
:10218000424639462846BDE8F04100F07DB884F863
:102190001780E760002060762076ECE742463946FB
:1021A0002846BDE8F04100F01BB80000E000002028
:1021B00070B50446094D207905EB4011087F0028D1
:1021C0000AD1887E002807D1204601F00AF921793A
:1021D000012005EB4111887670BD0000E000002071
:1021E0002DE9F05F04462749207901EB4015A87ED0
:1021F000002803D113B9204601F0F3F8686838B11C
:1022000020684FF40171C0F804130020BDE8F09F6E
:102210004FF4A2794946206800F09BF94FF4927A76
:102220004FF4847B5146206800F08EF907465946EA
:10223000206800F089F980464946206800F084F95A
:10224000064648EA060858EA0708EBD057EA0600AF
:1022500007D12946206801F09FF8E87D697E884211
:10226000E0D80020E8750FB10320CFE70EB10F20B2
:10227000CCE7A87E012110B120680160C5E7206885
:102280004160C2E7E00000202DE9F05F04460E4601
:102290001746984600254FF488794946206800F093
:1022A00069F94FF4A27A5146206800F063F920687A
:1022B000C0F83465C0F83875B8F1000F15D0206843
:1022C000D0F8001241F02001C0F800122079DFF8A8
:1022D000608008EB4010406858B120684FF40471EA
:1022E000C0F804132846BDE8F09F20680121016072
:1022F000ECE74FF4927B4946206800F036F9074638
:102300005146206800F031F906465946206800F031
:102310002CF937430743EED02279002108EB421213
:10232000D17500B10325002EDCD00F25DAE70000BF
:10233000E00000202DE9F04704460F469046207942
:10234000264E06EB4015287F002803D03846FFF7BD
:1023500095FE30B1204600F089F820B11120BDE88B
:10236000F0871020FBE785F81680AF604FF000087B
:10237000A5F81480207906EB4015287F48B3002685
:102380004FF490794946206800F0F4F84FF4AC7AA5
:102390005146206800F0EEF82068AA7DA968C0F8D0
:1023A0004415C0F84825206801218160686870B92B
:1023B0004946206800F0D9F807465146206800F0E9
:1023C000D4F80743F4D000B10F2685F816803046C4
:1023D000C5E72046BDE8F04700F002B8E000002065
:1023E0002DE9F04705462049287901EB40144FF0CC
:1023F00000084FF48E773946286800F0AAF828685C
:102400004FF00109C0F808902146286801F077F9DB
:10241000606830BB4FF480760EE03946286800F0E3
:1024200093F810B9A08AB042F7D1A08AB04203D085
:102430002146286801F063F9A08AA17D8842ECD387
:10244000A08AB04202D14FF00F0808E03946286850
:1024500000F07AF80028F9D02868C0F80C90002025
:10246000A0754046BDE8F087E000002000790449EF
:1024700001EB4010807D002800D001207047000053
:10248000E000002070B5DDE904654FF0A04441EAAA
:10249000420141EA830141EA062104EB800041EA5E
:1024A0000541C0F8001770BD1CB500220B46009214
:1024B00011460192FFF7E6FF1CBD1CB500210091FB
:1024C0000B46012201911146FFF7DCFF1CBD4FF0C6
:1024D000A04202EB800000F5E060026822F4403286
:1024E0000260026842EA0141016070474FF0A04279
:1024F0000121814002F5A1621160704718B5074BB8
:102500001B6800936B46441805E053F82010D1F87F
:10251000101502C2401C8442F7D818BD2C3A0000A6
:1025200008B503490844002101600068009008BD17
:1025300000600040034908440068012800D00020E2
:1025400070470000006000404058002800D0012083
:10255000704708B5002242504058009008BDD0F89E
:102560000403084000D0012070474058002800D0E4
:102570000120704708B5002242504058009008BD25
:10258000EFF3058109B182207047DFF808C000DF52
:102590007047000003340000EFF3058008B182208B
:1025A0007047EFF31480C00703D0DFF80CC000DFE2
:1025B000704700F02FBF00001534000088B0EFF323
:1025C000058010B1822008B07047EFF3148010F03E
:1025D0000301134806D001291BD0022911D0032979
:1025E00019D113E008A981F309880078C0070BD03E
:1025F0005FF0020080F31488BFF34F8FBFF36F8F3B
:1026000009E00078C00706D10320F3E70078C0078F
:1026100001D0FF20D7E7DFF80CC000DFD3E70000D0
:10262000783A000085340000EFF305820AB1FFF725
:10263000D0BBDFF808C000DF70470000F1340000B5
:10264000EFF305820AB100207047EFF31482064BC6
:1026500002F001025B781A4303D0DFF810C000DFFC
:10266000704700F063BF0000340000202D350000EB
:10267000DFF80CC000DFDFF80CC000DFFEE7000071
:102680009D350000B9350000EFF3058109B18220C6
:102690007047DFF808C000DF70470000B935000060
:1026A000DFF804C000DF7047F1350000094C4FF03F
:1026B000FF3529462068FFF7B7FF02460846102A73
:1026C000F7D1FFF7EDFF0028F3D002460846904708
:1026D000EFE700002C000020FEE7FEE70748016856
:1026E0004FF0E02041610021816107210161044830
:1026F000016841F07F41016040177047743A000063
:1027000020ED00E0704750E8001F31B10B6840E851
:102710000032002AF7D108467047BFF32F8FFAE73F
:1027200010B568B161B10B3121F003020168446852
:102730000B1A1B1B934205D2084609680029F5D1E4
:10274000002010BD210007D021180368C1E9003224
:10275000016001F1080010BD4260083010BD0000AA
:1027600070B50D46002812D04FF6FF71084C884214
:1027700004D222680146104600F0FAFA206845703B
:10278000044800F0DDF8BDE8704000F0C3BB70BD48
:102790003C000020340C00200F4810B50D49426861
:1027A0000E480B680068934204D00A60CB88421E32
:1027B0001A448A808A8880B282420AD10020086046
:1027C000054800F0BDF80146BDE81040024800F0A1
:1027D000F3BA10BD54000020340C00204C0000203F
:1027E00070B5194DE86800282CD0A88A401EA88230
:1027F000002621E0A06838B161684160606810B1CE
:10280000A16881606660A6600F482146183800F014
:10281000D3FAA08AA8826078042804D10B49E08A00
:1028200009880844A08201206070E068E860E068E0
:1028300008B10561E6602661A88A002802D1EC682B
:10284000002CD7D170BD00004C0C00204C000020A3
:1028500070B504000FD00D4DA1780126286882784C
:1028600091420CD900F0C4FA286846702046BDE8B1
:10287000704000F04FBB064800F062F8F7E7667062
:102880002146BDE87040024800F096BA3C000020A6
:10289000340C00200321FFF763BF000010B504468D
:1028A000008B084320836278618B062A18D0052AA2
:1028B00019D1084217D001EA0002628388432083BD
:1028C000204600F0CFFA01206070628B082120467C
:1028D00000F0C0FA2146BDE81040034800F06CBA91
:1028E00031EA0002EAD010BD340C0020814202D34C
:1028F00042688A4201D80120704702680A60BFF32B
:102900005F8F50E8003F0A689A42F6D140E8001213
:10291000002AF2D10020704768B161B10022083965
:1029200002E00246006830B18842FAD12AB100685C
:102930001060002070470120704700214160F8E7D7
:102940000146406842684A600B780022022B05D09D
:10295000012B03D0032B01D04260704743680BB1B9
:102960009960426082607047810700D00020704704
:1029700070B5044600201546207001226270A170D7
:1029800084F824106060A060E06020612062A08272
:10299000E0822083608384F82500E08C18B9054824
:1029A000FFF7B1FEE06229462046BDE8704000F026
:1029B0001DB80000F004002008B1082901D2012050
:1029C00070470144091F002201600A6042601046FE
:1029D0007047000003480021016003490988C18055
:1029E0007047000054000020703A000070B5C28C9F
:1029F0001C4D930802D12A88C2F38D03C26A02EBF0
:102A00008302540700D5121F4FF0807442E902146C
:102A100000242646B2F1400242F82460641C0E2CC9
:102A2000FAD3C4691462826201632968C90014D5AB
:102A3000112B12D94FF0FF31103B11EB53014FF026
:102A4000CC3305D042F8043C42F8083D491EF9D188
:102A5000C16A121F8A4200D91360C06A024901602C
:102A600070BD00006C3A0000A52E5AE2C189808931
:102A7000081A704701220270002242708270426080
:102A800002814281103982818908C181704700002A
:102A90002DE9F041044640680E464FF0000804F16D
:102AA0000C05E8B36078012701283ED0022813D036
:102AB00003285CD10846FFF726FE050057D02046C4
:102AC000FFF73EFF0446294600F0BEF96770204636
:102AD00000F0C8F9214621E02046FFF731FF064605
:102AE000002100F0B1F92189F06904EB810108614E
:102AF000D5E85F0F401C81B2C5E8501F0028F7D110
:102B00002089401C80B22081E189884201D1A4F84B
:102B100008807770304600F0A5F93146174800E08C
:102B20000CE0BDE8F04100F047B92046FFF708FF90
:102B300004463246102100F08DF9C7E7A089E189EB
:102B4000884216D2208904EB80000661D5E85F0F29
:102B5000401C81B2C5E8501F0028F7D12089401CD5
:102B600080B22081E189884201D1A4F80880BDE8C3
:102B7000F081BDE8F0410320FFF7AEBD340C00202A
:102B800070B50446808915460026C0B3608904EB01
:102B90008000006908606089401C80B26081E18922
:102BA000884200D16681606810B1607802280BD03D
:102BB00014F10C04D4E85F0F401E81B2C4E8501F2A
:102BC0000028F7D1002070BD2046FFF7B9FE05466A
:102BD000002100F039F92189E86904EB81010861DD
:102BE0002089401C80B22081E189884200D1268161
:102BF000284600F037F92846FFF72AFEE2E7FFE70C
:102C00003DB10B48626801682AB1204600F0D4F853
:102C100008E0012070BD616001684E60006884605A
:102C20000120607008212846FFF79AFDF1E70000B7
:102C30003C000020002814D0411C13D00C4A4FF651
:102C4000FE7190420CD800EB4002C2EBC012094862
:102C5000036803EBC202521EB2FBF3F0884204D9B0
:102C6000084670474FF6FF70704780B2704700000B
:102C700000093D00843A000070B51B48012102683C
:102C80005170006800F0B4F8184D6C7818E000BF7F
:102C900005EBC40148680278EAB1012A20D000F0AF
:102CA0000DF9E878641C844200D100240F48801C90
:102CB000D0E84F1F491EC9B2C0E8421F002AF7D111
:102CC000A8780028E4D16C700948FFF739FEBDE808
:102CD000704000F01FB9098989B2FFF7DFFDE0E716
:102CE0008968FFF7D5FEDCE73C000020600B002080
:102CF000340C00200548017811B101214170704762
:102D000003494FF0805008607047000044000020E5
:102D100004ED00E0F0B4154DAB1CEE784FEA05076A
:102D2000D3E84F2FB24202D1BFF32F8F11E0521CD4
:102D3000D4B2C3E8424F002AF2D100BFD7E84F2FE8
:102D4000541CB44200D10024E4B2C7E8434F002B26
:102D5000F4D1EB78934205D905EBC202C2E9010137
:102D6000F0BC7047F0BC0220FFF7B6BC600B00203F
:102D7000104A10B5D368ABB113469B8A03E08CB1FF
:102D80002246A48A2344D4688B42F8D3C460D0601E
:102D90000261C46804B12061591A8182908A401A84
:102DA000908210BD0024C460D060C91A0261918273
:102DB000848210BD4C0C002030B502780023022A1A
:102DC00003D0012A01D0032A00D101238C7800E02E
:102DD0001046426812B19578A542F9D24A60416026
:102DE0001BB102B19160886030BD0020FBE700009C
:102DF00003494A68426000228260486070470000D0
:102E0000340C002010B5836804462BB96078012883
:102E10000ED1084B03E09B6818780028FBD02046B1
:102E200000F034F82146BDE810401846FFF7C4BF53
:102E300010BD0000340C002090F82510806A09B104
:102E4000603070472030704710B50C46FFF7F4FF34
:102E5000046010BD70B515460C46FFF7EDFFC0E9E4
:102E6000004570BD10B5016900290ED0C268CA6066
:102E7000C36800223BB18B8A848A23448B82C36857
:102E80001961C26000E08A82026110BD816839B1B7
:102E900042684A604168002901D0806888607047B4
:102EA000054906E04A68824202D14068486070479E
:102EB00011460029F6D17047340C002010B5416846
:102EC00081B1FFF73DFD0446FFF7CCFF01206070A4
:102ED00001462046FFF7B8FF2146BDE810400348F1
:102EE000FFF76ABF4188491C418010BD340C0020A7
:102EF00006480068D0E90A10814203D300680449FB
:102F0000884202D00120FFF7E7BB70473C00002059
:102F1000A52E5AE20749022248604270064A1278FA
:102F2000002A05D006C98A4202D0C078FEF7ACBD9F
:102F3000704700003C0000205000002070B5FEF7F4
:102F40007BFD00200446204A204902E042F8204050
:102F5000401C0B889842F9D31D48342201881D4833
:102F6000FEF722F81C48008880B240F000421B485F
:102F700001681B48FEF718F81A48082201881A4809
:102F80000068FEF711F8194DFF20194AE870EC842B
:102F900000212846FFF7ECFC16480421017044602C
:102FA00015480170C46004618482144815490560A5
:102FB000022068701248047044700978C170BDE83E
:102FC0007040FFF707BD0000E40B0020683A0000E6
:102FD0008C3A0000740300206C3A0000903A000024
:102FE000F0040020B43A000014000020000C00207F
:102FF000DB260000340C00204C0C00203C0000209C
:10300000600B0020983A00001B4810B5016841F49D
:103010007F01016000684FF07F4101EA00201649FE
:10302000C0431439B0FA80F00968C0F10800C1F358
:103030000221814200D3481C0F49091F0B686FF021
:103040008072824063F317020A60FFF747FB0B4967
:10305000002808600EDB00F1E021FF2281F8002447
:1030600000F01F02012191404009800000F1E020A2
:10307000C0F8001110BD000020ED00E04800002065
:103080000C4810B50268012151700068FFF7B0FECE
:10309000FFF782FB08480168491C0160FFF7A0FBAD
:1030A00000F0B2FA0548FFF74BFCBDE81040FFF70F
:1030B00031BF00003C0000204C000020340C0020F8
:1030C000002805D0810702D10178002900D0002016
:1030D0007047000030B50B4C0023626805E095682E
:1030E0008D4204D813461268491B002AF7D10260AA
:1030F000816012B19568691A91600BB1186030BD9A
:10310000606030BD340000202DE9F0411E461746B6
:1031100080460D4611F0FF0F00D14D1C1848FFF7F7
:10312000F2FA041E16D0280AE762E084E9B24246A9
:103130002046E661FFF71CFC01251248124905E014
:1031400000EB850252F8042C32B16D1C0A889542BE
:10315000F6D90020BDE8F081002DFAD000EB850003
:1031600040F8044C0948E570007818B10121204668
:10317000FEF77AFC2046FFF76BFB2846EAE70000E3
:1031800074030020E40B0020683A00005000002087
:103190002DE9F05F584DDFF85891DFF85881296824
:1031A0004FF0010A002618B1CA78AB46824243D1DB
:1031B0004E70FDF73CF829688862FFF799FE286891
:1031C000046A1FE06068C0B12046FFF7B9FB0746FC
:1031D0000021FFF739FE3846FFF744FE87F801A0CB
:1031E00039464648FFF7E8FDE168A4F802A0A76069
:1031F000386AE0603C620C4604E0E0686680A660E5
:10320000E6600446002CDDD12868C27808EB820114
:1032100041F8046CC16A3A48FFF768FB2868C66247
:1032200099F8001011B10021FEF71EFC35482968FD
:10323000FFF75CFB2E6056E03349098888420CD8C2
:1032400008EB800858F8045C3DB12846FFF71EFEE5
:103250002846FFF707FE2C6A22E0FF20BDE8F09F1A
:103260006068C0B12046FFF76BFB07460021FFF7FF
:10327000EBFD3846FFF7F6FD87F801A039461F48F9
:10328000FFF79AFDE168A4F802A0A760386AE06041
:103290003C620C4604E0E0686680A660E660044696
:1032A000002CDDD148F8046C1548E96AFFF71EFBD5
:1032B000EE6299F8000018B100212846FEF7D4FB11
:1032C00029461048FFF712FB0C48DBF80010406855
:1032D0008B7882789A4209D981F801A00748DBF8F7
:1032E0000010FFF769FD0020FFF7B2FA0020B5E7F4
:1032F00050000020E40B00203C000020340C002093
:10330000F004002074030020683A000070B51A4DE4
:1033100080B11A4A128890421FD8194A02EB8000E5
:1033200050F8044CCCB1A17084F824102868A04255
:1033300005D014E028688170286880F824101148AE
:1033400040688078884215D90E482968FFF734FD17
:1033500029680120487000200AE0FF2070BD204647
:10336000FFF750FD6078012804D10648FFF7E8FA1E
:10337000FFF76EFA002070BD3C000020683A0000A4
:10338000E40B0020340C002002480068002800D024
:10339000C07870473C00002070B505460C464FF4DD
:1033A0008471E07D00280BD02846FFF7D2F8D5F8CD
:1033B0001805627EE1688854607E401C607670BDAE
:1033C0002846FFF7C6F8D5F8180570BD1FB50123CC
:1033D0008DF800308DF80810019206C868469047B5
:1033E0001FBD10B504464FF492712068FFF7B1F885
:1033F0004FF484712068FFF7ACF820680121016068
:1034000010BD10B5002804D0FFF714FCFFF742FAF6
:10341000402010BD10B5134C207860B91248400709
:1034200005D1124801681048FFF7C6FA08B1852097
:1034300010BDFFF783FD0E49FF20096888702078D2
:1034400058B900210B4800F041F80B4908600021F1
:103450000A4800F06BF80A4908600120207000203B
:10346000607010BD34000020B0090020943A0000C4
:103470003C000020AC3A00002C0000209C3A0000E8
:103480002800002070B50F4D687808B1002070BD8D
:103490000D4C206890F824100020FFF737FF2068BB
:1034A000C178FF2903D1816A203181F309886168DD
:1034B00011B9606000202060FFF7A6FD0120687050
:1034C000E4E70000340000203C00002010B50400B8
:1034D00005D0216819B1606808B102780AB10020EE
:1034E00010BD8900103189B2FFF7C4FA606810BDC1
:1034F0003EB504000D464FF0800012D0217801291E
:103500000FD12846FFF796FB0246204601A9FFF798
:1035100037FB012801D0102003E00DB1402000E06E
:103520000020DDE9011203B030BD000070B50E4689
:1035300004002BD0206848B3B4F9040010F1030F45
:1035400024DB032822DCE16829B11148FFF7E8F801
:1035500005001BD000E00025B4F90400E168001D5F
:1035600040EA012133462A462068FFF7CDFD40B1ED
:10357000084901EB8000084950F8040C826A516345
:1035800070BD1DB129460248FFF7C6F9002070BD85
:10359000B0090020E40B00207126000010B5FFF7F1
:1035A000F3FE002804D0034901EB800050F8040C1E
:1035B00010BD0000E40B002010B5FFF781FD18B12D
:1035C000C18C19B1C46A02E0802010BD0024C0780B
:1035D000FFF7DEFDFF2806D01CB121460348FFF7A8
:1035E0009BF9002010BD812010BD0000B009002013
:1035F00010B5FFF7B9F920B141690A6801691046B1
:1036000010BD0020014610BD2DE9F041134E746835
:10361000002C1CD0A068124F401E4FF00108A06083
:1036200012E0254624687460002229463868FEF7B7
:10363000E5FB10B10420FFF74FF86879012808D0A6
:1036400085F80480002C02D0A0680028E9D0BDE8ED
:10365000F0812846E968FFF73DFDF3E734000020DC
:103660002C000020044642F2107504A02168FDF7EA
:10367000B9FB2846FEF784FFF7E70000546872653F
:103680006164203A2025640D0A00000038B5D0F8A6
:103690001825009291F820200B7E9A4203D29DF8C3
:1036A00000304C69A35411F8202F521CD2B20A707A
:1036B0001346521C4C782039640707D50C7C944281
:1036C00000D90A740C7E944200D90A760C7C94428C
:1036D00005D9C968895CC0F81C15012038BD0D7E6C
:1036E000954204D9C97FC0F81C15012038BDA342FA
:1036F00001D3AB4201D2012038BD002038BD70B5E6
:1037000005460C464FF48E712846FEF722FFA18A2B
:10371000A068415CA28A521CA282C5F81C1570BD2B
:103720001FB500228DF800208DF8081081680191E6
:10373000827506C8684690471FBD00007CB50178B9
:10374000274C002938D001290ED002290BD18DF841
:103750000010C0680190611C0122C81DFEF7CCFC5E
:103760006168684688477CBD406801781D48FEF75F
:1037700003F81C4D012630B18DF80060019061689E
:103780006846884709E0A868E968081A28B1002057
:103790008DF80000616868468847A868E968081ADB
:1037A000A988884206D80E490122491CC81DFEF787
:1037B000A3FC7CBDA6707CBD0A4809491030FDF70A
:1037C000BEFF30B103208DF800006168684688476D
:1037D0007CBD0349012201F10800FEF7ABFD7CBD71
:1037E00000000020140100202DE9FF4705460C468B
:1037F0004FF400712846FEF7B2FE01274FF401781E
:10380000002618B34FF4927949462846FEF79CFEED
:10381000E0B149462846FEF79CFEC5F80883A07E25
:1038200000B96F6002208DF80000D5F88004C5F85B
:1038300080040390E07D8DF80800E0680190E67553
:103840002676D4E90012684690472AE004212846EB
:10385000FEF785FE28B34FF484712846FEF774FE08
:10386000F8B121462846FFF797FDE07D617E88424A
:1038700017D1207E50B1E268617EE0752069E0607A
:10388000267666762046FFF7A1FD0AE0A07E00B905
:103890006F60C5F80883E675617EE2682046FFF731
:1038A00095FD4FF48E7841462846FEF74DFE88B1CF
:1038B000A08AA17D884204D221462846FFF71FFF37
:1038C00008E041462846FEF744FEA17D11B120469E
:1038D000FFF726FF4FF4A27841462846FEF734FE54
:1038E000002812D041462846FEF733FEA07E00B1E4
:1038F0002F60E07D002808D0E675617EE26804B0A4
:103900002046BDE8F047FFF761BDBDE8FF872DE920
:10391000FF4105460C464FF4927739462846FEF79C
:1039200024FE0026C0B139462846FEF723FE0220B9
:103930008DF80000D5F88004C5F880040390D5F810
:103940003C058DF80800E0680190E6752676D4E91C
:1039500000126846904727E04FF48877394628469A
:10396000FEF703FE00B339462846FEF703FED5F8FE
:103970003C05C1B2E07D884216D1207E78B1E26874
:10398000D5F8000220F02000C5F80002207EE07586
:103990002069E06026762046FFF718FD04E0E67512
:1039A0002046E268FFF712FD4FF4A2773946284619
:1039B000FEF7DBFD68B139462846FEF7DBFDE07D0A
:1039C00038B1E675D5F83C05E268C1B22046FFF78C
:1039D000FDFC4FF4907631462846FEF7C6FD0028E0
:1039E0000FD031462846FEF7C5FDA07D002808D03F
:1039F000D5F84C0504B0C1B22046BDE8F041FFF750
:103A00008FBEBDE8FF8170470078022803D00128EF
:103A100003D1FFF7F8BFFFF7F6BF70476536000028
:103A20000100000002000000000000000000005043
:103A3000FFFFFFFFFFFFFFFFFFFFFFFFFFFFFFFF96
:103A400000000000000000000000D6010701000097
:103A50000B00000005000000FFFFFFFFFFFFFFFF5E
:103A6000000000000000D60107000000C8000201AD
:103A700005000100DF2E000001000000020001002F
:103A800050000400E803000000000000780100007E
:103A9000C0040000B001000010000000AD260000CE
:103AA0000200000001000000C80000000400000047
:103AB0005403002000000000D83A0000000000205D
:103AC00064000000040E00003C3B00006400002085
:103AD000044C0000140E0000000000000000000074
:103AE0000020004000000000000000000000000076
:103AF000991E00000000000001000000C800000046
:103B000000000000000000000090D0030000000052
:103B100000000000000000000000000000000000A5
:103B20000000000000000000000000000000000095
:0C3B300000000000000000000000000089
:0400000500000201F4
:00000001FF
