:020000040000FA
:100000000823002019020000210200002302000042
:100010002502000027020000290200000000000065
:100020000000000000000000000000002B020000A3
:100030002D020000000000002F020000310200002D
:100040005D04000033020000E906000033020000F6
:10005000B504000033020000B102000033020000CA
:1000600033020000330200003302000033020000BC
:1000700033020000330200003302000033020000AC
:10008000330200003302000033020000330200009C
:10009000330200003302000033020000330200008C
:1000A000330200003302000033020000330200007C
:1000B00033020000330200000000000000000000D6
:1000C000330200003302000033020000330200005C
:1000D0003302000033020000330200000000000081
:1000E0000000000000000000000000000000000010
:1000F0000000000000000000000000000000000000
:1001000000000000000000000000000000000000EF
:1001100000000000000000000000000000000000DF
:1001200000000000000000000000000000000000CF
:1001300000000000000000000000000000000000BF
:1001400000000000000000000000000000000000AF
:10015000000000000000000000000000000000009F
:10016000000000000000000000000000000000008F
:10017000000000000000000000000000000000007F
:10018000000000000000000000000000000000006F
:10019000000000000000000000000000000000005F
:1001A000000000000000000000000000000000004F
:1001B000000000000000000000000000000000003F
:1001C000000000000000000000000000000000002F
:1001D000000000000000000000000000000000001F
:1001E000000000000000000000000000000000000F
:1001F00000000000000000000000000000000000FF
:10020000DFF810D000F042F800480047750E0000FB
:10021000AFF30080082300200648804706480047C7
:10022000FEE7FEE7FEE7FEE7FEE7FEE7FEE7FEE7A6
:10023000FEE7FEE7D50400000102000040EA0103EA
:100240009B0703D009E008C9121F08C0042AFAD28C
:1002500003E011F8013B00F8013B521EF9D2704750
:1002600030B50B46014600202022012409E021FA86
:1002700002F59D4205D303FA02F5491B04FA02F583
:100280002844151EA2F10102F1DC30BD064C074DD9
:1002900006E0E06840F0010394E807009847103456
:1002A000AC42F6D3FFF7B0FF2C1900004C19000048
:1002B0002DE9FF5F0025A846CDF80C804FF480792A
:1002C00001240026634F484601F0F0F838B1D7F812
:1002D0000403204018B1484601F0DEF825436400CD
:1002E00009F104091FFA89F9761C082EEBD34FF4A3
:1002F000BE74204601F0DAF848B1204601F0CCF88F
:1003000045F0004503AA0121002001F0B3F8DFF811
:10031000489115F0FF0F15D0012600242E420DD074
:1003200007EB8401D1F81005C0F30420D1F81015B3
:10033000C1F3014159F8242002B190477600641CB2
:10034000082CEBD3002D73DACDF808800020411E75
:100350000DF1040848F82010401C0028FAD00024B1
:10036000002509EB050010F8506F26F0C00B90F93E
:100370000000401C3FD001A9584600F0B9FDD0B3A1
:10038000B609584600F0C8FB59F820700FB9032E83
:1003900031D1032E0CD102A84FEADB010BF007028A
:1003A000435C4FF0010C0CFA02FC43EA0C0343548B
:1003B0004FF0A04000EB8B00D0F80007C0F3014ADB
:1003C00003A9584600F094FD10B1BAF1020F03D012
:1003D00088B9BAF1030F0ED1032E08D1BAF1020F7A
:1003E0001ED00221584601F02EF8641CE4B217B169
:1003F00031465846B8476D1C042DB2D334B301259D
:100400006A460121002001F035F8002003A96A4660
:1004100051F8206052F82030B34203D0002504E0A8
:100420000321DFE7401C0028F2D015B100240DE0C5
:100430000EE0002002AB52F8205041F8205053F853
:10044000205048F82050401C0028F4D0002C86D1C1
:10045000BDE8FF9F00600040180000202DE9F0413A
:100460004FF48077384600F04BFD0124104EA5076D
:1004700048B1384600F04BFD0120C5F80803747000
:10048000002000F051FB4FF48277384600F038FD31
:1004900000280BD0384600F03AFD0220C5F80803CA
:1004A000B470BDE8F041012000F03EBBBDE8F08132
:1004B000B400002002494FF0402000F0C1BC000011
:1004C0007000002002490148086070470090D00386
:1004D0001400002070B500F05BFB4FF0805528B190
:1004E000B5F824037249C0F30420086000F08CFBC7
:1004F00010B171496F48486700F09CFB28B1D5F8EE
:1005000044026E49C0F34230086000F0B1FB20B1F4
:100510006B48016821F08071016000F0BFFB00248E
:1005200028B16848046044606448001F046000F01B
:10053000D3FB18B1614903206431086000F0E2FB8D
:10054000012658B16049052008605F487830066090
:100550005D4808300460091D3F20086000F0E8FB9A
:10056000F0B35A4800685A4908605848001D0068AE
:10057000091D0860554808300068091D0860534887
:100580000C300068091D0860504810300068091DD3
:1005900008604E4814300068091D08604B48183048
:1005A00000684B492031086048481C300068091D2C
:1005B0000860464820300068091D08604348243020
:1005C0000068091D0860414828300068091D08605E
:1005D0003E482C300068091D08603C48303000E07F
:1005E00017E000683A494031086038483430006804
:1005F000091D0860354838300068091D0860334817
:100600003C300068091D0860304840300068091D12
:10061000086000F09FFA28B1D5F858022D4900F083
:100620004F00086000F0D2FA30B12B480168C907CA
:1006300002D06FF00101016021487438016841F473
:1006400070010160BFF34F8FBFF36F8F4FF0102227
:10065000D2F80002002803DBD2F80402002822DAD4
:100660001E4B1E601E4801680029FCD01525C2F8EB
:10067000005201680029FCD0C2F804520168002928
:10068000FCD01C6001680029FCD0BFF34F8F0C48E0
:10069000F0380168134A01F4E06111430160BFF3CF
:1006A0004F8F00BFFDE7BDE87040FFF70BBF0000B4
:1006B000403501400DF0ADBA00C007403C05004098
:1006C000FCED00E00C010040105600400404001056
:1006D00020C50040E40E00400004004004E5014055
:1006E00000E401400400FA050548017F054800299F
:1006F00002D0034901F075B8014900F0DFBF0000E6
:1007000094000020002000400FB4054B10B503A951
:10071000044A029800F018F810BC5DF814FB0000C1
:10072000A50D00001000002002E008C8121F08C13B
:10073000002AFAD170477047002001E001C1121F62
:10074000002AFBD1704700002DE9FF4F89B09B467E
:100750000446002506E025280BD05A460B99904701
:10076000641C6D1C20780028F5D10DB02846BDE82A
:10077000F08F0027B8460122474900E0074314F8EC
:10078000013F203B02FA03F00842F7D120782E28DF
:1007900019D114F8010F47F004072A280ED06FF082
:1007A0002F022078A0F1300109290CD808EB88012C
:1007B00002EB410100EB0108641CF2E70A98641C9B
:1007C00050F8048B0A9020780028CED0642808D0F6
:1007D000692806D075281ED05A460B9990476D1C83
:1007E00058E00A994FF00A0901C90A91002802DA73
:1007F00040422D2102E0390504D52B218DF820102F
:10080000012103E0F90704D02021F7E78A4608AE6A
:100810000DE00021FAE70A994FF00A0901C90A918F
:10082000F7E74946FFF71CFD303106F8011D0028A7
:10083000F7D1ADEB060000F12009780701D44FF0A5
:100840000108C84502DDA8EB090000E00020804651
:10085000002706E008A85A46C05D0B9990476D1C1A
:100860007F1C5745F6DB04E030205A460B99904731
:100870006D1CB8F10001A8F10108F5DC05E016F8DF
:10088000010B5A460B9990476D1CB9F10001A9F173
:100890000109F4DC641C65E70928010010B58268D1
:1008A000C3689A1A002A03D000F058FA002010BD3D
:1008B000052010BD002905D012B1531E134203D0EC
:1008C000092070470E2070470160838000218160FD
:1008D000C1600020704710B58268C3689A1A838887
:1008E0009A4203D800F044FA002010BD042010BD45
:1008F000F0B589B004460D461F46294E7260002DA2
:100900001BD0A888296882B22648FFF7D3FF0028A9
:1009100014D1A889A96882B222481030FFF7CAFF13
:1009200000280BD12022204901A8FFF787FC60692D
:100930000790207C20B1012003E0072009B0F0BD22
:1009400000208DF818008DF82070607C08B10E2012
:1009500000E000208DF81900E0680390A068049082
:1009600020680290606801900D48104A01A9083083
:1009700000F048FB0028E1D1B0702068401C0DD089
:100980009DF8210018B90648083000F0CDFB044955
:100990000122491CC81D00F06BFBCFE70020CDE70A
:1009A00000000020C8000020F4180000111600000C
:1009B00010B501460B48FFF78EFF044684B90A487C
:1009C00000F010FD60B9084906480839FFF766FFD6
:1009D00030B9054901220839034800F067FC044694
:1009E000204610BDD8000020080000202DE9F0416D
:1009F00005460C464FF0A04720684FF00106411C09
:100A000006D006FA00F1C7F80815206800F011FDBD
:100A10006068411C02D0002100F002FD28792E49B7
:100A200001EB4010007F58B32968A069C1F8240584
:100A3000617D227D28681143C0F86C15D4E900124D
:100A40002868C0F80C15C0F81425207D012815D1A0
:100A5000A068411C02D0002100F0E2FCE068411CCB
:100A600005D08640C7F80865E06800F0E2FCD4E9EC
:100A700002212868C0F80815C0F81025BDE8F081EB
:100A80002868A169C0F82415607D217D2A68084383
:100A9000C2F86C05D4E900122868C0F81425C0F823
:100AA0000C15207D0128E9D1A068411C02D000214D
:100AB00000F0B6FCE068411C05D08640C7F8086528
:100AC000E06800F0B6FCD4E902212868C0F80815F7
:100AD000C0F81025D2E70000940000201FB50B4895
:100AE0000090202001900948203002904FF40070BF
:100AF00003900723064A69460648FFF7F9FE10B13E
:100B0000002004B010BD0120FBE70000E800002039
:100B1000DD180000141900000249084490F9300063
:100B2000704700001800002070B50546002D01D068
:100B3000064C05E0054C083C02E041682846884721
:100B4000204600F090F90028F7D170BDC4000020C5
:100B500000F0E5B90D48007806280FD10B48001DBC
:100B6000007800070AD1094808300078C0F3031064
:100B7000032805D0042805D0052805D0002070479B
:100B8000012070470120704701207047E00F00F0FE
:100B90000D48007806280FD10B48001D007800078B
:100BA0000AD1094808300078C0F30310032805D0A3
:100BB000042805D0052805D0002070470120704783
:100BC0000120704701207047E00F00F00D480078C9
:100BD00006280FD10B48001D007800070AD10948EC
:100BE00008300078C0F30310032805D0042805D08E
:100BF000052805D00020704701207047012070476C
:100C000001207047E00F00F00948007806280BD15A
:100C10000748001D0078000706D105480830007815
:100C2000C0F30310032801D0002070470120704753
:100C3000E00F00F00D48007806280FD10B48001D8A
:100C4000007800070AD1094808300078C0F3031083
:100C5000032805D0042805D0052805D000207047BA
:100C6000012070470120704701207047E00F00F01D
:100C70000948007806280BD10748001D00780007B6
:100C800006D1054808300078C0F30310032801D0CE
:100C90000020704701207047E00F00F00D480078F9
:100CA00006280FD10B48001D007800070AD109481B
:100CB00008300078C0F30310032805D0042805D0BD
:100CC000052805D00020704701207047012070479B
:100CD00001207047E00F00F00948007806280BD18A
:100CE0000748001D0078000706D105480830007845
:100CF000C0F30310032801D0002070470120704783
:100D0000E00F00F00948007806280BD10748001DC5
:100D10000078000706D1054808300078C0F30310BA
:100D2000032801D00020704701207047E00F00F039
:100D30000948007806280BD10748001D00780007F5
:100D400006D1054808300078C0F30310052801D00B
:100D50000020704701207047E00F00F08268838810
:100D60001A4003689A5C0A708168491C8160704768
:100D7000C26883881A4003689954C168491CC160DD
:100D8000704710B50446A07FFF2801D000F06AFB31
:100D9000002060772072D4E9002104F10800BDE84A
:100DA0001040104710B50446E0B2FFF701FE2046A0
:100DB00010BD000070B504460D4620791D494FF462
:100DC000A27601EB4010017F206800291DD04FF46E
:100DD000887100F08BFB4FF49071206800F086FB67
:100DE0004FF49271206800F081FB3146206800F0DA
:100DF0007DFB11492068C0F80413206800F0F6F864
:100E00002946BDE8704000F0D5B84FF48E7100F06F
:100E10005CFB3146206800F058FB08492068C0F8A8
:100E20000413206800F0E2F82946BDE8704000F0A5
:100E3000C1B80000940000201003020080000200EE
:100E400038B50C460022C0F80821D0F808110091EE
:100E5000214600F086FB002804D12046BDE838403A
:100E6000FFF78FBF38BD01460868002801D002682F
:100E70000A6070470020134B012404FA00F1194264
:100E800006D04FF0A04202EB80020321C2F8001707
:100E9000401C2028F1D30C4803600B490020091F97
:100EA0000860FFF71BFE09A0FFF72EFC00244FF49B
:100EB0007A75641C214609A0FFF726FC2846FFF737
:100EC00047FEF6E7000040C00C05005048656C6C1A
:100ED0006F20576F726C64210D0A000048656C6CBE
:100EE0006F20576F726C642025640D0A00000000AB
:100EF000C20800F007030120895C98400840704751
:100F000000F180400068002800D00120704708B53B
:100F100000F18040002101600068009008BD4FF49E
:100F20007A714843AFF3008000283ED01F4A204921
:100F3000126800BF00BF00BF00BF00BF00BF00BFFE
:100F400000BF8A422FD000BF00BF00BF00BF00BF5C
:100F500000BF00BF00BF00BF00BF00BF00BF00BF99
:100F600000BF00BF00BF00BF00BF00BF00BF00BF89
:100F700000BF00BF00BF00BF00BF00BF00BF00BF79
:100F800000BF00BF00BF00BF00BF00BF00BF00BF69
:100F900000BF00BF00BF00BF00BF00BF00BF00BF59
:100FA00000BF00BF00BF0138C3D17047140000204C
:100FB0000024F4004907090E002806DA00F00F02A9
:100FC00002F1E02282F8141D03E000F1E02282F831
:100FD000001400F01F02012191404009800000F13F
:100FE000E020C0F88012C0F800117047000B40B23A
:100FF00070470121B1EB507F01D1012070470020E3
:10100000704700002DE9F04105460E461746287945
:10101000DFF8588008EB4014E07E002802D008205A
:10102000BDE8F081707F207731462846FFF7DEFC6F
:101030006760306920601FB1317F2846FFF7BAFE34
:10104000287908EB4010007F20B128680821C0F8FB
:10105000001503E028680421C0F800150020E075A1
:101060002076A0750121E176A076D9E794000020D2
:101070002DE9F04105460F4690462879294E06EBAA
:101080004014207F002803D03846FFF7B2FF78B124
:10109000002360684FF404714FF4017270B1287935
:1010A00006EB4010007F30B12868C0F8081305E057
:1010B0001020BDE8F0812868C0F80823E07D90B1D9
:1010C000207E78B1606858B1287906EB4010007F27
:1010D00018B12868C0F8041302E02868C0F8042397
:1010E0001120E6E7012373B1276184F8188028797D
:1010F00006EB4010007F68B1424639462846BDE8FD
:10110000F04100F07DB884F81780E7600020607639
:101110002076ECE7424639462846BDE8F04100F02B
:101120001BB800009400002070B50446094D2079DA
:1011300005EB4011087F00280AD1887E002807D1DE
:10114000204600F0FEF92179012005EB4111887657
:1011500070BD0000940000202DE9F05F044627498F
:10116000207901EB4015A87E002803D113B9204651
:1011700000F0E7F9686838B120684FF40171C0F8F1
:1011800004130020BDE8F09F4FF4A279494620687F
:1011900000F09BF94FF4927A4FF4847B514620681B
:1011A00000F08EF907465946206800F089F980461C
:1011B0004946206800F084F9064648EA060858EADD
:1011C0000708EBD057EA060007D12946206800F04F
:1011D00093F9E87D697E8842E0D80020E8750FB178
:1011E0000320CFE70EB10F20CCE7A87E012110B17C
:1011F00020680160C5E720684160C2E794000020D4
:101200002DE9F05F04460E461746984600254FF438
:1012100088794946206800F069F94FF4A27A51466E
:10122000206800F063F92068C0F83465C0F83875AC
:10123000B8F1000F15D02068D0F8001241F020015D
:10124000C0F800122079DFF8608008EB4010406899
:1012500058B120684FF40471C0F804132846BDE863
:10126000F09F206801210160ECE74FF4927B494632
:10127000206800F036F907465146206800F031F941
:1012800006465946206800F02CF937430743EED054
:101290002279002108EB4212D17500B10325002EFE
:1012A000DCD00F25DAE70000940000202DE9F0479C
:1012B00004460F4690462079264E06EB4015287FBF
:1012C000002803D03846FFF794FE30B1204600F0E6
:1012D00089F820B11120BDE8F0871020FBE785F8E0
:1012E0001680AF604FF00008A5F81480207906EB57
:1012F0004015287F48B300264FF49079494620686E
:1013000000F0F4F84FF4AC7A5146206800F0EEF8A3
:101310002068AA7DA968C0F84415C0F8482520684F
:1013200001218160686870B94946206800F0D9F8E9
:1013300007465146206800F0D4F80743F4D000B1C6
:101340000F2685F816803046C5E72046BDE8F047F1
:1013500000F002B8940000202DE9F047054620492E
:10136000287901EB40144FF000084FF48E7739468E
:10137000286800F0AAF828684FF00109C0F8089022
:101380002146286800F026F9606830BB4FF480766B
:101390000EE03946286800F093F810B9A08AB042F0
:1013A000F7D1A08AB04203D02146286800F012F994
:1013B000A08AA17D8842ECD3A08AB04202D14FF02E
:1013C0000F0808E03946286800F07AF80028F9D0BC
:1013D0002868C0F80C900020A0754046BDE8F08752
:1013E000940000200079044901EB4010807D002822
:1013F00000D00120704700009400002070B5DDE9A6
:1014000004654FF0A04441EA420141EA830141EA08
:10141000062104EB800041EA0541C0F8001770BDC9
:101420001CB500220B46009211460192FFF7E6FF21
:101430001CBD1CB5002100910B46012201911146F3
:10144000FFF7DCFF1CBD4FF0A04202EB800000F56F
:10145000E060026822F440320260026842EA014120
:10146000016070474FF0A0420121814002F5A16266
:101470001160704718B5074B1B6800936B46441802
:1014800005E053F82010D1F8101502C2401C844228
:10149000F7D818BDF018000008B50349084400212A
:1014A00001600068009008BD0060004003490844E6
:1014B0000068012800D00020704700000060004054
:1014C0004058002800D00120704708B50022425043
:1014D0004058009008BDD0F80403084000D0012017
:1014E00070474058002800D00120704708B50022FE
:1014F00042504058009008BD70B505460C464FF468
:101500008471E07D00280BD02846FFF7DEFFD5F878
:101510001805627EE1688854607E401C607670BD6C
:101520002846FFF7D2FFD5F8180570BD1FB5012377
:101530008DF800308DF80810019206C86846904773
:101540001FBD10B504464FF492712068FFF7BDFF30
:101550004FF484712068FFF7B8FF20680121016013
:1015600010BD38B5D0F81825009291F820200B7ED8
:101570009A4203D29DF800304C69A35411F8202FF1
:10158000521CD2B20A701346521C4C7820396407A0
:1015900007D50C7C944200D90A740C7E944200D981
:1015A0000A760C7C944205D9C968895CC0F81C1580
:1015B000012038BD0D7E954204D9C97FC0F81C15A5
:1015C000012038BDA34201D3AB4201D2012038BD76
:1015D000002038BD70B505460C464FF48E71284684
:1015E000FFF773FFA18AA068415CA28A521CA28205
:1015F000C5F81C1570BD1FB500228DF800208DF8B0
:10160000081081680191827506C8684690471FBD21
:101610007CB50178274C002938D001290ED0022949
:101620000BD18DF80010C0680190611C0122C81D0B
:10163000FFF71EFD6168684688477CBD40680178F9
:101640001D48FFF748F91C4D012630B18DF80060A8
:10165000019061686846884709E0A868E968081A47
:1016600028B100208DF80000616868468847A868A6
:10167000E968081AA988884206D80E490122491C3F
:10168000C81DFFF7F5FC7CBDA6707CBD0A48094962
:101690001030FFF703F930B103208DF800006168C6
:1016A000684688477CBD0349012201F10800FFF725
:1016B000FDFD7CBD00000020C80000202DE9FF4793
:1016C00005460C464FF400712846FFF704FF01273A
:1016D0004FF40178002618B34FF492794946284612
:1016E000FFF7EEFEE0B149462846FFF7EEFEC5F8EB
:1016F0000883A07E00B96F6002208DF80000D5F845
:101700008004C5F880040390E07D8DF80800E0684F
:101710000190E6752676D4E90012684690472AE0E3
:1017200004212846FFF7D7FE28B34FF484712846DA
:10173000FFF7C6FEF8B121462846FFF7DDFEE07D43
:10174000617E884217D1207E50B1E268617EE075EB
:101750002069E060267666762046FFF7E7FE0AE01D
:10176000A07E00B96F60C5F80883E675617EE26807
:101770002046FFF7DBFE4FF48E7841462846FFF700
:101780009FFE88B1A08AA17D884204D221462846C6
:10179000FFF720FF08E041462846FFF796FEA17DAF
:1017A00011B12046FFF727FF4FF4A27841462846A3
:1017B000FFF786FE002812D041462846FFF785FE37
:1017C000A07E00B12F60E07D002808D0E675617E24
:1017D000E26804B02046BDE8F047FFF7A7BEBDE8C9
:1017E000FF872DE9FF4105460C464FF492773946B5
:1017F0002846FFF776FE0026C0B139462846FFF797
:1018000075FE02208DF80000D5F88004C5F880042C
:101810000390D5F83C058DF80800E0680190E67566
:101820002676D4E900126846904727E04FF488777F
:1018300039462846FFF755FE00B339462846FFF7DC
:1018400055FED5F83C05C1B2E07D884216D1207E18
:1018500078B1E268D5F8000220F02000C5F8000257
:10186000207EE0752069E06026762046FFF75EFE68
:1018700004E0E6752046E268FFF758FE4FF4A277D1
:1018800039462846FFF72DFE68B139462846FFF74E
:101890002DFEE07D38B1E675D5F83C05E268C1B2B1
:1018A0002046FFF743FE4FF4907631462846FFF777
:1018B00018FE00280FD031462846FFF717FEA07DFE
:1018C000002808D0D5F84C0504B0C1B22046BDE8C8
:1018D000F041FFF790BEBDE8FF8170470078022815
:1018E00003D0012803D1FFF7F8BFFFF7F6BF704719
:1018F00000000050FFFFFFFFFFFFFFFFFFFFFFFFA4
:10190000FFFFFFFF00000000000000000000D60104
:10191000070100000B00000005000000FFFFFFFFB3
:10192000FFFFFFFF000000000000D6014C1900007F
:1019300000000020180000002807000064190000C3
:1019400018000020F022000038070000000000000E
:101950000000000000200040000000000000000027
:041960000090D00320
:0400000500000201F4
:00000001FF
