:020000040000FA
:10000000E04C0020C1030000C9030000CB03000046
:10001000CD030000CF030000D1030000000000006A
:10002000000000000000000000000000910200003D
:10003000D50300000000000049030000AD030000EC
:1000400089060000DB03000015090000DB03000047
:10005000E1060000DB030000DD040000DB0300001C
:10006000DB030000DB030000DB030000DB03000018
:10007000DB030000DB030000DB030000DB03000008
:10008000DB030000DB030000DB030000DB030000F8
:10009000DB030000DB030000DB030000DB030000E8
:1000A000DB030000DB030000DB030000DB030000D8
:1000B000DB030000DB030000000000000000000084
:1000C000DB030000DB030000DB030000DB030000B8
:1000D000DB030000DB030000DB0300000000000086
:1000E0000000000000000000000000000000000010
:1000F0000000000000000000000000000000000000
:1001000000000000000000000000000000000000EF
:1001100000000000000000000000000000000000DF
:1001200000000000000000000000000000000000CF
:1001300000000000000000000000000000000000BF
:1001400000000000000000000000000000000000AF
:10015000000000000000000000000000000000009F
:10016000000000000000000000000000000000008F
:10017000000000000000000000000000000000007F
:10018000000000000000000000000000000000006F
:10019000000000000000000000000000000000005F
:1001A000000000000000000000000000000000004F
:1001B000000000000000000000000000000000003F
:1001C000000000000000000000000000000000002F
:1001D000000000000000000000000000000000001F
:1001E000000000000000000000000000000000000F
:1001F00000000000000000000000000000000000FF
:10020000DFF820D000F056F9AFF3008002F06EF96D
:100210000021034802F0BEF902F07AF9FEE700007F
:1002200044000020E04C002080F309887047EFF381
:1002300009807047684680F3098804480078C00741
:1002400014BF0220032080F314887047983E0000FA
:10025000DFF818C0EFF305831B0618BF6047EFF304
:100260001483DB0708BF604700DF70476D2900007B
:10027000DFF818C0EFF305831B0618BF6047EFF3E4
:100280001483DB0708BF604700DF7047512B000075
:10029000EFF30980816911F8021CE1BB90E80F10AF
:1002A00010B5E047BDE81040EFF3098C8CE807007B
:1002B000214B93E80600914208BF704741B91EF0F8
:1002C000100F16D11D49086820F00100086010E0E9
:1002D0001EF0100F06BF2CED108A0120002081F8BF
:1002E00025002CE9F00FC1F828C00CB402F032FF51
:1002F0000CBC1A60D2F828C0BCE8F00F92F82500B8
:1003000000280EBF6FF0020E6FF0120EBCEC108AC8
:100310008CF30988704710B5094A1268914209D8D0
:10032000084C54F8214090E80F10A047EFF3098CD7
:100330008CE80F0010BD00006800002034EF00E0E2
:10034000D8040000D804000010B502F0C7FDBDE8D5
:100350001040154B93E80600914208BF7047EFF339
:10036000098C1EF0100F06BF2CED108A0120002012
:1003700081F825002CE9F00FC1F828C00CB402F078
:10038000E9FE0CBC1A60D2F828C0BCE8F00F92F865
:10039000250000280EBF6FF0020E6FF0120EBCECAD
:1003A000108A8CF3098870476800002010B502F0AD
:1003B00099FFCCE710B502F04FF902F093FFC6E7C2
:1003C0000648804706480047FEE7FEE7FEE7FEE7EF
:1003D000FEE7FEE7FEE7FEE7FEE7FEE701070000B7
:1003E00001020000421E062A02D36FF0010070478E
:1003F0000B4B53F8220043F82210704710B5421EF1
:10040000062A02D34FF0FF3010BD054951F82210E3
:10041000CA1C02D04A1C00D08847002010BD000032
:10042000C40C002040EA01039B0703D009E008C97F
:10043000121F08C0042AFAD203E011F8013B00F8A9
:10044000013B521EF9D27047D2B201E000F8012BF5
:10045000491EFBD270470022F6E710B513460A4644
:1004600004461946FFF7F0FF204610BD10B50022E4
:1004700000E0521C835C8C5CA34201D1002BF8D1BC
:10048000D8B2E1B2401A10BD30B50B46014600208B
:100490002022012409E021FA02F59D4205D303FA46
:1004A00002F5491B04FA02F52844151EA2F10102C7
:1004B000F1DC30BD064C074D06E0E06840F001037A
:1004C00094E8070098471034AC42F6D3FFF79CFE3F
:1004D000D83E0000F83E0000000000002DE9FF5F5C
:1004E0000025A846CDF80C804FF480790124002621
:1004F000634F484601F0C8FF38B1D7F804032040E5
:1005000018B1484601F0B6FF2543640009F104091B
:100510001FFA89F9761C082EEBD34FF4BE742046DF
:1005200001F0B2FF48B1204601F0A4FF45F00045BC
:1005300003AA0121002001F08BFFDFF8489115F09C
:10054000FF0F15D0012600242E420DD007EB8401A9
:10055000D1F81005C0F30420D1F81015C1F3014102
:1005600059F8242002B190477600641C082CEBD384
:10057000002D73DACDF808800020411E0DF104082B
:1005800048F82010401C0028FAD00024002509EB70
:10059000050010F8506F26F0C00B90F90000401CC9
:1005A0003FD001A9584601F031FBD0B3B6095846F7
:1005B00000F030FD59F820700FB9032E31D1032E11
:1005C0000CD102A84FEADB010BF00702435C4FF0AD
:1005D000010C0CFA02FC43EA0C0343544FF0A04018
:1005E00000EB8B00D0F80007C0F3014A03A958467E
:1005F00001F00CFB10B1BAF1020F03D088B9BAF1C7
:10060000030F0ED1032E08D1BAF1020F1ED0022122
:10061000584601F006FF641CE4B217B13146584653
:10062000B8476D1C042DB2D334B301256A460121AD
:10063000002001F00DFF002003A96A4651F8206058
:1006400052F82030B34203D0002504E00321DFE755
:10065000401C0028F2D015B100240DE00EE000206F
:1006600002AB52F8205041F8205053F8205048F87F
:100670002050401C0028F4D0002C86D1BDE8FF9FFC
:1006800000600040900000202DE9F0414FF4807799
:10069000384601F0C3FA0124104EA50748B1384688
:1006A00001F0C3FA0120C5F808037470002000F0BF
:1006B000B9FC4FF48277384601F0B0FA00280BD02D
:1006C000384601F0B2FA0220C5F80803B470BDE85C
:1006D000F041012000F0A6BCBDE8F0812C01002013
:1006E00002494FF0402001F0BFB90000E8000020AF
:1006F00002490148086070470090D0035C00002068
:1007000070B500F07BFF4FF0805528B1B5F8240399
:100710007249C0F30420086000F0ACFF10B17149C9
:100720006F48486700F0BCFF28B1D5F844026E4915
:10073000C0F34230086000F0D1FF20B16B4801687F
:1007400021F08071016000F0DFFF002428B16848CB
:10075000046044606448001F046000F0F3FF18B1B7
:10076000614903206431086001F002F8012658B1A4
:100770006049052008605F48783006605D480830B1
:100780000460091D3F20086001F008F8F0B35A48E2
:1007900000685A4908605848001D0068091D086033
:1007A000554808300068091D086053480C3000683F
:1007B000091D0860504810300068091D08604E4847
:1007C00014300068091D08604B48183000684B4918
:1007D0002031086048481C300068091D0860464800
:1007E00020300068091D0860434824300068091D56
:1007F0000860414828300068091D08603E482C30D8
:100800000068091D08603C48303000E017E00068CF
:100810003A4940310860384834300068091D0860A2
:10082000354838300068091D086033483C3000689E
:10083000091D0860304840300068091D086000F05C
:10084000BFFE28B1D5F858022D4900F04F000860CE
:1008500000F0F2FE30B12B480168C90702D06FF0FA
:100860000101016021487438016841F470010160A0
:10087000BFF34F8FBFF36F8F4FF01022D2F80002FB
:10088000002803DBD2F80402002822DA1E4B1E6087
:100890001E4801680029FCD01525C2F800520168E5
:1008A0000029FCD0C2F8045201680029FCD01C6069
:1008B00001680029FCD0BFF34F8F0C48F038016865
:1008C000134A01F4E06111430160BFF34F8F00BF91
:1008D000FDE7BDE87040FFF70BBF00004035014069
:1008E0000DF0ADBA00C007403C050040FCED00E053
:1008F0000C010040105600400404001020C50040C8
:10090000E40E00400004004004E5014000E4014022
:100910000400FA050548017F0548002902D0034973
:1009200003F05DB9014903F0C7B800000C010020D5
:10093000002000400FB4054B10B503A9044A0298EB
:1009400000F008F910BC5DF814FB0000111800005D
:100950003400002002E008C8121F08C1002AFAD1A2
:1009600070477047002001E001C1121F002AFBD12F
:10097000704710B5002202212C2000F0F7FD022262
:10098000BDE8104011462C2000F0F0BD10B5044623
:100990006D2240F606012E2000F0E8FD41F606012A
:1009A00034B1BDE8104040F207622E2000F0C2BD15
:1009B000BDE8104041F207622E2000F0BBBD10B52B
:1009C000002000F007F800220421BDE81040362086
:1009D00000F0B0BD38B504466B4602220021362037
:1009E00000F015FD0F2C5CD2DFE804F012081A5B52
:1009F0005B5B5B22315B5B3E454C550000208DF814
:100A000000009DF8010000F0FE008DF8010048E0B4
:100A10009DF8000000F0FC00401C8DF8000040E054
:100A20009DF8000000F0FC00801C8DF8000038E00C
:100A30009DF8000000F0B30040F048008DF8000081
:100A40009DF8010040F080008DF8010029E09DF83C
:100A5000000000F0B3008DF800009DF8010000F0E8
:100A60007F008DF801001CE09DF8010040F00200BD
:100A70008DF8010015E09DF8010000F0FD008DF8F3
:100A800001000EE09DF8000000F0CF0040F02000D3
:100A90008DF8000005E001208DF8000003208DF89E
:100AA00001006B4601220021362000F067FD012283
:100AB0000DF101031146362000F060FD38BD10B580
:100AC0000E20FFF787FF4FF4004206212D2000F093
:100AD00031FD012000F0EAFABDE810400120FFF7E7
:100AE00079BF10B582B204212D2000F023FD03222E
:100AF00006212D2000F03AFD002206212D2000F0D5
:100B000035FD0A21BDE810402D2000F060BC10B575
:100B1000002A06DA22F00042D21D22F0070310223A
:100B200003E0D21C22F003030C2213B19C188C4268
:100B300001D9012010BD024401448360C0E90021B5
:100B4000C91AD018884202D810600246F9E700207E
:100B5000106010BD2DE9FF4F8BB09A460F46054639
:100B6000002606E025280BD052460D9990476D1CB3
:100B7000761C28780028F5D10FB03046BDE8F08FFC
:100B80000024A0460122604900E0044315F8013F1B
:100B9000203B02FA03F00842F7D128782E2817D11B
:100BA00015F8010F44F004042A280ED06FF02F022C
:100BB0002878A0F1300109290AD808EB880102EB56
:100BC000410100EB01086D1CF2E757F8048B6D1C26
:100BD000287869283ED006DC0028CDD063280BD0C9
:100BE000642804D136E0732810D075284BD05246C3
:100BF0000D999047761C85E017F8040B8DF80000DE
:100C000000208DF80100E946012003E057F8049B1D
:100C10004FF0FF3061074FF0000401D40AE0641C7C
:100C200044450DDA8442FADB19F804100029F6D1A4
:100C300006E0641C8442FCDB19F804100029F8D19A
:100C4000264404E019F8010B52460D999047641EA2
:100C5000F8D257E001CF4FF00A0B002802DA4042E9
:100C60002D2102E0210504D52B218DF8241001212E
:100C700003E0E10705D02021F7E70DF120090891F5
:100C80000CE00021F9E701CF4FF00A0BF9E75946D4
:100C9000FFF7FAFB01F1300209F8012D0028F6D127
:100CA000ADEB090000F1200B600701D44FF0010803
:100CB000D84502DDA8EB0B0000E0002080460024B0
:100CC00006E009A85246005D0D999047641C761C09
:100CD00008988442F5DB04E0302052460D99904795
:100CE000761CB8F10001A8F10108F5DC05E019F85F
:100CF000010B52460D999047761CBBF10001ABF1F8
:100D0000010BF4DC6D1C34E7092801000948006878
:100D1000C00700D000BEBFF34F8F0648E43801681B
:100D2000054A01F4E06111430160BFF34F8F00BF3A
:100D3000FDE70000F0ED00E00400FA050EB500212B
:100D40000091019102906A4644F20100FFF7DEFF34
:100D50000EBD10B58268C3689A1A002A03D000F04D
:100D600033FD002010BD052010BD002905D012B1B3
:100D7000531E134203D0092070470E2070470160B4
:100D8000838000218160C1600020704710B58268B7
:100D9000C3689A1A83889A4203D800F01FFD002086
:100DA00010BD042010BD000070B50A4EB478014695
:100DB0000948FFF7CEFF05464CB10020B070711C0A
:100DC0000122C81D01F0F0F808B1FFF7B7FF28466F
:100DD00070BD00002400002040010020F0B589B063
:100DE00004460D461F46294E7260002D1BD0A88870
:100DF000296882B22648FFF7B8FF002814D1A889D5
:100E0000A96882B222481030FFF7AFFF00280BD14B
:100E10002022204901A8FFF705FB60690790207C8C
:100E200020B1012003E0072009B0F0BD00208DF8BB
:100E300018008DF82070607C08B10E2000E00020C2
:100E40008DF81900E0680390A06804902068029073
:100E5000606801900D48104A01A9083001F06EF851
:100E60000028E1D1B0702068401C0DD09DF8210011
:100E700018B90648083001F0F3F804490122491C6A
:100E8000C81D01F091F8CFE70020CDE72400002035
:100E900040010020783D00000D3A000010B50146E9
:100EA0000B48FFF773FF044684B90A4801F036FA8D
:100EB00060B9084906480839FFF74BFF30B90549C2
:100EC00001220839034801F08DF90446204610BD7F
:100ED000500100202C0000202DE9F04105460C4671
:100EE0004FF0A04720684FF00106411C06D006FADB
:100EF00000F1C7F80815206801F089FA6068411C04
:100F000002D0002101F070FA28792E4901EB40103F
:100F1000007F58B32968A069C1F82405617D227D4E
:100F200028681143C0F86C15D4E900122868C0F88D
:100F30000C15C0F81425207D012815D1A068411C8E
:100F400002D0002101F050FAE068411C05D0864033
:100F5000C7F80865E06801F05AFAD4E90221286868
:100F6000C0F80815C0F81025BDE8F0812868A1690F
:100F7000C0F82415607D217D2A680843C2F86C05FD
:100F8000D4E900122868C0F81425C0F80C15207D9B
:100F90000128E9D1A068411C02D0002101F024FA07
:100FA000E068411C05D08640C7F80865E06801F09C
:100FB0002EFAD4E902212868C0F80815C0F81025D7
:100FC000D2E700000C0100201FB50B480090202044
:100FD00001900948203002904FF4007003900723DD
:100FE000064A69460648FFF7F9FE10B1002004B032
:100FF00010BD0120FBE7000098010020D93C000053
:10100000703E000010B50024FFF7CEFE00B90124A9
:10101000204610BD0249084490F930007047000096
:101020009000002070B50546002D01D0064C05E06B
:10103000054C083C02E0416828468847204600F0FD
:1010400081FD0028F7D170BD3C01002008480068F0
:10105000C0010BD507480068C00707D00548803895
:101060000068002802DA0449012008707047000077
:10107000FCED00E0800E00E07C0000204FF06042BC
:10108000D36F002BFCD0036BD367D36F002BFCD046
:10109000C07840EA0120A2F87C0070474FF0604120
:1010A000CA6F002AFCD081F87C00704700F0C5BDF3
:1010B0002DE9F05F04464FF00008C14625786079BD
:1010C000774931F810706078401EC6B2042D76D092
:1010D000072D74D0C246DFF8CCB1E279DBF800000E
:1010E000002A41696ED021F480014161217A0172A8
:1010F000416921F440324261217A4FF4403303EADE
:1011000001410A4342610021042000F020FA3A46DE
:1011100042F604012E2000F00DFA3046FFF736FCAF
:10112000614F6249785D51F8202007212B2000F0A3
:101130000EFA785D5E490A5C0B212B2000F016FA4E
:101140005C480B2110F80A20282000F00FFA785D87
:10115000594951F820200C21282000F0F8F9E079B5
:10116000564901EB8000A17930F811200221272097
:1011700000F0E0F95248042130F81620272000F052
:10118000D9F9E07918B3A078042826D020220621C6
:10119000272000F0CFF928222621272000F0E6F9A9
:1011A0004848E17800EB061050F82120082127205C
:1011B00000F0CDF96089D8B11DE000E002E04FF009
:1011C000010A88E741F480014161FF088EE764224B
:1011D0000621272000F0AEF9E2E7102206212720A1
:1011E00000F0A8F910222621272000F0BFF9D7E748
:1011F00041F24100608162892021272000F09AF9A4
:10120000314F0C2123203A6800F0A1F907EB46008A
:1012100004218288232000F08DF9A07950B1E07973
:101220002A490A5C0021212000F0A0F94FF00308B0
:101230004FF0010905F00F00290740EA11606178BD
:101240004FF4402202EA81410843910001EA08512B
:1012500008434FF4003101EA4941084321794FF036
:10126000F86202EA81510843617940EAC1620021D3
:101270001F2000F06CF9A07861780843E179000440
:1012800040EA4132DBF80000C2600021082000F093
:101290005EF9BDE8F05F422200210D2000F066B942
:1012A000143E000038000020983D0000B83D0000CA
:1012B000D03D0000D63D0000A03D0000E43D000010
:1012C000F03D0000F43D0000D83D0000E03D00008E
:1012D00070B50646344D002229684A748A760A831E
:1012E0008A62CA620A634A6300F08DF82F49884215
:1012F00001D0881770BD00F0F9F80020FFF76AFBF5
:1013000004220021242000F031F91E20FFF7E9FB20
:1013100084B22968200A48720420FFF7E2FB10F02B
:10132000FF0F09D0022212212D2000F01FF928689A
:10133000018B41F4805101830620FFF7D2FB29681D
:1013400008600720FFF7CDFB2968486004F01F0004
:10135000087408B910200874087C00F0BEF8F00783
:1013600007D0FFF7ACFB2868018B41F400610183D3
:1013700009E00521362000F01BF820F40072052159
:10138000362000F0D7F80120FFF724FB00220A21C5
:101390002C2000F0EBF80021042000F018F8296858
:1013A0004861002070BD0000380000203001CADE16
:1013B00008B589B280B26B46022200F028F89DF889
:1013C00000009DF8011000EB012080B208BD38B587
:1013D000002489B280B26B46042200F018F8032181
:1013E0006846425C02EB0424491E0029F9DA2046D3
:1013F00038BD08B589B280B26B46012200F007F80B
:101400009DF8000008BD00210846FFF7E0BF08B5C1
:1014100000290AD040F040008DF80000C8B27F29B2
:1014200007D802218DF801000BE001218DF80000A2
:1014300007E040F080008DF80100C80903218DF815
:10144000020088B2694601F0D9F908BD10B504461A
:1014500000211A20FFF7BBFF6FF31300C4F3130240
:1014600002430021BDE810401A2000F070B8024687
:1014700041F604012E2000F05DB8000070B506466C
:1014800003210420FFF7B5FF0446104D8EB132460C
:1014900000210C2000F04EF844F010022868416949
:1014A00041F080514161BDE870400321042000F00B
:1014B0005DB824F010022868416921F08051416133
:1014C000BDE870400321042000F050B8380000202F
:1014D00002460021182000F02DB800F01F0040F057
:1014E00060020E212B2000F041B8000010B5FFF77C
:1014F00066FA002211462C2000F01CF8002206217A
:101500002C2000F033F8FFF734FA002203213620B4
:1015100000F02CF80120FFF7C9FDF022032136204E
:1015200000F024F8024900200968887610BD000008
:101530003800002008B58DF80020120A8DF801202F
:1015400089B280B26B46022200F018F808BD38B5A7
:1015500000236C46E254120A5B1C042BFADB89B2AE
:1015600080B26B46042200F009F838BD07B589B295
:1015700080B202AB012200F001F80EBD38B500299F
:101580000AD040F0C0008DF80000CCB27F2909D805
:1015900002208DF801400DE040F0800101208DF81F
:1015A000001007E044F080008DF80100C909032015
:1015B0008DF8021080B2694602F098FB38BD000039
:1015C0000D48007806280FD10B48001D0078000751
:1015D0000AD1094808300078C0F30310032805D069
:1015E000042805D0052805D0002070470120704749
:1015F0000120704701207047E00F00F00D4800788F
:1016000006280FD10B48001D007800070AD10948B1
:1016100008300078C0F30310032805D0042805D053
:10162000052805D000207047012070470120704731
:1016300001207047E00F00F00D48007806280FD118
:101640000B48001D007800070AD1094808300078CF
:10165000C0F30310032805D0042805D0052805D0C1
:10166000002070470120704701207047012070471B
:10167000E00F00F00948007806280BD10748001D4C
:101680000078000706D1054808300078C0F3031041
:10169000032801D00020704701207047E00F00F0C0
:1016A0000D48007806280FD10B48001D0078000770
:1016B0000AD1094808300078C0F30310032805D088
:1016C000042805D0052805D0002070470120704768
:1016D0000120704701207047E00F00F009480078B2
:1016E00006280BD10748001D0078000706D10548E1
:1016F00008300078C0F30310032801D000207047A1
:1017000001207047E00F00F00D48007806280FD147
:101710000B48001D007800070AD1094808300078FE
:10172000C0F30310032805D0042805D0052805D0F0
:10173000002070470120704701207047012070474A
:10174000E00F00F00948007806280BD10748001D7B
:101750000078000706D1054808300078C0F3031070
:10176000032801D00020704701207047E00F00F0EF
:101770000948007806280BD10748001D00780007AB
:1017800006D1054808300078C0F30310032801D0C3
:101790000020704701207047E00F00F009480078F2
:1017A00006280BD10748001D0078000706D1054820
:1017B00008300078C0F30310052801D000207047DE
:1017C00001207047E00F00F0826883881A400368A8
:1017D0009A5C0A708168491C81607047C26883887E
:1017E0001A4003689954C168491CC160704710B51C
:1017F0000446A07FFF2801D000F022FE0020607781
:101800002072D4E9002104F10800BDE8104010471F
:1018100010B50446E0B2FFF741FB204610BD0000C2
:1018200010B5002821D0114B0022001F196803E0D9
:10183000814203D80A4649680029F9D152B1136898
:10184000841A9C4204D1006818441060104602E0DB
:10185000506000E0186039B102680B1A934203D15E
:101860000B681A4402604968416010BD880000207E
:1018700010B510A0FFF75EF8002411490968B9B14E
:10188000012902D0022913D109E00EA0FFF752F876
:10189000002000F04FF80DA0FFF74CF808E00EA074
:1018A000FFF748F8002001F00DF80DA0FFF742F80F
:1018B000204610BD48616E646C65640D0A0000002E
:1018C00000000020696E69740D0A0000696E697479
:1018D00020646F6E650D0A00726573700D0A00005A
:1018E0007265737020646F6E650D0A0001460148D1
:1018F00000F050BE643D000010B509A0FFF71AF8D3
:101900000B4C2068002809D0606800F067FE0020BA
:101910002060BDE81040642000F0DCBD10BD000078
:101920007369676E616C207261697365640D0A008A
:10193000000000207CB500240126002516FA04F0E2
:1019400007D520460122009500231146019500F09D
:10195000F1FC641C202CF1D319494FF000400860C1
:10196000081F2B46056013200022009311460193A7
:1019700000F0E0FC00F084FF00F090FE0120FFF793
:10198000A7FC401C1BD000F069FE0E48FFF790FB3F
:1019900044F24800FFF76BFD43F6AC70FFF798FD8B
:1019A0006420FFF753FD4FF6E850FFF767FD06A0F0
:1019B000FEF7C0FFBDE87C40642000F08BBDFEE771
:1019C0000C0500500C000020656E64656420696E93
:1019D0006974206D61696E0D0A00000070B50446DF
:1019E0000D4620791D494FF4A27601EB4010017F8E
:1019F000206800291DD04FF4887100F065FD4FF478
:101A00009071206800F060FD4FF49271206800F042
:101A10005BFD3146206800F057FD11492068C0F891
:101A20000413206800F070F92946BDE8704000F00A
:101A30004FB94FF48E7100F036FD3146206800F04A
:101A400032FD08492068C0F80413206800F05CF9F2
:101A50002946BDE8704000F03BB900000C010020B1
:101A6000100302008000020038B50C460022C0F8C6
:101A70000821D0F808110091214601F06FFF0028DD
:101A800004D12046BDE83840FFF7B1BE38BD0EB5E1
:101A9000802200B109B110460AE001780129FAD18B
:101AA00001A900F01FF8042801D0002000E0102058
:101AB000DDE9011203B000BD70B50D46040003D08E
:101AC00012B92078012801D0802070BD204601F095
:101AD000FFF828B12946204600F02DF8002070BDFF
:101AE000812070BD10B504468089002822D060890D
:101AF00004EB8000006908606078022805D10021AD
:101B0000204601F039FA01F027FA04F10C0000BF79
:101B1000D0E85F1F491E8AB2C0E8512F0029F7D1D3
:101B20006089401C80B26081E189884201D1002037
:101B30006081042010BD10B501F01EFABDE8104010
:101B400001F00ABA01460868002801D002680A605C
:101B5000704700000B490420FEF744FC00F0C6FC6F
:101B6000FFF732FA08A0FEF7E5FE042000F018F8AF
:101B700001210160FFF7BAFE0849886000F0C8FC47
:101B8000FEE70000F91800005377617020526F6C77
:101B900065204578616D706C650D0A0000000020BD
:101BA000F0B50B30154D20F007010024144A0FE06A
:101BB00003688B420BD38B4205D95E1A43184768E2
:101BC000C3E9006700E04368136002C004E0021D3F
:101BD00010680028ECD12046002802D1286808B1FE
:101BE0000020F0BD064A07481060074A121A22F08A
:101BF0000702C0E9002401202860D7E78C000020FC
:101C000088000020E40C0020E02C0020C20800F036
:101C100007030120895C98400840704700F180402C
:101C20000068002800D00120704708B500F180400E
:101C3000002101600068009008BD4FF47A714843AC
:101C4000AFF3008000283ED01F4A2049126800BF31
:101C500000BF00BF00BF00BF00BF00BF00BF8A427F
:101C60002FD000BF00BF00BF00BF00BF00BF00BF3C
:101C700000BF00BF00BF00BF00BF00BF00BF00BF6C
:101C800000BF00BF00BF00BF00BF00BF00BF00BF5C
:101C900000BF00BF00BF00BF00BF00BF00BF00BF4C
:101CA00000BF00BF00BF00BF00BF00BF00BF00BF3C
:101CB00000BF00BF00BF00BF00BF00BF00BF00BF2C
:101CC00000BF0138C3D170475C0000200024F4003D
:101CD0004907090E002806DA00F00F0202F1E0229F
:101CE00082F8141D03E000F1E02282F8001400F0F5
:101CF0001F02012191404009800000F1E020C0F85E
:101D00008012C0F800117047000B40B270470121EB
:101D1000B1EB507F01D101207047002070470000D7
:101D20002DE9FC5F06460C46707900EBC00148487F
:101D300000EB8105287F002802D00820BDE8FC9F29
:101D40002A606B60207B4FF0A04B4FF00108012808
:101D500005D8217808FA01F0CBF80C0502E02078CC
:101D600000F06EFB4FF00009CDF80090CDF8049024
:101D700020784B464A46012100F000FB67784FF07F
:101D8000FF3AFF2F07D008FA07F0CBF80C053846CA
:101D900000F033FB00E05746A078FF280AD08246C7
:101DA000504601230022CDF800901146CDF8049052
:101DB00000F0E4FAE078FF2804D000F041FBE0787E
:101DC00000F01BFB7079224B00EBC00003EB80009E
:101DD000E178817731682078C1F80805C1F80C7581
:101DE000C1F810A5A068C1F82405207B627B0AB168
:101DF000012200E00022012804D0022805D0032897
:101E000008D105E042F0020204E042F0040201E0E1
:101E100042F00602C1F854257079627900EBC000E7
:101E200003EB8000C277286810B10420C1F80403D6
:101E3000C1F80085286820B1217996F90400FFF7E0
:101E400047FF484685F81D9085F81C8076E700001E
:101E5000E80000201FB5069C009102938DF8042035
:101E60008DF80C400022694600F026F804B010BD41
:101E700010B541790F4A01EBC10102EB81010A68FB
:101E8000002A0BD090F90420012302F01F04A34084
:101E90005209920002F1E022C2F8803100680A681B
:101EA0001AB14FF0FF32C0F808230022C0F8002515
:101EB0000A7710BDE80000202DE9F04106460B46E8
:101EC000174670791C4900EBC00001EB800100252A
:101ED000487F002802D01120BDE8F0810868012465
:101EE00018B117F0140F00D14C7793E80510D3F810
:101EF0000C80C1E905C8C1E9030291F8210020F076
:101F0000010020F0020020F0040081F821008A7F07
:101F1000FF2A05D04FF0A040944000F20C5004601E
:101F20001FB100204877062503E01A46306801F00B
:101F3000A1FB2846D0E70000E80000202DE9F04191
:101F400005460E4617462879DFF8588008EB4014FE
:101F5000E07E002802D00820BDE8F081707F207765
:101F600031462846FEF7B8FF6760306920601FB130
:101F7000317F2846FFF732FD287908EB4010007FBB
:101F800020B128680821C0F8001503E02868042162
:101F9000C0F800150020E0752076A0750121E176DB
:101FA000A076D9E70C0100202DE9F04105460F4647
:101FB00090462879294E06EB4014207F002803D054
:101FC0003846FFF7A4FE78B1002360684FF404712F
:101FD0004FF4017270B1287906EB4010007F30B1E8
:101FE0002868C0F8081305E01020BDE8F0812868D3
:101FF000C0F80823E07D90B1207E78B1606858B1C8
:10200000287906EB4010007F18B12868C0F8041347
:1020100002E02868C0F804231120E6E7012373B129
:10202000276184F81880287906EB4010007F68B19A
:10203000424639462846BDE8F04100F07DB884F8B4
:102040001780E760002060762076ECE7424639464C
:102050002846BDE8F04100F01BB800000C0100204C
:1020600070B50446094D207905EB4011087F002822
:102070000AD1887E002807D1204601F0E4FA2179B0
:10208000012005EB4111887670BD00000C01002095
:102090002DE9F05F04462749207901EB4015A87E21
:1020A000002803D113B9204601F0CDFA686838B191
:1020B00020684FF40171C0F804130020BDE8F09FC0
:1020C0004FF4A2794946206800F0EDF94FF4927A76
:1020D0004FF4847B5146206800F0E0F907465946EA
:1020E000206800F0DBF980464946206800F0D6F908
:1020F000064648EA060858EA0708EBD057EA060001
:1021000007D12946206801F079FAE87D697E884286
:10211000E0D80020E8750FB10320CFE70EB10F2003
:10212000CCE7A87E012110B120680160C5E72068D6
:102130004160C2E70C0100202DE9F05F04460E4625
:102140001746984600254FF488794946206800F0E4
:10215000BBF94FF4A27A5146206800F0B5F9206827
:10216000C0F83465C0F83875B8F1000F15D0206894
:10217000D0F8001241F02001C0F800122079DFF8F9
:10218000608008EB4010406858B120684FF404713B
:10219000C0F804132846BDE8F09F206801210160C3
:1021A000ECE74FF4927B4946206800F088F9074637
:1021B0005146206800F083F906465946206800F031
:1021C0007EF937430743EED02279002108EB421213
:1021D000D17500B10325002EDCD00F25DAE7000011
:1021E0000C0100202DE9F04704460F469046207967
:1021F000264E06EB4015287F002803D03846FFF70F
:1022000086FD30B1204600F089F820B11120BDE8EC
:10221000F0871020FBE785F81680AF604FF00008CC
:10222000A5F81480207906EB4015287F48B30026D6
:102230004FF490794946206800F046F94FF4AC7AA3
:102240005146206800F040F92068AA7DA968C0F8CE
:102250004415C0F84825206801218160686870B97C
:102260004946206800F02BF907465146206800F0E7
:1022700026F90743F4D000B10F2685F816803046C2
:10228000C5E72046BDE8F04700F002B80C01002089
:102290002DE9F04705462049287901EB40144FF01D
:1022A00000084FF48E773946286800F0FCF828685B
:1022B0004FF00109C0F808902146286801F087FB1B
:1022C000606830BB4FF480760EE03946286800F035
:1022D000E5F810B9A08AB042F7D1A08AB04203D085
:1022E0002146286801F073FBA08AA17D8842ECD3C7
:1022F000A08AB04202D14FF00F0808E039462868A2
:1023000000F0CCF80028F9D02868C0F80C90002024
:10231000A0754046BDE8F0870C0100200079044913
:1023200001EB4010807D002800D0012070470000A4
:102330000C01002070B5DDE904654FF0A04441EACE
:10234000420141EA830141EA062104EB800041EAAF
:102350000541C0F8001770BD70B5DDE904654FF0A8
:10236000A04441EA420141EA830141EA062104EB2B
:10237000800041EA0541C0F8001770BD70B5DDE985
:1023800004654FF0A04441EA420141EA830141EA79
:10239000062104EB800041EA0541C0F8001770BD3A
:1023A00070B5DDE904654FF0A04441EA420141EA1D
:1023B000830141EA062104EB800041EA0541C0F8AF
:1023C000001770BD70B5DDE904654FF0A04441EA27
:1023D000420141EA830141EA062104EB800041EA1F
:1023E0000541C0F8001770BD1CB500220B460092D5
:1023F00011460192FFF7D4FF1CBD1CB500210091CE
:102400000B46012201911146FFF7B8FF1CBD1CB518
:10241000002100910B46012201911146FFF7C0FFF8
:102420001CBD4FF0A04202EB800000F5E0600268A6
:1024300022F440320260026842EA014101607047C2
:102440004FF0A0420121814002F5A1621160704766
:1024500018B5074B1B6800936B46441805E053F80A
:102460002010D1F8101502C2401C8442F7D818BDC4
:10247000743D000008B5034908440021016000686C
:10248000009008BD0060004003490844006801282E
:1024900000D0002070470000006000404058002835
:1024A00000D00120704708B50022425040580090EB
:1024B00008BDD0F80403084000D001207047405800
:1024C000002800D00120704708B500224250405833
:1024D000009008BDEFF3058109B182207047DFF855
:1024E00008C000DF70470000FB360000EFF30580F6
:1024F00008B182207047EFF31480C00703D0DFF8E3
:102500000CC000DF704701F001B900000D3700007A
:1025100088B0EFF3058010B1822008B07047EFF368
:10252000148010F00301134806D001291BD00229A2
:1025300011D0032919D113E008A981F30988007883
:10254000C0070BD05FF0020080F31488BFF34F8FF9
:10255000BFF36F8F09E00078C00706D10320F3E7CF
:102560000078C00701D0FF20D7E7DFF80CC000DFFC
:10257000D3E70000983E00007D370000EFF30582AE
:102580000AB1FFF784BADFF808C000DF7047000027
:10259000E9370000EFF305820AB100207047EFF33E
:1025A0001482064B02F001025B781A4303D0DFF875
:1025B00010C000DF704701F035B900006000002056
:1025C00025380000DFF80CC000DFDFF80CC000DFAA
:1025D000FEE7000095380000B1380000EFF30581F8
:1025E00009B182207047DFF808C000DF70470000A3
:1025F000B1380000DFF804C000DF7047E9380000A0
:10260000094C4FF0FF3529462068FFF7B7FF024617
:102610000846102AF7D1FFF7EDFF0028F3D0024655
:1026200008469047EFE7000058000020FEE7FEE76D
:10263000074801684FF0E0204161002181610721D6
:1026400001610448016841F07F4101604017704713
:10265000943E000020ED00E0704700001FB50D48DB
:10266000FFF706FC0B48D0E907238169406A8DE833
:102670000E00039011208DF803000023064A6946DE
:102680000448FFF74DFB08B1FEF758FB0220FFF7A7
:10269000D4FA1FBD483E0000693600001FB50C4843
:1026A000D0E90323816840698DE80E000390112072
:1026B0008DF803000023074A69460548FFF730FB01
:1026C00008B1FEF73BFB0220FFF7B7FA1FBD000081
:1026D000483E00006936000008B5002700974FF417
:1026E00080684046FFF75CFA05460024274E4FF409
:1026F00096796846FEF786FC9DF800100D290FD0EC
:1027000031B123A0FEF716F99DF800002855641C8E
:10271000009723A0FEF70EF94846FFF7DBFEE8E737
:10272000294625A0FEF706F92AA12846FDF79EFEB8
:1027300050B12AA12846FDF799FE80B129A128466B
:10274000FDF794FEB0B11BE001203060FFF790F878
:1027500026A0FEF7EFF86420FFF7BCFE10E0022091
:102760003060FFF785F821A0FEF7E4F86420FFF75A
:10277000B1FE05E00420FDF741FE6420FFF7AAFE4C
:1027800041462846FDF767FE0024C1E7000000200F
:102790005245434549564544203A2025630D0A00D9
:1027A0007374696C6C2072656164696E6720696E10
:1027B0007075740D0A000000454E44204F462054A9
:1027C00052414E534D495353494F4E203A202573A1
:1027D0000D0A0000494E4954000000005245535074
:1027E0000000000053544F50000000006B656570FE
:1027F00020676F696E670D0A000000002DE9F84F31
:1028000006460D4691469A4606EB09042046FFF718
:10281000C7F907462046FFF7C3F9804621463846E8
:10282000FDF719FE21464046FDF715FE32462946C2
:102830003846FDF7F7FDB8194946FDF70CFE0E4D79
:1028400000202870E2B2434639460C480092FFF758
:1028500001FB28780028FCD008EB06014A465046C8
:10286000FDF7E0FD4046FEF7DBFF3846FEF7D8FFF8
:102870000020BDE8F88F00003C000020483E00002A
:102880001CB518200024012200942346114601940F
:10289000FFF798FD4FF0A0414FF0807001F20C510E
:1028A00008600220FFF7C9F918200022009423468F
:1028B00011460194FFF786FDBDE81C400220FFF79A
:1028C000BCB900007CB500240126002506FA04F0FE
:1028D000400007D5204601220095002311460195AE
:1028E000FFF73AFD641C202CF0D319494FF08040CB
:1028F0000860081F2B460560132000220093114634
:102900000193FFF729FDFFF7BBFFFFF7C7FE01208B
:10291000FEF7DEFC401C1AD0FFF7A0FE0D48FEF7C4
:10292000C7FB44F24800FEF7A2FD43F6AC70FEF789
:10293000CFFD6420FEF78AFD0020FEF79FFD06A074
:10294000FDF7F8FFBDE87C406420FFF7C3BDFEE75C
:102950000C05005018000020656E646564207265E7
:102960007370206D61696E0D0A00000050E8001F51
:1029700031B10B6840E80032002AF7D108467047B1
:10298000BFF32F8FFAE710B568B161B10B3121F0B9
:102990000302016844680B1A1B1B934205D20846C8
:1029A00009680029F5D1002010BD210007D02118A9
:1029B0000368C1E90032016001F1080010BD426006
:1029C000083010BD70B50D46002812D04FF6FF71CB
:1029D000084C884204D222680146104600F0FAFAF8
:1029E00020684570044800F0DDF8BDE8704000F054
:1029F000C3BB70BD68000020940C00200F4810B5C8
:102A00000D4942680E480B680068934204D00A6082
:102A1000CB88421E1A448A808A8880B282420AD1B8
:102A200000200860054800F0BDF80146BDE81040F0
:102A3000024800F0F3BA10BD80000020940C002082
:102A40007800002070B5194DE86800282CD0A88ABD
:102A5000401EA882002621E0A06838B1616841606C
:102A6000606810B1A16881606660A6600F48214669
:102A7000183800F0D3FAA08AA8826078042804D11C
:102A80000B49E08A09880844A08201206070E06850
:102A9000E860E06808B10561E6602661A88A002860
:102AA00002D1EC68002CD7D170BD0000AC0C002026
:102AB0007800002070B504000FD00D4DA1780126DC
:102AC0002868827891420CD900F0C4FA28684670D0
:102AD0002046BDE8704000F04FBB064800F062F8A9
:102AE000F7E766702146BDE87040024800F096BAEC
:102AF00068000020940C00200321FFF763BF000052
:102B000010B50446008B084320836278618B062A47
:102B100018D0052A19D1084217D001EA00026283B1
:102B200088432083204600F0CFFA01206070628B3A
:102B30000821204600F0C0FA2146BDE810400348B5
:102B400000F06CBA31EA0002EAD010BD940C00200B
:102B5000814202D342688A4201D80120704702684C
:102B60000A60BFF35F8F50E8003F0A689A42F6D1CF
:102B700040E80012002AF2D10020704768B161B12C
:102B80000022083902E00246006830B18842FAD1DA
:102B90002AB10068106000207047012070470021B2
:102BA0004160F8E70146406842684A600B780022BD
:102BB000022B05D0012B03D0032B01D042607047BC
:102BC00043680BB19960426082607047810700D012
:102BD0000020704770B50446002015462070012281
:102BE0006270A17084F824106060A060E0602061D1
:102BF0002062A082E0822083608384F82500E08C3C
:102C000018B90548FFF7B2FEE06229462046BDE844
:102C1000704000F01DB800005005002008B10829E0
:102C200001D2012070470144091F002201600A609F
:102C300042601046704700000348002101600349CC
:102C40000988C1807047000080000020903E00008D
:102C500070B5C28C1C4D930802D12A88C2F38D0333
:102C6000C26A02EB8302540700D5121F4FF0807432
:102C700042E9021400242646B2F1400242F82460E0
:102C8000641C0E2CFAD3C469146282620163296841
:102C9000C90014D5112B12D94FF0FF31103B11EBA5
:102CA00053014FF0CC3305D042F8043C42F8083DC4
:102CB000491EF9D1C16A121F8A4200D91360C06A45
:102CC0000249016070BD00008C3E0000A52E5AE252
:102CD000C1898089081A704701220270002242705F
:102CE0008270426002814281103982818908C181EB
:102CF000704700002DE9F041044640680E464FF051
:102D0000000804F10C05E8B36078012701283ED0E3
:102D1000022813D003285CD10846FFF727FE0500E0
:102D200057D02046FFF73EFF0446294600F0BEF983
:102D30006770204600F0C8F9214621E02046FFF7E1
:102D400031FF0646002100F0B1F92189F06904EB5A
:102D500081010861D5E85F0F401C81B2C5E8501FB2
:102D60000028F7D12089401C80B22081E189884267
:102D700001D1A4F808807770304600F0A5F93146FB
:102D8000174800E00CE0BDE8F04100F047B92046EC
:102D9000FFF708FF04463246102100F08DF9C7E71F
:102DA000A089E189884216D2208904EB800006615F
:102DB000D5E85F0F401C81B2C5E8501F0028F7D14D
:102DC0002089401C80B22081E189884201D1A4F889
:102DD0000880BDE8F081BDE8F0410320FFF726BC84
:102DE000940C002070B50446808915460026C0B3B7
:102DF000608904EB8000006908606089401C80B233
:102E00006081E189884200D16681606810B1607894
:102E100002280BD014F10C04D4E85F0F401E81B2DD
:102E2000C4E8501F0028F7D1002070BD2046FFF7EE
:102E3000B9FE0546002100F039F92189E86904EB63
:102E4000810108612089401C80B22081E18988428B
:102E500000D12681284600F037F92846FFF72AFEE0
:102E6000E2E7FFE73DB10B48626801682AB12046FE
:102E700000F0D4F808E0012070BD616001684E6088
:102E8000006884600120607008212846FFF79AFDE1
:102E9000F1E7000068000020002814D0411C13D086
:102EA0000C4A4FF6FE7190420CD800EB4002C2EB88
:102EB000C0120948036803EBC202521EB2FBF3F0D2
:102EC000884204D9084670474FF6FF70704780B2B9
:102ED0007047000000093D00A43E000070B51B488B
:102EE000012102685170006800F0B4F8184D6C7848
:102EF00018E000BF05EBC40148680278EAB1012A76
:102F000020D000F00DF9E878641C844200D1002440
:102F10000F48801CD0E84F1F491EC9B2C0E8421FAD
:102F2000002AF7D1A8780028E4D16C700948FFF78F
:102F300039FEBDE8704000F01FB9098989B2FFF77A
:102F4000DFFDE0E78968FFF7D5FEDCE768000020D9
:102F5000C00B0020940C00200548017811B101211C
:102F60004170704703494FF080500860704700007F
:102F70007000002004ED00E0F0B4154DAB1CEE78BD
:102F80004FEA0507D3E84F2FB24202D1BFF32F8F8C
:102F900011E0521CD4B2C3E8424F002AF2D100BF64
:102FA000D7E84F2F541CB44200D10024E4B2C7E844
:102FB000434F002BF4D1EB78934205D905EBC202C5
:102FC000C2E90101F0BC7047F0BC0220FFF72EBB44
:102FD000C00B0020104A10B5D368ABB113469B8AD2
:102FE00003E08CB12246A48A2344D4688B42F8D3F0
:102FF000C460D0600261C46804B12061591A818242
:10300000908A401A908210BD0024C460D060C91A12
:1030100002619182848210BDAC0C002030B5027830
:103020000023022A03D0012A01D0032A00D1012360
:103030008C7800E01046426812B19578A542F9D22A
:103040004A6041601BB102B19160886030BD0020D0
:10305000FBE7000003494A68426000228260486042
:1030600070470000940C002010B5836804462BB90B
:10307000607801280ED1084B03E09B68187800287F
:10308000FBD0204600F034F82146BDE81040184639
:10309000FFF7C4BF10BD0000940C002090F825106D
:1030A000806A09B1603070472030704710B50C4617
:1030B000FFF7F4FF046010BD70B515460C46FFF72E
:1030C000EDFFC0E9004570BD10B5016900290ED0C3
:1030D000C268CA60C36800223BB18B8A848A2344D9
:1030E0008B82C3681961C26000E08A82026110BDF0
:1030F000816839B142684A604168002901D080681E
:1031000088607047054906E04A68824202D14068FB
:103110004860704711460029F6D17047940C002092
:1031200010B5416881B1FFF73DFD0446FFF7CCFFC4
:103130000120607001462046FFF7B8FF2146BDE838
:1031400010400348FFF76ABF4188491C418010BD09
:10315000940C002006480068D0E90A10814203D38D
:1031600000680449884202D00120FFF75FBA704727
:1031700068000020A52E5AE20749022248604270EA
:10318000064A1278002A05D006C98A4202D0C078C1
:10319000FDF784BF70470000680000207C0000201D
:1031A00070B5FDF753FF00200446204A204902E095
:1031B00042F82040401C0B889842F9D31D48342225
:1031C00001881D48FDF7A3FC1C48008880B240F030
:1031D00000421B4801681B48FDF799FC1A48082269
:1031E00001881A480068FDF792FC194DFF20194A22
:1031F000E870EC8400212846FFF7ECFC1648042117
:103200000170446015480170C460046184821448F0
:1032100015490560022068701248047044700978EE
:10322000C170BDE87040FFF707BD0000440C0020EE
:10323000883E0000AC3E0000D80300208C3E000019
:10324000B03E000050050020D43E000040000020A9
:10325000600C00202F260000940C0020AC0C0020F5
:1032600068000020C00B0020B83E00001B4810B5CD
:10327000016841F47F01016000684FF07F4101EA7D
:1032800000201649C0431439B0FA80F00968C0F133
:103290000800C1F30221814200D3481C0F49091FD5
:1032A0000B686FF08072824063F317020A60FFF7C9
:1032B000BFF90B49002808600EDB00F1E021FF2276
:1032C00081F8002400F01F02012191404009800094
:1032D00000F1E020C0F8001110BD000020ED00E07A
:1032E000740000200C4810B502680121517000687C
:1032F000FFF7B0FEFFF782FB08480168491C016038
:10330000FFF7A0FB00F0FCFA0548FFF74BFCBDE817
:103310001040FFF731BF0000680000207800002057
:10332000940C0020002805D0810702D101780029E3
:1033300000D000207047000030B50B4C00236268BD
:1033400005E095688D4204D813461268491B002A8F
:10335000F7D10260816012B19568691A91600BB172
:10336000186030BD606030BD600000202DE9F04184
:103370001E46174680460D4611F0FF0F00D14D1C2A
:103380001848FFF7F3FA041E16D0280AE762E08413
:10339000E9B242462046E661FFF71CFC01251248CF
:1033A000124905E000EB850252F8042C32B16D1C85
:1033B0000A889542F6D90020BDE8F081002DFAD0A8
:1033C00000EB850040F8044C0948E570007818B11E
:1033D00001212046FDF752FE2046FFF76BFB2846F1
:1033E000EAE70000D8030020440C0020883E0000DB
:1033F0007C0000202DE9F05F584DDFF85891DFF890
:10340000588129684FF0010A002618B1CA78AB46E6
:10341000824243D14E70FCF70AFF29688862FFF7A9
:1034200099FE2868046A1FE06068C0B12046FFF773
:10343000B9FB07460021FFF739FE3846FFF744FE87
:1034400087F801A039464648FFF7E8FDE168A4F88F
:1034500002A0A760386AE0603C620C4604E0E068C5
:103460006680A660E6600446002CDDD12868C2783C
:1034700008EB820141F8046CC16A3A48FFF768FB27
:103480002868C66299F8001011B10021FDF7F6FD19
:1034900035482968FFF75CFB2E6056E03349098800
:1034A00088420CD808EB800858F8045C3DB12846E7
:1034B000FFF71EFE2846FFF707FE2C6A22E0FF20DA
:1034C000BDE8F09F6068C0B12046FFF76BFB074680
:1034D0000021FFF7EBFD3846FFF7F6FD87F801A066
:1034E00039461F48FFF79AFDE168A4F802A0A760DB
:1034F000386AE0603C620C4604E0E0686680A660E2
:10350000E6600446002CDDD148F8046C1548E96AF1
:10351000FFF71EFBEE6299F8000018B10021284663
:10352000FDF7ACFD29461048FFF712FB0C48DBF80D
:10353000001040688B7882789A4209D981F801A0FE
:103540000748DBF80010FFF769FD0020FFF7B2FA2B
:103550000020B5E77C000020440C0020680000201B
:10356000940C002050050020D8030020883E000065
:1035700070B51A4D80B11A4A128890421FD8194A64
:1035800002EB800050F8044CCCB1A17084F82410F8
:103590002868A04205D014E028688170286880F867
:1035A0002410114840688078884215D90E4829684F
:1035B000FFF734FD29680120487000200AE0FF2051
:1035C00070BD2046FFF750FD6078012804D1064801
:1035D000FFF7E8FAFFF76EFA002070BD68000020E0
:1035E000883E0000440C0020940C00200248006833
:1035F000002800D0C07870476800002070B50546EC
:103600000C464FF48471E07D00280BD02846FEF76D
:103610004AFFD5F81805627EE1688854607E401C38
:10362000607670BD2846FEF73EFFD5F8180570BDE0
:103630001FB501238DF800308DF80810019206C8DF
:10364000684690471FBD10B504464FF4927120683C
:10365000FEF729FF4FF484712068FEF724FF2068ED
:103660000121016010BD0000014901200870704770
:103670003C000020F8B504460D46002685F8206081
:103680000420C4F80803C4F80861D4F808010090C5
:103690001079002802D01068007800E0E87FC4F8B4
:1036A0001C051079012804D910684078C4F81C055D
:1036B00005E0107B012802D9E87FC4F81C052868C2
:1036C00018B10420C4F80403F8BDD4F8080100B10F
:1036D00001200028F9D0C4F80861D4F8080100904E
:1036E0002946204600F03AF90028EED1A87FFF28AD
:1036F000EAD0BDE8F840FEF7A3BE10B5002804D01C
:10370000FFF7CAFBFFF7F8F9402010BD10B5134CC6
:10371000207860B91248400705D112480168104866
:10372000FFF77CFA08B1852010BDFFF739FD0E497F
:10373000FF2009688870207858B900210B4800F0F4
:1037400041F80B49086000210A4800F06BF80A496B
:103750000860012020700020607010BD6000002013
:10376000100A0020B43E000068000020CC3E00009B
:1037700058000020BC3E00005400002070B50F4DE2
:10378000687808B1002070BD0D4C206890F82410B6
:103790000020FFF7EDFE2068C178FF2903D1816A80
:1037A000203181F30988616811B9606000202060D0
:1037B000FFF75CFD01206870E4E700006000002076
:1037C0006800002010B5040005D0216819B16068B8
:1037D00008B102780AB1002010BD8900103189B209
:1037E000FFF77AFA606810BD3EB504000D464FF051
:1037F000800012D0217801290FD12846FFF74CFB19
:103800000246204601A9FFF7EDFA012801D0102059
:1038100003E00DB1402000E00020DDE9011203B01B
:1038200030BD000070B50E4604002BD0206848B3B0
:10383000B4F9040010F1030F24DB032822DCE16853
:1038400029B11148FFF79FF805001BD000E00025C3
:10385000B4F90400E168001D40EA012133462A461C
:103860002068FFF783FD40B1084901EB800008495B
:1038700050F8040C826A516370BD1DB1294602489C
:10388000FFF77CF9002070BD100A0020440C0020D6
:10389000C525000010B5FFF7A9FE002804D0034994
:1038A00001EB800050F8040C10BD0000440C002017
:1038B00010B5FFF737FD18B1C18C19B1C46A02E029
:1038C000802010BD0024C078FFF794FDFF2806D0AB
:1038D0001CB121460348FFF751F9002010BD81209B
:1038E00010BD0000100A002010B5FFF76FF920B1DD
:1038F00041690A680169104610BD0020014610BDEB
:103900002DE9F041134E7468002C1CD0A068124FB2
:10391000401E4FF00108A06012E025462468746044
:10392000002229463868FEF7C7F810B10420FEF7D8
:103930007DFE6879012808D085F80480002C02D02B
:10394000A0680028E9D0BDE8F0812846E968FFF7C3
:10395000F3FCF3E7600000205800002038B5D0F8F1
:103960001825009291F820200B7E9A4203D29DF8F0
:1039700000304C69A35411F8202F521CD2B20A70A7
:103980001346521C4C782039640707D50C7C9442AE
:1039900000D90A740C7E944200D90A760C7C9442B9
:1039A00005D9C968895CC0F81C15012038BD0D7E99
:1039B000954204D9C97FC0F81C15012038BDA34227
:1039C00001D3AB4201D2012038BD002038BD70B513
:1039D00005460C464FF48E712846FEF764FDA18A19
:1039E000A068415CA28A521CA282C5F81C1570BD59
:1039F0001FB500228DF800208DF808108168019114
:103A0000827506C8684690471FBD00007CB50178E6
:103A1000274C002938D001290ED002290BD18DF86E
:103A20000010C0680190611C0122C81DFEF7BCFA9D
:103A30006168684688477CBD406801781D48FDF78D
:103A4000A5F91C4D012630B18DF800600190616828
:103A50006846884709E0A868E968081A28B1002084
:103A60008DF80000616868468847A868E968081A08
:103A7000A988884206D80E490122491CC81DFEF7B4
:103A800093FA7CBDA6707CBD0A4809491030FDF749
:103A900060F930B103208DF80000616868468847FE
:103AA0007CBD0349012201F10800FEF79BFB7CBDB0
:103AB00024000020400100202DE9FF4705460C4668
:103AC0004FF400712846FEF7F4FC01274FF401780B
:103AD000002618B34FF4927949462846FEF7DEFCDB
:103AE000E0B149462846FEF7DEFCC5F80883A07E13
:103AF00000B96F6002208DF80000D5F88004C5F889
:103B000080040390E07D8DF80800E0680190E67580
:103B10002676D4E90012684690472AE00421284618
:103B2000FEF7C7FC28B34FF484712846FEF7B6FCB5
:103B3000F8B121462846FFF761FDE07D617E8842AD
:103B400017D1207E50B1E268617EE0752069E060A7
:103B5000267666762046FFF76BFD0AE0A07E00B968
:103B60006F60C5F80883E675617EE2682046FFF75E
:103B70005FFD4FF48E7841462846FEF78FFC88B1F2
:103B8000A08AA17D884204D221462846FFF71FFF64
:103B900008E041462846FEF786FCA17D11B120468B
:103BA000FFF726FF4FF4A27841462846FEF776FC41
:103BB000002812D041462846FEF775FCA07E00B1D1
:103BC0002F60E07D002808D0E675617EE26804B0D1
:103BD0002046BDE8F047FFF72BBDBDE8FF872DE984
:103BE000FF4105460C464FF4927739462846FEF7CA
:103BF00066FC0026C0B139462846FEF765FC022067
:103C00008DF80000D5F88004C5F880040390D5F83D
:103C10003C058DF80800E0680190E6752676D4E949
:103C200000126846904727E04FF4887739462846C7
:103C3000FEF745FC00B339462846FEF745FCD5F8AB
:103C40003C05C1B2E07D884216D1207E78B1E268A1
:103C5000D5F8000220F02000C5F80002207EE075B3
:103C60002069E06026762046FFF7E2FC04E0E67576
:103C70002046E268FFF7DCFC4FF4A277394628467D
:103C8000FEF71DFC68B139462846FEF71DFCE07DB5
:103C900038B1E675D5F83C05E268C1B22046FFF7B9
:103CA000C7FC4FF4907631462846FEF708FC002802
:103CB0000FD031462846FEF707FCA07D002808D02B
:103CC000D5F84C0504B0C1B22046BDE8F041FFF77D
:103CD0008FBEBDE8FF8170470078022803D001281D
:103CE00003D1FFF7F8BFFFF7F6BF70472DE9F84F94
:103CF00005468A469046994605EB08042046FDF79E
:103D00004FFF06462046FDF74BFF0746214630464B
:103D1000FCF7A1FB21463846FCF79DFB2A4651469D
:103D20003046FCF77FFB701942464946FCF77AFBA8
:103D30000A4D00202870E2B23B4631460848009206
:103D4000FEF788F828780028FCD03846FDF768FD93
:103D50003046FDF765FD0020BDE8F88F3C000020EF
:103D6000483E0000D92600000100000001000000CC
:103D70000000000000000050FFFFFFFFFFFFFFFFFB
:103D8000FFFFFFFFFFFFFFFF00000000000000003B
:103D90000000D60107010000000001020304000535
:103DA000405C0000A05C0400C06C0800805C040063
:103DB000E03F1E00E07D1E000704000908054008E2
:103DC00009104008080540081D0400081D040008EB
:103DD0001E265626BEBED8BC07A9022570889B8821
:103DE000401008000A001600010006000100020051
:103DF00087008D002D001A3152001A339A001A35AF
:103E00001D011A376B003B31BE003B335E013B3571
:103E100096023B37000098599859EA518E421E4548
:103E2000142E0080EA51F4283233E03A703DE03A33
:103E3000C235842BC2353233C235C235AE47E03A83
:103E40005038A2305038000000400040040000000C
:103E5000101412FF06FF0000000000200000000008
:103E6000101412FF06FF0000000000800000000098
:103E70000B00000005000000FFFFFFFFFFFFFFFF3A
:103E8000000000000000D60107000000C800020189
:103E900005000100DF2E000001000000020001000B
:103EA00050000400E803000000000000780100005A
:103EB000C0040000B0010000100000000126000056
:103EC0000200000001000000C80000000400000023
:103ED000B803002000000000F83E000000000020B1
:103EE0009000000054090000883F0000900000206E
:103EF000504C0000640900000000000000000000B9
:103F000000000000050214000A0A000200008100FF
:103F1000050214000A0A00020000810000000000EF
:103F20000000000000200040000000000000000031
:103F3000600100200000000000000000551B000090
:103F40000000000001000000C800000000000000A8
:103F5000000000000090D0030000000000000000FE
:103F60000000000000000000000000000000000051
:103F70000000000000000000000000000000000041
:083F8000000000000000000039
:0400000500000201F4
:00000001FF
