:020000040000FA
:10000000A8230020150200001D0200001F020000AE
:100010002102000023020000250200000000000071
:1000200000000000000000000000000027020000A7
:1000300029020000000000002B0200002D02000039
:10004000590400002F020000CD0800002F0200001C
:10005000C50400002F020000C10200002F020000B2
:100060002F0200002F0200002F0200002F020000CC
:100070002F0200002F0200002F0200002F020000BC
:100080002F0200002F0200002F0200002F020000AC
:100090002F0200002F0200002F0200002F0200009C
:1000A0002F0200002F0200002F0200002F0200008C
:1000B0002F0200002F0200000000000000000000DE
:1000C0002F0200002F0200002F0200002F0200006C
:1000D0002F0200002F0200002F020000000000008D
:1000E0000000000000000000000000000000000010
:1000F0000000000000000000000000000000000000
:1001000000000000000000000000000000000000EF
:1001100000000000000000000000000000000000DF
:1001200000000000000000000000000000000000CF
:1001300000000000000000000000000000000000BF
:1001400000000000000000000000000000000000AF
:10015000000000000000000000000000000000009F
:10016000000000000000000000000000000000008F
:10017000000000000000000000000000000000007F
:10018000000000000000000000000000000000006F
:10019000000000000000000000000000000000005F
:1001A000000000000000000000000000000000004F
:1001B000000000000000000000000000000000003F
:1001C000000000000000000000000000000000002F
:1001D000000000000000000000000000000000001F
:1001E000000000000000000000000000000000000F
:1001F00000000000000000000000000000000000FF
:10020000DFF80CD000F04AF800480047ED1D000070
:10021000A82300200648804706480047FEE7FEE77F
:10022000FEE7FEE7FEE7FEE7FEE7FEE7FEE7FEE7A6
:10023000810500000102000040EA01039B0703D092
:1002400009E008C9121F08C0042AFAD203E011F815
:10025000013B00F8013B521EF9D27047D2B201E0D7
:1002600000F8012B491EFBD270470022F6E710B5BB
:1002700013460A4604461946FFF7F0FF204610BD14
:1002800030B504460020034600E05B1C934203D2D5
:10029000E05CCD5C401BF8D030BD0000064C074D43
:1002A00006E0E06840F0010394E807009847103446
:1002B000AC42F6D3FFF7A8FF0C2F00002C2F000054
:1002C0002DE9F04F83B046F27C18C4F200080020FC
:1002D0000121A8F17C0200230026019005E000BF67
:1002E0000433202B4FEA41010CD09F58012FF7D146
:1002F000D8F888710F42F3D098509F580E43029758
:10030000029FEDE7D8F8000001280ED10020C8F8C0
:100310000000D8F8000046F000460290029840F233
:100320001050C5F200000068019040F2A42A300687
:10033000C2F2000A19D00127002504E00135082D7A
:100340004FEA470711D03742F8D008EB8501D1F8C2
:100350009403D1F894135AF82520002AEED0C0F364
:100360000420C1F301419047E8E7B6F1FF3F02DD09
:1003700003B0BDE8F08F40F2105C0020C5F2000C25
:1003800002904FF0FF304FF00108E9460DF1040EE6
:1003900000254FF0000B009007E0002F08BF032B53
:1003A00030D000BF0135042D4AD00AEB050090F88B
:1003B0005010FF29F6D001F03F00C30800F00702FB
:1003C00019F8036008FA02F73742EBD00AEB000293
:1003D00092F9302089095AF822200AB90329E1D17B
:1003E000032903D102ACE65C3E43E6540CF5F876F3
:1003F00056F820401EF803301F40C4F30143CCD010
:10040000022BCAD1032912D1022B56F820304FF407
:10041000003723F4403346F8203056F8203008BF28
:100420004FF440373B430BF1010B46F82030002AD4
:10043000B8D0644676469047B646A446B2E700BFB9
:100440005FEA0B6094D0DCF80010019881423FF421
:100450008FAF029801919BE7B0B582B040F20015D2
:10046000C4F20005286840F24034C2F2000488B1AA
:10047000002028602868009000980120C5F8080234
:10048000607000BFA06828B10168A16041680020C9
:100490008847F7E7686898B100206860686801904D
:1004A00001980220C5F808020120A070206938B127
:1004B0000168216141680120884720690028F7D13F
:1004C00002B0B0BD80B582B044F20810C4F20000A2
:1004D00000210160016800910099D0F8100440F2F9
:1004E000FC218DF80700C2F2000191F820000A7E7D
:1004F000904203D29DF807204B691A5491F82000CE
:1005000091F8212001300123520753FA80F281F83B
:10051000200007D50B7C9A4238BF0A740B7E9A42A2
:1005200038BF0A760B7C9A4202D2C868805C04E02D
:1005300091F818C0624507D2C87F44F21C51C4F23A
:100540000001086002B080BDC0B2984228BF60457B
:1005500001D202B080BD887FFF2807D0012202FAB5
:1005600000F040F20852C5F20002106000224A7703
:100570000846D1E9003100F8082F984702B080BD45
:1005800010B540F6E070CFF200000178062904BFF4
:1005900001795FEA017100F095800178062904BFB6
:1005A00001795FEA017100F0A3800178062904BF98
:1005B00001795FEA017100F0AB8001784EF60C54CE
:1005C0000629CEF2000404BF02795FEA027200F04D
:1005D000B4800278062A04BF02795FEA027200F052
:1005E000B9800278062A04BF02795FEA027200F03D
:1005F000D0800278062A04BF02795FEA027200F016
:10060000D5800278062A04BF02795FEA027200F000
:10061000E0800178062904BF01795FEA017100F0EA
:100620001B810178062904BF01795FEA017100F09E
:100630002781E16F41F2002041F47001E167BFF3CF
:100640004F8FC1F20000BFF36F8F016800290DD4F6
:100650004168B1F1FF3F09DD40F2040049F20001B9
:10066000C2F20000C0F2D031016010BD4EF2004273
:10067000C4F201020121C2F8041100BF116800296F
:10068000FCD01521016000BF11680029FCD01521A4
:10069000416000BF10680028FCD00020C2F80401AF
:1006A00010680028FCD0BFF34F8F2068042100F4AD
:1006B000E060C0F2FA5108432060BFF34F8F00BFE3
:1006C00000BFFDE7816801F0F001302918BF502913
:1006D00040F0E88040F24421C1F20001D1F8E0107E
:1006E00043F24052C1F30421C4F20102116054E705
:1006F000816801F0F00130297FF457AF4CF27401AA
:100700004FF20D02C4F20701CBF6AD220A604CE7AE
:10071000816801F0F001302918BF502940F0C680EF
:1007200040F24421C1F20001096840F23852C1F39D
:100730004231C4F2000251603FE7826802F0F002E9
:10074000302A7FF446AFD4F8F02022F08072C4F84B
:10075000F0203EE7826802F0F002302A18BF502AEB
:1007600040F0A8804FF60C5C40F2004E4FF610535C
:10077000CFF6FF7CC4F2000E0022CFF6FF734EF8D6
:100780000C204EF8032040F23853C4F200031A60E4
:1007900027E7826802F0F002302A7FF42AAF40F2A5
:1007A0003852C4F200020323936622E7826802F003
:1007B000F002302A7FF425AF45F21062C4F2000245
:1007C0000523136001239367002393603F23536045
:1007D00017E7826802F0F002502A7FF41AAF40F265
:1007E0004422C1F20002D2F8C0C14CF22053C4F23C
:1007F0000003C3F800C0D2F8C4115960D2F8C81180
:100800009960D2F8CC11D960D2F8D0111961D2F820
:10081000D4115961D2F8D8111962D2F8DC11596299
:10082000D2F8E0119962D2F8E411D962D2F8E81155
:100830001963D2F8EC115963D2F8F0111964D2F8A7
:10084000F4115964D2F8F8119964D2F8FC11D96402
:10085000D2F800121965DCE6816801F0F002302A56
:1008600018BF502A2AD140F24421C1F2000149693F
:1008700040F6E46201F04F01C4F200021160D0E6DC
:10088000806800F0F000302818BF50281AD140F2DC
:100890000040C4F200000168C9071CBF6FF00101ED
:1008A0000160C6E640297FF478AE13E740297FF463
:1008B00084AE35E7402A7FF494AE53E7402A7FF4B4
:1008C000B0AED0E740287FF4B4AEE0E7F0B585B035
:1008D00040F22034C2F20004207F002857D042F2B8
:1008E0002416C4F20006306842F23C570028C4F2D5
:1008F000000700F097800020306031680191019975
:1009000002218DF80410D6F85C13C6F85C1304912C
:100910003968E2688DF80C10D4E90013A4F81700C8
:1009200001A802929847306A98B100203062316A7B
:1009300001910199E17D61B1E0753868D4E9001257
:10094000E36801258DF80C0001A88DF8045002938E
:10095000904756F8040C002800F01D81002046F84E
:10096000040C56F8041C01910199A17D002900F0A6
:1009700012813969A2688DF80C10D4E900138DF842
:100980000400A07501A80292984705B0F0BD42F29C
:100990002415C4F20005D5F8E001800526D52868A5
:1009A00020B3002028602968019101994FF401715A
:1009B000C5F8E411A17E29B94FF6E061CFF6FF71C9
:1009C00001226A5002218DF80410D5F85C13C5F895
:1009D0005C13E27D04918DF80C20E268D4E90013E9
:1009E0000292A4F8170001A8984789E0D5F8E00121
:1009F000400740F1858055F81C0C002800F08080ED
:100A0000E07D002145F81C1CA8B355F81C0C019092
:100A10000198D5F8F403E168627E8854607E013065
:100A200060762EE056F8140C00283FF47CAF0020CE
:100A300046F8140C56F8140C019001983868E17DC2
:100A4000C2B291427FF46FAF217E89B3D6F8DC2029
:100A500022F02002C6F8DC20D4E90323E175E3602C
:100A60000023D4E9001C237601238DF804308DF88F
:100A70000C00029227E055F81C0C01900198D5F863
:100A8000F403E07D617E88423AD1207EF0B1627E3F
:100A9000E075D4E90370D4E90013E060002020760B
:100AA000607601208DF804008DF80C2002979AE7FB
:100AB0000021E175D4E9001CE36801228DF80420CF
:100AC0008DF80C00029301A8E0472CE7A07E28B91E
:100AD0004FF6E060CFF6FF70012129504FF401700E
:100AE000C5F8E4010020E075607ED4E90012E368F7
:100AF00001278DF80C0001A88DF80470029390472F
:100B000055F8080C40B3A18AA07D0022814245F827
:100B1000082C10D255F8080C01900198A068A18A01
:100B2000405CA18A0131A18242F23C51C4F2000131
:100B300041F8200C10E055F8081C0191019958B1BA
:100B40008DF80C00A068D4E900130022029001A8DF
:100B50008DF80420A2759847286AE0B10020286229
:100B6000286A01900198A07E28B14FF6DC60CFF68C
:100B7000FF7001212950E07D68B10020E075607EA2
:100B8000D4E90012E36801278DF80C0001A88DF864
:100B900004700293904705B0F0BD0000B0B584B07A
:100BA00004466D208DF80200102048F2EE658DF8A5
:100BB00005000DF103010DF1020303200122ADF840
:100BC000035002F0B9F864B140F20760ADF80600D6
:100BD000302002A90DF10603ADF808508DF80A0087
:100BE0000CE041F20760ADF80B003020ADF80D507D
:100BF0008DF80F000DF10D010DF10B030320022202
:100C000002F09AF804B0B0BD2DE9F04182B00DF1C8
:100C100003044FF036080DF105010120022223469E
:100C20008DF8058001F056FE40F20130ADF803006A
:100C3000B6270DF10501012001222346651C8DF820
:100C4000057002F079F84FF4FB760DF105010220F2
:100C500001222B46ADF8056002F06EF84FF400401B
:100C6000ADF8030040F2ED600DF10304ADF80500AE
:100C70000DF1050102200222234602F05DF8012059
:100C800000F074F90DF105010120022223468DF8D0
:100C9000058001F01FFE00208DF803009DF8040080
:100CA0000DF1050100F0FE008DF804000120012285
:100CB0002346651C8DF8057002F03EF80DF1050124
:100CC000022001222B46ADF8056002F035F802B093
:100CD000BDE8F081F0B583B0ADF8090040F2ED4019
:100CE0000DF10504ADF805000DF1090302202146C0
:100CF000022202F021F8032640F2ED670DF1050112
:100D00000DF10903022001228DF80960ADF805708C
:100D100002F012F800250DF105010DF10903022082
:100D200001228DF80950ADF8057002F005F840F683
:100D30006D20ADF809000DF109010DF10503022048
:100D4000042201F0C7FD00BFA05D013E711C40EA16
:100D50000525F9D1284603B0F0BD00004EF60C5031
:100D6000CEF20000D0F8E410C9070DD1BFF34F8FC9
:100D70000168042201F4E061C0F2FA5211430160FB
:100D8000BFF34F8F00BFFDE7FEDE000080B584B0EB
:100D90000021ADF80410CDE9021001AA44F20100CF
:100DA0000021FFF7DBFF04B080BD00008268C3684C
:100DB000934204BF05207047D0F800C08368828842
:100DC0001A401CF802200A708168013181600020FD
:100DD00070470000002904BF0E207047A2F1010CEB
:100DE00012EA0C03B2FA82F24FEA521218BF012340
:100DF0001A431CBF0920704701600021A0F804C0FD
:100E00008160C16008467047D0F808C0C368828816
:100E1000A3EB0C03934284BF04207047D0F800C0BA
:100E2000C3681A400CF80210C1680131C16000208B
:100E30007047000070B588B0044640F25430C2F2EA
:100E40000000026061B10E460968B28840F2583075
:100E5000C2F200001D46FFF7BDFF20B108B070BD13
:100E6000072008B070BDB168B28940F26C30C2F2A0
:100E70000000FFF7AFFF0028F0D142F64460C0F257
:100E80000000D0E900E200F1080C4169C0699CE86B
:100E90004810079002A8059180E848106069217CFD
:100EA000CDE900E20690002918BF0121607C8DF891
:100EB00014108DF81C50002818BF0E208DF8150056
:100EC000E26894E80B00CDE90223CDE9001040F27E
:100ED000080042F63942C2F20000C0F20002694640
:100EE00001F078F90028B9D1226840F26831C2F2E5
:100EF0000001002001320870B0D09DF81D0028B913
:100F000040F20800C2F2000001F038FB40F2080095
:100F100040F2A131C2F20000C2F20001012201F050
:100F20002FFA08B070BD000080B584B040F24800D0
:100F3000C2F2000000902020019040F26800C2F24E
:100F4000000002904FF40070039042F62C6042F6CD
:100F50003552C0F20000C0F2000269460723FFF7D5
:100F600069FFB0FA80F0400904B080BD4FF47A7197
:100F70004843002808BF704740F20401C2F2000154
:100F800042F200420968C0F2F40200BF00BF00BF95
:100F900000BF00BF00BF00BF00BF91422FD000BF05
:100FA00000BF00BF00BF00BF00BF00BF00BF00BF49
:100FB00000BF00BF00BF00BF00BF00BF00BF00BF39
:100FC00000BF00BF00BF00BF00BF00BF00BF00BF29
:100FD00000BF00BF00BF00BF00BF00BF00BF00BF19
:100FE00000BF00BF00BF00BF00BF00BF00BF00BF09
:100FF00000BF00BF00BF00BF00BF00BF00BF401E5A
:10100000C3D1704770470000002070472DE9F04FB2
:1010100083B090F80090044690F801C04279C379FB
:1010200040F21C00A9F10407C2F20000B7FA87F5EC
:1010300042F6AA660768A9F10701C0F20006B1FAF4
:1010400081F136F812207E694909002B4FEA5513C9
:1010500005D026F480067E610827164604E046F493
:1010600080067E61D6080B2743EA010A016822FA4E
:1010700007F7227A48690A7262F3114048610DF15C
:101080000501ACF101050139042200BF01F8010F8F
:10109000013A4FEA1020F9D184208DF809000DF1B2
:1010A00009010DF10503012004224FF0040801F0AD
:1010B00043FE48F2EE408DF80960ADF8050050207F
:1010C0000DF105068DF807000DF1090303203146E7
:1010D00002228DF80A7001F02FFE5FFA85FB584658
:1010E000FFF75CFD42F62460C0F2000010F80970C2
:1010F00042F68C60C0F2000050F82700711E00BF5D
:1011000001F8010FB8F101084FEA1020F8D140F2C0
:10111000EB70ADF809000DF109010DF10503022096
:101120000422042501F008FE42F6A460C0F200008B
:10113000C05D0DF105018DF8090040F6EB30ADF80A
:1011400005000DF109030220012201F0F5FD42F630
:10115000DC60C0F2000010F80A000DF105068DF801
:10116000090040F6E830ADF805000DF10903022052
:101170003146012201F0E0FD42F6F460C0F20000C9
:1011800050F82700711E00BF01F8010F013D4FEA22
:101190001020F9D140F6E840ADF809000DF1090141
:1011A0000DF105030220042201F0C6FDE17942F6AB
:1011B000DE62A079C0F2000202EB810131F810007A
:1011C0000DF10501ADF8090040F2E720ADF805008A
:1011D0000DF109030220022201F0AEFD42F6846007
:1011E000C0F2000030F81B000DF10506ADF8090053
:1011F00040F2E740ADF805000DF109030220314649
:10120000022201F099FDE079A0B1A07804281FD155
:1012100040F2E7601025ADF805000DF105010DF174
:10122000090302200222ADF8095001F085FD8DF876
:1012300009501FE06420ADF8090040F2E760ADF806
:1012400005000DF105010DF10903022002221BE04A
:101250002020ADF8090040F2E760ADF805000DF17F
:1012600005010DF109030220022201F065FD28208D
:101270008DF8090042F2E760ADF805000DF10501B7
:101280000DF109030220012201F056FD42F66461CE
:10129000E078C0F2000101EB0B1151F82000711E43
:1012A000042200BF01F8010F013A4FEA1020F9D1E2
:1012B00040F6E700ADF809000DF109010DF1050355
:1012C0000220042201F038FD60890DF10506002896
:1012D00004BF41F24100608160890DF10903ADF85E
:1012E000090042F2E700ADF8050002203146022273
:1012F00001F022FD42F61C65C0F200052868711E4F
:10130000042200BF01F8010F013A4FEA1020F9D181
:1013100040F6E340ADF809000DF109010DF10503B8
:101320000220042201F008FD05EB4B0080880DF13E
:101330000505ADF8090040F2E340ADF805000DF1F8
:10134000090302202946022201F0F6FCA079B8B177
:10135000E07942F68861C0F20001085C0DF10501F8
:101360008DF80900A1208DF805000DF10903012079
:10137000012201F0E1FC4FF440114FF4003001E094
:101380000020002109F00F02637869F30712277922
:10139000104303F003030843667907F01F0740EA90
:1013A000834040EA875040EAC660691E042200BFBD
:1013B00001F8010F013A4FEA1020F9D19F200DF1F9
:1013C00005058DF809000DF10901012004222B46C5
:1013D000042601F0B1FC6078A178E279084340F27C
:1013E0001C01C2F200010004096840EA4230C860F2
:1013F000691E00BF01F8010F013E4FEA1020F9D12C
:1014000088208DF809000DF109010DF10503012077
:10141000042201F091FC42208DF809008D208DF806
:1014200005000DF105010DF109030120012201F074
:1014300083FC03B0BDE8F08FF0B583B00E2001ACA3
:101440008DF809000DF1090101200422234601F065
:1014500041FA0026032000BF215C0138421C41EA0A
:101460000626F9D1FFF7D0FD0446002001908E201A
:101470008DF809000DF1090101AB012004220427B8
:1014800001F05AFC40208DF809008D2001AD8DF847
:1014900004000DF1090301202946012201F04CFC52
:1014A0004FF6F871681EC2F2274100BF00F8011F15
:1014B000013F4FEA1121F9D18F208DF809000DF17C
:1014C000090101AB01200422012701F035FC40F2A3
:1014D0004F3001ADADF804000DF10903022029469B
:1014E000012201F0F7F99DF8090080EA40000006AA
:1014F0000CD540F2CD30ADF8040001A90DF109037F
:10150000022001228DF8097001F016FC681E0421EA
:1015100000F8016F01394FEA1626F9D18E208DF8B7
:1015200009000DF1090101AB0120042201F004FCC6
:101530002046FFF767FD40F21C00C2F20000006881
:101540000021817603B0F0BD2DE9F04182B040F278
:101550001C08C2F200080446D8F8000000270DF16C
:1015600005050DF10106477487760783C0E90A7700
:10157000C0E90C7701202946042233468DF8057016
:1015800001F0A8F9032000BF315C0138421C41EA98
:101590000727F9D140F23010CDF6CA60874240F0FB
:1015A0009F8000F09BFA36208DF801000DF10101BB
:1015B000012002222B46022601F08CF99DF805003D
:1015C0000DF1010100F0FC0001308DF80500B6209E
:1015D0008DF80100012001222B4601F0ADFB4FF4F4
:1015E000FB706B1CADF801000DF10101022001221E
:1015F00001F0A2FB04208DF80500A4208DF8010065
:101600000DF101010DF105030120012201F094FB10
:101610001E20FFF75FFB0546D8F80000290A41723B
:101620000420FFF757FB000613D041F2ED20ADF880
:1016300001000DF101010DF10503022001228DF8D9
:10164000056001F079FBD8F80000018B41F480516E
:1016500001830620FFF73EFBD8F800100860072042
:10166000FFF738FBD8F800100DF10506486015F0BB
:101670001F0008BF1020087460308DF8050040F688
:10168000EB600DF10105ADF80100022029460122B1
:10169000334601F051FBE00727D140F27650ADF818
:1016A00001000DF101010DF105030220022201F0FC
:1016B00011F99DF806009DF8051000F0FD008DF869
:1016C000060040F2F6508DF80510ADF801000DF15E
:1016D00001010DF105030220022201F02DFB0CE0B7
:1016E0004FF0FF3002B0BDE8F081FFF78DFAD8F877
:1016F0000000018B41F40061018336208DF8010068
:10170000012029460222334601F0E4F89DF8060044
:10171000002700F0FE008DF80600B6208DF80100CD
:101720000DF101010120012233468DF80570741C72
:1017300001F002FB4FF4FB70ADF801000DF1010167
:1017400002200122234601F0F7FA40F6EC20ADF822
:1017500001000DF101010DF10503022001228DF8B8
:10176000057001F0E9FA04208DF805000DF105017E
:101770000DF101030120042201F0ACF8032000BFA9
:10178000295C0138421C41EA0727F9D1D8F800004A
:101790004761002002B0BDE8F081000010B582B0C2
:1017A0008AB24AB140F040007F2A8DF8050007D880
:1017B0008DF8061002200BE08DF80500012007E0EF
:1017C00041F080008DF80600C8098DF8070003205D
:1017D0000DF101040DF105010422234601F07AF810
:1017E00000200321625C01394B1C42EA0020F9D140
:1017F00002B010BD80B582B08C46034662B1512163
:10180000D0098DF805100CD042F080018DF807004A
:1018100003208DF8061007E011208DF80500012047
:1018200002E08DF8062002200DF10501624601F06C
:1018300051F802B080BD000080B582B0034615208B
:101840008DF805000DF105010120052201F042F897
:1018500002B080BD70B582B00446400720D440F28B
:101860004F30ADF805000DF105010DF10303022025
:101870000122012501F02EF89DF8030080EA4000C6
:1018800000060DD540F2CD30ADF805000DF1050193
:101890000DF10303022001228DF8035001F04CFAF0
:1018A0000025032014F001068DF8035008BF012025
:1018B0008DF804008D208DF805000DF105010DF166
:1018C00003030120022201F037FA4EB340F24F30F9
:1018D000ADF805000DF105010DF103030220012211
:1018E00000F0F8FF9DF80300000701D4002517E081
:1018F000FFF7A2FDA00711D44FF48070ADF80300EC
:101900008D208DF805000DF105010DF10303012077
:10191000022201F011FA4FF0FF3501E04FF0FF35E0
:10192000284602B070BD000010B582B0E0208DF8EE
:10193000000040F2F6340DF101016B460220012255
:10194000ADF8014001F0F8F9F0208DF804000DF138
:10195000050101AB02200122ADF8054001F0ECF9D0
:1019600002B010BD80B582B00DF101010139042231
:1019700001F8010F013A4FEA1020F9D14FF4E57058
:10198000ADF805000DF105010DF10103022004225F
:1019900001F0D2F902B080BDB0B584B004461A207F
:1019A0000DF102058DF806000DF10601012004225B
:1019B0002B4600F08FFF0022032000BF11462A5C57
:1019C0000138431C42EA0122F8D108020DF1090155
:1019D00064F313000139042201F8010F013A4FEAC0
:1019E0001020F9D19A208DF80D000DF10D010DF1A7
:1019F00009030120042201F09FF904B0B0BD0000EA
:101A000080B582B0ADF8030048F2EE40ADF80500B5
:101A100030208DF807000DF105010DF103030320BF
:101A2000022201F089F902B080BD0000B0B582B099
:101A300004464FF45170ADF805000DF105010DF1AC
:101A400003030220012200F045FF9DF80350BCB1C2
:101A50008C208DF805000DF105010DF10303012027
:101A60000222ADF8034001F067F940F21C00C2F217
:101A70000000006845F01002416941F0805109E022
:101A800040F21C00C2F20000006805F0EF0241695C
:101A900021F0805141614FF471708DF80320ADF851
:101AA00005000DF105010DF103030220012201F0F3
:101AB00043F902B0B0BD000080B582B0ADF80300BC
:101AC00098208DF805000DF105010DF103030120AB
:101AD000022201F031F902B080BD000070B582B081
:101AE00036200DF103048DF805000DF105010120EC
:101AF00002222346022500F0EDFE9DF803000DF1C1
:101B0000050100F0FC0001308DF80300B6208DF8CF
:101B1000050001200122234601F00EF94FF4FB706D
:101B2000631CADF805000DF105010220012201F052
:101B300003F940F2F6400024ADF805000DF105016F
:101B40000DF1030302200222ADF8034001F0F4F886
:101B5000AC208DF805000DF105010DF10303012006
:101B60000222ADF8034001F0E7F840F2EC60ADF876
:101B700005000DF105010DF10303022001228DF88E
:101B8000034001F0D9F84FF43B760DF105010DF15A
:101B90000303022001228DF80340ADF8056001F037
:101BA000CBF80DF105010DF10303022001228DF8A0
:101BB0000350ADF8056001F0BFF840F2F6350DF1C5
:101BC00005010DF10303022001228DF80340ADF859
:101BD000055001F0B1F80120FFF7C8F9F0208DF8A9
:101BE00003000DF105010DF1030302200122ADF800
:101BF000055001F0A1F840F21C00C2F2000000689C
:101C0000847602B070BD000070B582B004468007D3
:101C10003DD40025E00751D045F006008DF80300C3
:101C20008D250DF105010DF10303012001228DF831
:101C3000055001F081F840F24F30ADF805000DF18C
:101C400005010DF103030220022200F043FE9DF87E
:101C500003009DF80410002440EA012010F4816F75
:101C60003CD040208DF803000DF105010DF1030378
:101C7000012001228DF8055001F05EF840F21C00B1
:101C8000C2F20000006884764FF0FF3426E08D2019
:101C900080258DF805000DF105010DF103030120EC
:101CA00001228DF80350012601F046F840F21C0095
:101CB000C2F2000000688676E007ADD145F0020070
:101CC0008DF803008D208DF805000DF105010DF153
:101CD00003030120012201F02FF80024204602B066
:101CE00070BD000080B582B00DF10103A3F1010CBD
:101CF000042300BF0CF8012F013B4FEA1222F9D157
:101D00008AB24AB140F0C0007F2A8DF8050009D898
:101D10008DF8061002200DE040F080008DF80500DF
:101D2000012007E041F080008DF80600C8098DF819
:101D3000070003200DF105010DF10103042200F05D
:101D4000FBFF02B080BD000013460244B2F5806F75
:101D500084BF4FF0FF30704780B582B08C46A0F151
:101D6000020263B1C921D8098DF805100CD043F0E7
:101D700080018DF8070003208DF8061007E0892008
:101D80008DF80500012002E08DF8063002200DF1EB
:101D90000501634600F0D0FF002002B080BD0000C6
:101DA00080B582B040F21C03C2F200031B6840EA17
:101DB0008150DB6840EAC2300DF10101184301395E
:101DC000042200BF01F8010F013A4FEA1020F9D1B7
:101DD00088208DF805000DF105010DF101030120AA
:101DE000042200F0A9FF02B080BD000040F20850BC
:101DF0000021C5F2000003221E2904BF00EB81036D
:101E0000C3F8F82101312029F6D14FF0804141601B
:101E100000210160C0F84412FFF786F813A000F01B
:101E2000EBFF00F0A3FD00F0E5FC0120FFF78CFBC9
:101E3000013019D000F06AFC40F21000C2F200003C
:101E4000FFF7E4F844F24800FFF7DAFD43F6AC7020
:101E5000FFF732FE6420FFF79FFD0020FFF7E6FD4D
:101E600000F024FEFCE700BFFEE700BF52455350E0
:101E70004F4E4445520D000080B54EF2001ECEF28A
:101E8000000E00EB0E03490100F00F024EF6145C49
:101E900003F54073CEF2000C002848BF02EB0C03A0
:101EA000197000F01F010122400902FA01F10EEB46
:101EB0008002C2F880114EF8201080BD2DE9F04755
:101EC000477940F2FC2607EBC707C2F2000606EB93
:101ED0008705AA461AF81C4F002C1CBF0820BDE835
:101EE000F0876B600B7846F8272091F80C8001276B
:101EF00040F2007C07FA03F44FF6086E4FF60C63CD
:101F0000C5F2000CB8F1010FCFF6FF7ECFF6FF73DC
:101F10008CBF4CF80E404CF803404E7891F800907E
:101F20000124FF2E4CF8294006D0B4404CF8034061
:101F300003234CF8263001E04FF0FF368F78FF2F57
:101F40001ABF04234CF827304FF0FF37CC78FF2C12
:101F500006D00123A3404CF80E3003234CF8243064
:101F60000368AC77C3F80895C3F80C65C3F810751F
:101F70008F68C3F824754F7B002F18BF0127B8F175
:101F8000030F07D0B8F1020F06D0B8F1010F08BF58
:101F9000023702E0063700E00437C3F854754F7982
:101FA000EF775AB10422C3F804230122C3F80025B5
:101FB00090F904000979FFF75FFF02E00120C3F800
:101FC00000050020012168778AF80010BDE8F0873D
:101FD00080B584B0DDF818C000918DF80420694602
:101FE000002202938DF80CC000F02AF804B080BDE6
:101FF00010B5417940F2FC2C01EBC101C2F2000C9A
:102000005CF821306BB190F90420012402F01F0E1E
:1020100004FA0EFE4EF280145209CEF2000444F887
:1020200022E00068002B1CBF4FF0FF32C0F80823ED
:102030000022C0F800250CEB8100027710BD0000E3
:102040002DE9F04F84B0437940F2FC2603EBC30343
:10205000C2F2000606EB830C674617F81D5F1DB140
:10206000112004B0BDE8F08F56F823E012F0140FF1
:1020700004D1BEF1000F1CBF01263E70D1E90065FE
:10208000D1E90243CCE90365CCE905439CF8213052
:102090009CF81E6003F0F803FF2E8CF8213006D068
:1020A000012340F20854B340C5F2000463602AB132
:1020B00000203870062004B0BDE8F08F00680023CF
:1020C0006246042402F8203FC0F80843C0F80831F3
:1020D000D0F808310193019B0F79002F0CBF0CF150
:1020E0001F060E683378022FC0F81C3502D309682A
:1020F000013104E0097B022904D30CF11F010978A6
:10210000C0F81C15BEF1000F03D00421C0F8041361
:102110005BE00CF118010CF10C0E0CF114090CF140
:1021200021040CF110050CF11F034FF0000A4FF0D1
:10213000010B009305E000BFDEF80030DB5DC0F866
:102140001C35D0F80831002BFBD0C0F808A1D0F81E
:1021500008310293029BD0F818358DF80F301378B0
:102160000E78B34204D29DF80F60D9F80070FE5487
:1021700013782678013376075BFA83F7137007D557
:102180002E78B74238BF2F700E78B74238BF0F7025
:102190002E78B742D0D391F80080474504D2009BF7
:1021A0001B78C0F81C35CCE7DBB2B34228BF4345EF
:1021B000C7D39CF81E00FF2807D0012101FA00F0C8
:1021C00040F20851C5F200010860002004B0BDE8EB
:1021D000F08F00002DE9F04782B090F804A040F2A3
:1021E0002038C2F2000808EB4A15A94619F81B3F2F
:1021F0001BB1082002B0BDE8F08791F81DE040F265
:10220000007C85F81CE00F6804467B1CC5F2000CBE
:102210000AD001234FF60866BB40CFF6FF764CF894
:10222000063003234CF827304F687B1C1CBF00236B
:102230004CF82730BEF1000F14D023688E69C3F824
:1022400024654B7D0E7D27683343DBB2C7F86C35C0
:102250002368D1E90070012EC3F80C75C3F814058A
:1022600014D02EE020688B69C0F82435487D0B7DA2
:1022700026681843C0B2C6F86C052068D1E900761C
:10228000012BC0F81465C0F80C751AD18F68781C42
:102290001CBF00204CF82700CF68781C0AD0012012
:1022A0004FF60863B840CFF6FF734CF803000320E5
:1022B0004CF827002068CB688F68C0F80835C0F854
:1022C00010756A600B694FEA4A10002A48F800301E
:1022D00041D0097FBEF1000F23D020680022C0F852
:1022E0001021D0F81001019001982068C0F8202139
:1022F000D0F82001019001982068C0F82421D0F87E
:102300002401019001982068C0F84421D0F84401CC
:102310008022019001982068C0F2020202F5247226
:1023200012E020680022C0F81C21D0F81C010190A6
:1023300001982068C0F84421D0F84401802201901F
:1023400001982068C0F20202C0F80423206840F31C
:102350000730FFF791FD207908EB4010007F00283F
:1023600020680CBF04210821C0F8001500200121BD
:102370002876E88289F80010A87602B0BDE8F087D8
:102380002DE9F04181B0037940F22037C2F2000715
:1023900007EB43131C7F01F06047B7F1005F18BFE4
:1023A000002C21D1D3F804C0BCF1000F08D007687D
:1023B000002C0CBF4FF401764FF40476C7F8086385
:1023C0009E461EF8176FAEB11D7E7DB1BCF1000FA9
:1023D0004CD00068002C0CBF4FF401714FF4047115
:1023E000C0F804131121C4E01021C2E016B1154653
:1023F000196104E000258EF80020D9605D761D7615
:102400002CB303680024C3F81041D3F810310093B3
:10241000009B0368C3F84441D3F844310093009B08
:102420000368C3F83415C3F838250EB30168D1F832
:10243000002242F02002C1F80022BCF1000F1DD0A2
:1024400000684FF40471C0F80413002191E098462D
:1024500018F81A1F314328D0BCF1000F3AD0006899
:102460004FF40171C0F80413002182E0112180E0D3
:10247000016801220A60BCF1000FE1D1026800BFCF
:10248000D2F81031D2F84401D2F82411002B08BF41
:1024900050EA0103F4D000228EF80020002918BF72
:1024A0000321002818BF0F2163E001680022C1F852
:1024B0002421D1F82411009100990168C1F8082164
:1024C000D1F8081101220091009901680A60BCF15D
:1024D000000FC4D102684FF0000CC2F844C1D2F81A
:1024E000442103F10C040092009A193311E000BF5B
:1024F000D5F808710097009FD5F8187525681978E8
:102500006F541978013119709EF800101D78A94296
:102510001CD90568D5F82421D5F80871D5F844618F
:10252000002F08BF56EA0207F4D0164318BF012651
:102530000CD19EF80070C5F808C1002FD8D1D5F88D
:1025400008710097009FD5F81875DDE70F21002A64
:102550004FF0000318BF03218EF800304EB998F8F1
:102560000010006800294FF001010CBF41600160BC
:102570000021084601B0BDE8F081000082B0017979
:1025800040F22032C2F2000202EB41110A7F0AB18E
:1025900002B0704711F81A2F002AF9D102680023FF
:1025A000C2F82431D2F824210092009A0268C2F8BD
:1025B0000831D2F808210192019A006801220260D4
:1025C0000A7002B070470000F0B581B0037940F2A4
:1025D0002035C2F2000505EB4314257F01F060436E
:1025E000B3F1005F18BF002D06D1A4461CF8163FBA
:1025F0002BB14FF0110E86E04FF0100E83E04FF03C
:10260000000E23468CF8002023F814EF43F80C1C2E
:102610003DB30368C3F820E1D3F820310093009B59
:102620000368C3F858E1D3F858310093009B03685E
:10263000C3F84415C3F84825016801228A6061681F
:10264000002960D1006800BFD0F82011D0F858E10F
:1026500051EA0E01F8D0BEF1000F18BF4FF00F0E77
:102660004EE005680126C5F81CE1D5F81C5100951F
:10267000009D0568AE600568C5F81CE1D5F81C61D1
:102680000096009E1E888E5D1F8801371F80C5F84A
:102690001C656468BCBB1F88974220D24FF0000EB7
:1026A00003E000BF1C88944219D20468D4F81C517E
:1026B0001DB91D88B5F5807FF8D11D88B5F5807FDF
:1026C000F0D0C4F81CE1D4F81C510095009D1D8881
:1026D0004D5D1E8801361E80C4F81C55E2E719883E
:1026E000B1F5807F02D14FF00F0E09E0006800BF06
:1026F000D0F81C110029FBD001214FF0000EC16061
:1027000000208CF80000704601B0F0BD10B584B018
:1027100042F6EC64C0F200042046FFF769FC314841
:10272000002300902FA0C268D0E901100392CDE9E8
:102730000110112042F69D228DF80300C0F2000224
:1027400069462046FFF7BAFB002818BFFEF71EFBBC
:1027500040F20400C2F2000042F200414FF4FA627B
:102760000068C0F2F40100BF00BF00BF00BF00BF9F
:1027700000BF00BF00BF88422FD000BF00BF00BF16
:1027800000BF00BF00BF00BF00BF00BF00BF00BF51
:1027900000BF00BF00BF00BF00BF00BF00BF00BF41
:1027A00000BF00BF00BF00BF00BF00BF00BF00BF31
:1027B00000BF00BF00BF00BF00BF00BF00BF00BF21
:1027C00000BF00BF00BF00BF00BF00BF00BF00BF11
:1027D00000BF00BF00BF00BF00BF521EC3D104B086
:1027E00010BD00BF101412FF06FF000000000080A3
:1027F0000000000080B584B032480023009031A072
:10280000C268D0E901100392CDE9011011208DF8C2
:10281000030042F6EC6042F69D22C0F20000C0F2D6
:1028200000026946FFF74AFB002818BFFEF7AEFA20
:1028300040F20400C2F2000042F200414FF4FA629A
:102840000068C0F2F40100BF00BF00BF00BF00BFBE
:1028500000BF00BF00BF88422FD000BF00BF00BF35
:1028600000BF00BF00BF00BF00BF00BF00BF00BF70
:1028700000BF00BF00BF00BF00BF00BF00BF00BF60
:1028800000BF00BF00BF00BF00BF00BF00BF00BF50
:1028900000BF00BF00BF00BF00BF00BF00BF00BF40
:1028A00000BF00BF00BF00BF00BF00BF00BF00BF30
:1028B00000BF00BF00BF00BF00BF521EC3D104B0A5
:1028C00080BD00BF101412FF06FF000000000020B2
:1028D000000000002DE9F04F03AF83B08518834658
:1028E000E81D20F0070091460E46ADEB000447F8C6
:1028F000143CA546ADEB000AD54650462946FDF7E7
:10290000B4FC04EB0B08002140465D4588BF4946F6
:10291000FDF7ABFC204631465A46FDF78DFC40469C
:102920004946FDF7A2FC40F2A236C2F200060020A2
:102930003070EAB282B042F6EC60C0F2000021468C
:1029400053460092FFF744FB02B000BF30780028E6
:10295000FCD057F8140C0AEB0B014A46FDF76CFC4F
:10296000A7F10C040020A546BDE8F08F40F260708E
:10297000C5F20000032101604FF6AC51CFF6FF71A4
:102980004FF0807240F2040C4250C2F2000C42F24E
:1029900000434FF4FA61DCF80020C0F2F40300BFFA
:1029A00000BF00BF00BF00BF00BF00BF00BF9A4212
:1029B0002FD000BF00BF00BF00BF00BF00BF00BFDF
:1029C00000BF00BF00BF00BF00BF00BF00BF00BF0F
:1029D00000BF00BF00BF00BF00BF00BF00BF00BFFF
:1029E00000BF00BF00BF00BF00BF00BF00BF00BFEF
:1029F00000BF00BF00BF00BF00BF00BF00BF00BFDF
:102A000000BF00BF00BF00BF00BF00BF00BF00BFCE
:102A100000BF491EC3D1002101604FF4FA61DCF808
:102A2000000000BF00BF00BF00BF00BF00BF00BF6D
:102A300000BF98422FD000BF00BF00BF00BF00BF43
:102A400000BF00BF00BF00BF00BF00BF00BF00BF8E
:102A500000BF00BF00BF00BF00BF00BF00BF00BF7E
:102A600000BF00BF00BF00BF00BF00BF00BF00BF6E
:102A700000BF00BF00BF00BF00BF00BF00BF00BF5E
:102A800000BF00BF00BF00BF00BF00BF00BF00BF4E
:102A900000BF00BF00BF491EC3D1704740F2A23043
:102AA000C2F20000012101707047000070B582B0D1
:102AB00049F200040020C2F20544FEF7CBFE04F503
:102AC000091500BF0F200021FEF768FE2842F9D04B
:102AD000400407D40F2000212246FFF703F9FEF738
:102AE00023FFA3E00F2000214FF480420025FFF7D1
:102AF000F9F810200021FEF751FE40F2883401461B
:102B0000C2F200046FF39F2120460022FEF772FEFE
:102B100040F22001C2F2000120460A22A570FDF712
:102B2000AFFB002840F082800DF103042046FEF741
:102B300083FE002004220021A35C0902013A41EA3D
:102B40001061551C43EA0020F6D1002240F2803487
:102B5000C0F24C42C2F200048518C4E9000141F100
:102B60000006280A40EA0660FEF7FCFE40F2FF116C
:102B700025EA010144F24802F0B211EB020C40F2E6
:102B80002D0140F10002C2F20001D4E900E001F1A0
:102B90000A030024C4F120062EFA04F500FA06F612
:102BA0003543B4F1200604F1080458BF20FA06F5B5
:102BB000202C03F8015FEDD101F10E00002300BFCE
:102BC000C3F120052CFA03F602FA05F52E43B3F102
:102BD000200503F1080358BF22FA05F6202B00F860
:102BE000016FEDD140F2A024C2F20004207800224F
:102BF00088701520FFF7A8F8152000210122FFF7A3
:102C0000CFF80120FFF700F810B1FEF78DFE0DE0C0
:102C10000F200021FEF7C2FD0006F9D50F2000218C
:102C20008022FFF75FF8207801302070C820FEF77F
:102C30009DF9012002B070BD10B582B0017899B144
:102C4000022928D0012924D1406840F25834017863
:102C5000C2F200042046FEF7D7F8002841D0012137
:102C60008DF80010019043E040F26C3040F2A33147
:102C7000C2F20000C2F20001FEF798F820B340F261
:102C80005431C2F20001032009688DF80000684643
:102C9000884702B010BDC06802218DF80010019075
:102CA00040F2080040F2A131C2F20000C2F200017D
:102CB0000122FFF765FB40F25430C2F200000168C8
:102CC0006846884702B010BD40F2080040F2A331C8
:102CD000C2F20000C2F200010122FFF775FC02B04F
:102CE00010BDA068E168814209D000208DF8000085
:102CF00040F25430C2F20000016868468847A0687C
:102D0000E168A288081A904207D940F26830C2F2FE
:102D100000000121017002B010BD40F2080040F235
:102D2000A131C2F20000C2F200010122FFF728FB2C
:102D300002B010BD704700002DE9F04F03AF83B023
:102D400085180646E81D20F00700ADEB000447F8A3
:102D5000143C92468B46A546ADEB0009CD4648464D
:102D60002946FDF782FA04EB060800214046B542E9
:102D700088BF5146FDF779FA204659463246FDF79D
:102D80005BFA57F8141C40465246FDF755FA40F2DC
:102D9000A236C2F2000600203070EAB282B042F6DB
:102DA000EC60C0F2000021464B460092FFF710F99C
:102DB00002B000BF30780028FCD0A7F10C0400203E
:102DC000A546BDE8F08F02E008C8121F08C1002A1E
:102DD000FAD170477047002001E001C1121F002A9C
:102DE000FBD1704738B504468DF8000069460320D2
:102DF000ABBE204638BD000010B5044601E0FFF729
:102E0000F1FF14F8010B04490028F8D1BDE8104087
:102E10000A20FFF7E7BF00000000002007A90225F5
:102E200070889B8800000102030400050B0000006D
:102E300005000000FFFFFFFFFFFFFFFF0000000095
:102E40000000D601FFFFFFFFFFFFFFFFFFFFFFFFB7
:102E5000FFFFFFFF00000000000000000000D6019F
:102E6000070100002D001A3152001A339A001A355A
:102E70001D011A376B003B31BE003B335E013B3511
:102E800096023B3787008D004010080007040009B8
:102E90000805400809104008080540081D040008FE
:102EA0001D0400081E265626BEBE000098599859DB
:102EB000EA518E421E45142E0080EA51F428323326
:102EC000E03A703DE03AC235842BC2353233C23528
:102ED000C235AE47E03A5038A2305038D8BC0A006C
:102EE0001600010006000100020000000040004042
:102EF00004000000405C0000A05C0400C06C0800FE
:102F0000805C0400E03F1E00E07D1E00302F0000CA
:102F10000000002048000000C62D0000782F0000AF
:102F20004800002060230000D62D000000000000B3
:102F3000000000000090D0030020004000000000CE
:102F4000050214000A0A0002000081006802002045
:102F5000418800CADE57415645E0490000418800DB
:102F6000CADE56455741E152000000000000000053
:082F7000000000000000000059
:0400000500000201F4
:00000001FF
